{
	"contracts/InternalEnergyAccountingContract.sol": {
		"InternalEnergyAccountingContract": {
			"abi": [
				{
					"inputs": [],
					"stateMutability": "nonpayable",
					"type": "constructor"
				},
				{
					"inputs": [
						{
							"internalType": "uint256",
							"name": "",
							"type": "uint256"
						}
					],
					"name": "allSellers",
					"outputs": [
						{
							"internalType": "address",
							"name": "addr",
							"type": "address"
						},
						{
							"internalType": "uint256",
							"name": "energyOffered",
							"type": "uint256"
						},
						{
							"internalType": "uint256",
							"name": "desiredPrice",
							"type": "uint256"
						}
					],
					"stateMutability": "view",
					"type": "function"
				},
				{
					"inputs": [
						{
							"internalType": "uint256",
							"name": "",
							"type": "uint256"
						}
					],
					"name": "buyerLookup",
					"outputs": [
						{
							"internalType": "address",
							"name": "",
							"type": "address"
						}
					],
					"stateMutability": "view",
					"type": "function"
				},
				{
					"inputs": [
						{
							"internalType": "address",
							"name": "",
							"type": "address"
						}
					],
					"name": "buyers",
					"outputs": [
						{
							"internalType": "address",
							"name": "addr",
							"type": "address"
						},
						{
							"internalType": "uint256",
							"name": "energyDemanded",
							"type": "uint256"
						},
						{
							"internalType": "uint256",
							"name": "priceBid",
							"type": "uint256"
						},
						{
							"internalType": "uint256",
							"name": "fundsCommitted",
							"type": "uint256"
						}
					],
					"stateMutability": "view",
					"type": "function"
				},
				{
					"inputs": [
						{
							"internalType": "uint256",
							"name": "energyPrice",
							"type": "uint256"
						}
					],
					"name": "checkEtherEquiv",
					"outputs": [
						{
							"internalType": "uint256",
							"name": "",
							"type": "uint256"
						}
					],
					"stateMutability": "view",
					"type": "function"
				},
				{
					"inputs": [],
					"name": "matchDemandAndSupply",
					"outputs": [],
					"stateMutability": "nonpayable",
					"type": "function"
				},
				{
					"inputs": [],
					"name": "owner",
					"outputs": [
						{
							"internalType": "address",
							"name": "",
							"type": "address"
						}
					],
					"stateMutability": "view",
					"type": "function"
				},
				{
					"inputs": [],
					"name": "paySellers",
					"outputs": [],
					"stateMutability": "nonpayable",
					"type": "function"
				},
				{
					"inputs": [
						{
							"internalType": "uint256",
							"name": "",
							"type": "uint256"
						}
					],
					"name": "paylist",
					"outputs": [
						{
							"internalType": "uint256",
							"name": "",
							"type": "uint256"
						}
					],
					"stateMutability": "view",
					"type": "function"
				},
				{
					"inputs": [],
					"name": "refundBuyers",
					"outputs": [],
					"stateMutability": "nonpayable",
					"type": "function"
				},
				{
					"inputs": [
						{
							"internalType": "uint256",
							"name": "rate",
							"type": "uint256"
						}
					],
					"name": "setRate",
					"outputs": [],
					"stateMutability": "nonpayable",
					"type": "function"
				},
				{
					"inputs": [
						{
							"internalType": "uint256",
							"name": "BEB",
							"type": "uint256"
						},
						{
							"internalType": "uint256",
							"name": "BBP",
							"type": "uint256"
						}
					],
					"name": "submitBid",
					"outputs": [],
					"stateMutability": "payable",
					"type": "function"
				},
				{
					"inputs": [
						{
							"internalType": "uint256",
							"name": "SEO",
							"type": "uint256"
						},
						{
							"internalType": "uint256",
							"name": "SOP",
							"type": "uint256"
						}
					],
					"name": "submitOffers",
					"outputs": [],
					"stateMutability": "nonpayable",
					"type": "function"
				},
				{
					"inputs": [
						{
							"internalType": "uint256",
							"name": "",
							"type": "uint256"
						}
					],
					"name": "vAddresses",
					"outputs": [
						{
							"internalType": "address",
							"name": "",
							"type": "address"
						}
					],
					"stateMutability": "view",
					"type": "function"
				},
				{
					"inputs": [
						{
							"internalType": "uint256",
							"name": "",
							"type": "uint256"
						}
					],
					"name": "vBBPs",
					"outputs": [
						{
							"internalType": "uint256",
							"name": "",
							"type": "uint256"
						}
					],
					"stateMutability": "view",
					"type": "function"
				},
				{
					"inputs": [
						{
							"internalType": "uint256",
							"name": "",
							"type": "uint256"
						}
					],
					"name": "vBEBs",
					"outputs": [
						{
							"internalType": "uint256",
							"name": "",
							"type": "uint256"
						}
					],
					"stateMutability": "view",
					"type": "function"
				},
				{
					"inputs": [
						{
							"internalType": "uint256",
							"name": "",
							"type": "uint256"
						}
					],
					"name": "vBuyerAddr",
					"outputs": [
						{
							"internalType": "address",
							"name": "",
							"type": "address"
						}
					],
					"stateMutability": "view",
					"type": "function"
				},
				{
					"inputs": [
						{
							"internalType": "uint256",
							"name": "",
							"type": "uint256"
						}
					],
					"name": "vBuyers",
					"outputs": [
						{
							"internalType": "address",
							"name": "addr",
							"type": "address"
						},
						{
							"internalType": "uint256",
							"name": "energyDemanded",
							"type": "uint256"
						},
						{
							"internalType": "uint256",
							"name": "priceBid",
							"type": "uint256"
						},
						{
							"internalType": "uint256",
							"name": "fundsCommitted",
							"type": "uint256"
						}
					],
					"stateMutability": "view",
					"type": "function"
				},
				{
					"inputs": [
						{
							"internalType": "uint256",
							"name": "",
							"type": "uint256"
						}
					],
					"name": "vFCs",
					"outputs": [
						{
							"internalType": "uint256",
							"name": "",
							"type": "uint256"
						}
					],
					"stateMutability": "view",
					"type": "function"
				},
				{
					"inputs": [
						{
							"internalType": "uint256",
							"name": "",
							"type": "uint256"
						}
					],
					"name": "vSEOs",
					"outputs": [
						{
							"internalType": "uint256",
							"name": "",
							"type": "uint256"
						}
					],
					"stateMutability": "view",
					"type": "function"
				},
				{
					"inputs": [
						{
							"internalType": "uint256",
							"name": "",
							"type": "uint256"
						}
					],
					"name": "vSOPs",
					"outputs": [
						{
							"internalType": "uint256",
							"name": "",
							"type": "uint256"
						}
					],
					"stateMutability": "view",
					"type": "function"
				},
				{
					"inputs": [
						{
							"internalType": "uint256",
							"name": "",
							"type": "uint256"
						}
					],
					"name": "vSellers",
					"outputs": [
						{
							"internalType": "address",
							"name": "addr",
							"type": "address"
						},
						{
							"internalType": "uint256",
							"name": "energyOffered",
							"type": "uint256"
						},
						{
							"internalType": "uint256",
							"name": "desiredPrice",
							"type": "uint256"
						}
					],
					"stateMutability": "view",
					"type": "function"
				},
				{
					"inputs": [
						{
							"internalType": "address",
							"name": "bidderAddress",
							"type": "address"
						},
						{
							"internalType": "uint256",
							"name": "BEB",
							"type": "uint256"
						},
						{
							"internalType": "uint256",
							"name": "BBP",
							"type": "uint256"
						}
					],
					"name": "verifiedBids",
					"outputs": [],
					"stateMutability": "nonpayable",
					"type": "function"
				},
				{
					"inputs": [
						{
							"internalType": "address",
							"name": "offerorAddress",
							"type": "address"
						},
						{
							"internalType": "uint256",
							"name": "SEO",
							"type": "uint256"
						},
						{
							"internalType": "uint256",
							"name": "SOP",
							"type": "uint256"
						}
					],
					"name": "verifiedOffers",
					"outputs": [],
					"stateMutability": "nonpayable",
					"type": "function"
				}
			],
			"devdoc": {
				"kind": "dev",
				"methods": {},
				"version": 1
			},
			"evm": {
				"assembly": "    /* \"contracts/InternalEnergyAccountingContract.sol\":61:5463  contract InternalEnergyAccountingContract {... */\n  mstore(0x40, 0x80)\n    /* \"contracts/InternalEnergyAccountingContract.sol\":1245:1296  constructor() {... */\n  callvalue\n  dup1\n  iszero\n  tag_1\n  jumpi\n  revert(0x00, 0x00)\ntag_1:\n  pop\n    /* \"contracts/InternalEnergyAccountingContract.sol\":1278:1288  msg.sender */\n  caller\n    /* \"contracts/InternalEnergyAccountingContract.sol\":1270:1275  owner */\n  0x01\n  0x00\n    /* \"contracts/InternalEnergyAccountingContract.sol\":1270:1288  owner = msg.sender */\n  0x0100\n  exp\n  dup2\n  sload\n  dup2\n  0xffffffffffffffffffffffffffffffffffffffff\n  mul\n  not\n  and\n  swap1\n  dup4\n  0xffffffffffffffffffffffffffffffffffffffff\n  and\n  mul\n  or\n  swap1\n  sstore\n  pop\n    /* \"contracts/InternalEnergyAccountingContract.sol\":61:5463  contract InternalEnergyAccountingContract {... */\n  dataSize(sub_0)\n  dup1\n  dataOffset(sub_0)\n  0x00\n  codecopy\n  0x00\n  return\nstop\n\nsub_0: assembly {\n        /* \"contracts/InternalEnergyAccountingContract.sol\":61:5463  contract InternalEnergyAccountingContract {... */\n      mstore(0x40, 0x80)\n      jumpi(tag_1, lt(calldatasize, 0x04))\n      shr(0xe0, calldataload(0x00))\n      dup1\n      0xba4e194f\n      gt\n      tag_25\n      jumpi\n      dup1\n      0xddd469d8\n      gt\n      tag_26\n      jumpi\n      dup1\n      0xddd469d8\n      eq\n      tag_19\n      jumpi\n      dup1\n      0xe1d53875\n      eq\n      tag_20\n      jumpi\n      dup1\n      0xec14f2a2\n      eq\n      tag_21\n      jumpi\n      dup1\n      0xed4a4a24\n      eq\n      tag_22\n      jumpi\n      dup1\n      0xf2905237\n      eq\n      tag_23\n      jumpi\n      dup1\n      0xf40ab387\n      eq\n      tag_24\n      jumpi\n      jump(tag_1)\n    tag_26:\n      dup1\n      0xba4e194f\n      eq\n      tag_13\n      jumpi\n      dup1\n      0xbe9abf1c\n      eq\n      tag_14\n      jumpi\n      dup1\n      0xbf2c0451\n      eq\n      tag_15\n      jumpi\n      dup1\n      0xc3c7d602\n      eq\n      tag_16\n      jumpi\n      dup1\n      0xd23c1779\n      eq\n      tag_17\n      jumpi\n      dup1\n      0xd9704984\n      eq\n      tag_18\n      jumpi\n      jump(tag_1)\n    tag_25:\n      dup1\n      0x82a8c853\n      gt\n      tag_27\n      jumpi\n      dup1\n      0x82a8c853\n      eq\n      tag_7\n      jumpi\n      dup1\n      0x8da5cb5b\n      eq\n      tag_8\n      jumpi\n      dup1\n      0x97a993aa\n      eq\n      tag_9\n      jumpi\n      dup1\n      0xa8bba507\n      eq\n      tag_10\n      jumpi\n      dup1\n      0xb2bf04a3\n      eq\n      tag_11\n      jumpi\n      dup1\n      0xb821da1b\n      eq\n      tag_12\n      jumpi\n      jump(tag_1)\n    tag_27:\n      dup1\n      0x34fcf437\n      eq\n      tag_2\n      jumpi\n      dup1\n      0x42bec084\n      eq\n      tag_3\n      jumpi\n      dup1\n      0x6d6be726\n      eq\n      tag_4\n      jumpi\n      dup1\n      0x701d1973\n      eq\n      tag_5\n      jumpi\n      dup1\n      0x7b4b1dcd\n      eq\n      tag_6\n      jumpi\n    tag_1:\n      revert(0x00, 0x00)\n        /* \"contracts/InternalEnergyAccountingContract.sol\":1324:1465  function setRate(uint rate) public {... */\n    tag_2:\n      callvalue\n      dup1\n      iszero\n      tag_28\n      jumpi\n      revert(0x00, 0x00)\n    tag_28:\n      pop\n      tag_29\n      0x04\n      dup1\n      calldatasize\n      sub\n      dup2\n      add\n      swap1\n      tag_30\n      swap2\n      swap1\n      tag_31\n      jump\t// in\n    tag_30:\n      tag_32\n      jump\t// in\n    tag_29:\n      stop\n        /* \"contracts/InternalEnergyAccountingContract.sol\":814:842  address[] public buyerLookup */\n    tag_3:\n      callvalue\n      dup1\n      iszero\n      tag_33\n      jumpi\n      revert(0x00, 0x00)\n    tag_33:\n      pop\n      tag_34\n      0x04\n      dup1\n      calldatasize\n      sub\n      dup2\n      add\n      swap1\n      tag_35\n      swap2\n      swap1\n      tag_31\n      jump\t// in\n    tag_35:\n      tag_36\n      jump\t// in\n    tag_34:\n      mload(0x40)\n      tag_37\n      swap2\n      swap1\n      tag_38\n      jump\t// in\n    tag_37:\n      mload(0x40)\n      dup1\n      swap2\n      sub\n      swap1\n      return\n        /* \"contracts/InternalEnergyAccountingContract.sol\":1662:1781  function submitOffers(uint256 SEO, uint256 SOP) public {... */\n    tag_4:\n      callvalue\n      dup1\n      iszero\n      tag_39\n      jumpi\n      revert(0x00, 0x00)\n    tag_39:\n      pop\n      tag_40\n      0x04\n      dup1\n      calldatasize\n      sub\n      dup2\n      add\n      swap1\n      tag_41\n      swap2\n      swap1\n      tag_42\n      jump\t// in\n    tag_41:\n      tag_43\n      jump\t// in\n    tag_40:\n      stop\n        /* \"contracts/InternalEnergyAccountingContract.sol\":1501:1635  function checkEtherEquiv(uint256 energyPrice) public view returns(uint256){... */\n    tag_5:\n      callvalue\n      dup1\n      iszero\n      tag_44\n      jumpi\n      revert(0x00, 0x00)\n    tag_44:\n      pop\n      tag_45\n      0x04\n      dup1\n      calldatasize\n      sub\n      dup2\n      add\n      swap1\n      tag_46\n      swap2\n      swap1\n      tag_31\n      jump\t// in\n    tag_46:\n      tag_47\n      jump\t// in\n    tag_45:\n      mload(0x40)\n      tag_48\n      swap2\n      swap1\n      tag_49\n      jump\t// in\n    tag_48:\n      mload(0x40)\n      dup1\n      swap2\n      sub\n      swap1\n      return\n        /* \"contracts/InternalEnergyAccountingContract.sol\":535:557  uint256[] public vSEOs */\n    tag_6:\n      callvalue\n      dup1\n      iszero\n      tag_50\n      jumpi\n      revert(0x00, 0x00)\n    tag_50:\n      pop\n      tag_51\n      0x04\n      dup1\n      calldatasize\n      sub\n      dup2\n      add\n      swap1\n      tag_52\n      swap2\n      swap1\n      tag_31\n      jump\t// in\n    tag_52:\n      tag_53\n      jump\t// in\n    tag_51:\n      mload(0x40)\n      tag_54\n      swap2\n      swap1\n      tag_49\n      jump\t// in\n    tag_54:\n      mload(0x40)\n      dup1\n      swap2\n      sub\n      swap1\n      return\n        /* \"contracts/InternalEnergyAccountingContract.sol\":1123:1145  uint256[] public vBEBs */\n    tag_7:\n      callvalue\n      dup1\n      iszero\n      tag_55\n      jumpi\n      revert(0x00, 0x00)\n    tag_55:\n      pop\n      tag_56\n      0x04\n      dup1\n      calldatasize\n      sub\n      dup2\n      add\n      swap1\n      tag_57\n      swap2\n      swap1\n      tag_31\n      jump\t// in\n    tag_57:\n      tag_58\n      jump\t// in\n    tag_56:\n      mload(0x40)\n      tag_59\n      swap2\n      swap1\n      tag_49\n      jump\t// in\n    tag_59:\n      mload(0x40)\n      dup1\n      swap2\n      sub\n      swap1\n      return\n        /* \"contracts/InternalEnergyAccountingContract.sol\":144:164  address public owner */\n    tag_8:\n      callvalue\n      dup1\n      iszero\n      tag_60\n      jumpi\n      revert(0x00, 0x00)\n    tag_60:\n      pop\n      tag_61\n      tag_62\n      jump\t// in\n    tag_61:\n      mload(0x40)\n      tag_63\n      swap2\n      swap1\n      tag_38\n      jump\t// in\n    tag_63:\n      mload(0x40)\n      dup1\n      swap2\n      sub\n      swap1\n      return\n        /* \"contracts/InternalEnergyAccountingContract.sol\":741:780  mapping(address => Buyer) public buyers */\n    tag_9:\n      callvalue\n      dup1\n      iszero\n      tag_64\n      jumpi\n      revert(0x00, 0x00)\n    tag_64:\n      pop\n      tag_65\n      0x04\n      dup1\n      calldatasize\n      sub\n      dup2\n      add\n      swap1\n      tag_66\n      swap2\n      swap1\n      tag_67\n      jump\t// in\n    tag_66:\n      tag_68\n      jump\t// in\n    tag_65:\n      mload(0x40)\n      tag_69\n      swap5\n      swap4\n      swap3\n      swap2\n      swap1\n      tag_70\n      jump\t// in\n    tag_69:\n      mload(0x40)\n      dup1\n      swap2\n      sub\n      swap1\n      return\n        /* \"contracts/InternalEnergyAccountingContract.sol\":444:494  mapping(uint256 => VerifiedSeller) public vSellers */\n    tag_10:\n      callvalue\n      dup1\n      iszero\n      tag_71\n      jumpi\n      revert(0x00, 0x00)\n    tag_71:\n      pop\n      tag_72\n      0x04\n      dup1\n      calldatasize\n      sub\n      dup2\n      add\n      swap1\n      tag_73\n      swap2\n      swap1\n      tag_31\n      jump\t// in\n    tag_73:\n      tag_74\n      jump\t// in\n    tag_72:\n      mload(0x40)\n      tag_75\n      swap4\n      swap3\n      swap2\n      swap1\n      tag_76\n      jump\t// in\n    tag_75:\n      mload(0x40)\n      dup1\n      swap2\n      sub\n      swap1\n      return\n        /* \"contracts/InternalEnergyAccountingContract.sol\":4702:4986  function paySellers() public {... */\n    tag_11:\n      callvalue\n      dup1\n      iszero\n      tag_77\n      jumpi\n      revert(0x00, 0x00)\n    tag_77:\n      pop\n      tag_78\n      tag_79\n      jump\t// in\n    tag_78:\n      stop\n        /* \"contracts/InternalEnergyAccountingContract.sol\":2502:2809  function submitBid(uint256 BEB, uint256 BBP) public payable {... */\n    tag_12:\n      tag_80\n      0x04\n      dup1\n      calldatasize\n      sub\n      dup2\n      add\n      swap1\n      tag_81\n      swap2\n      swap1\n      tag_42\n      jump\t// in\n    tag_81:\n      tag_82\n      jump\t// in\n    tag_80:\n      stop\n        /* \"contracts/InternalEnergyAccountingContract.sol\":1181:1202  uint256[] public vFCs */\n    tag_13:\n      callvalue\n      dup1\n      iszero\n      tag_83\n      jumpi\n      revert(0x00, 0x00)\n    tag_83:\n      pop\n      tag_84\n      0x04\n      dup1\n      calldatasize\n      sub\n      dup2\n      add\n      swap1\n      tag_85\n      swap2\n      swap1\n      tag_31\n      jump\t// in\n    tag_85:\n      tag_86\n      jump\t// in\n    tag_84:\n      mload(0x40)\n      tag_87\n      swap2\n      swap1\n      tag_49\n      jump\t// in\n    tag_87:\n      mload(0x40)\n      dup1\n      swap2\n      sub\n      swap1\n      return\n        /* \"contracts/InternalEnergyAccountingContract.sol\":2842:3441  function verifiedBids(address bidderAddress, uint256 BEB, uint256 BBP) public {... */\n    tag_14:\n      callvalue\n      dup1\n      iszero\n      tag_88\n      jumpi\n      revert(0x00, 0x00)\n    tag_88:\n      pop\n      tag_89\n      0x04\n      dup1\n      calldatasize\n      sub\n      dup2\n      add\n      swap1\n      tag_90\n      swap2\n      swap1\n      tag_91\n      jump\t// in\n    tag_90:\n      tag_92\n      jump\t// in\n    tag_89:\n      stop\n        /* \"contracts/InternalEnergyAccountingContract.sol\":1152:1174  uint256[] public vBBPs */\n    tag_15:\n      callvalue\n      dup1\n      iszero\n      tag_93\n      jumpi\n      revert(0x00, 0x00)\n    tag_93:\n      pop\n      tag_94\n      0x04\n      dup1\n      calldatasize\n      sub\n      dup2\n      add\n      swap1\n      tag_95\n      swap2\n      swap1\n      tag_31\n      jump\t// in\n    tag_95:\n      tag_96\n      jump\t// in\n    tag_94:\n      mload(0x40)\n      tag_97\n      swap2\n      swap1\n      tag_49\n      jump\t// in\n    tag_97:\n      mload(0x40)\n      dup1\n      swap2\n      sub\n      swap1\n      return\n        /* \"contracts/InternalEnergyAccountingContract.sol\":3470:4671  function matchDemandAndSupply() public {... */\n    tag_16:\n      callvalue\n      dup1\n      iszero\n      tag_98\n      jumpi\n      revert(0x00, 0x00)\n    tag_98:\n      pop\n      tag_99\n      tag_100\n      jump\t// in\n    tag_99:\n      stop\n        /* \"contracts/InternalEnergyAccountingContract.sol\":1816:2477  function verifiedOffers(address offerorAddress, uint256 SEO, uint256 SOP) public {... */\n    tag_17:\n      callvalue\n      dup1\n      iszero\n      tag_101\n      jumpi\n      revert(0x00, 0x00)\n    tag_101:\n      pop\n      tag_102\n      0x04\n      dup1\n      calldatasize\n      sub\n      dup2\n      add\n      swap1\n      tag_103\n      swap2\n      swap1\n      tag_91\n      jump\t// in\n    tag_103:\n      tag_104\n      jump\t// in\n    tag_102:\n      stop\n        /* \"contracts/InternalEnergyAccountingContract.sol\":1034:1082  mapping(uint256 => VerifiedBuyer) public vBuyers */\n    tag_18:\n      callvalue\n      dup1\n      iszero\n      tag_105\n      jumpi\n      revert(0x00, 0x00)\n    tag_105:\n      pop\n      tag_106\n      0x04\n      dup1\n      calldatasize\n      sub\n      dup2\n      add\n      swap1\n      tag_107\n      swap2\n      swap1\n      tag_31\n      jump\t// in\n    tag_107:\n      tag_108\n      jump\t// in\n    tag_106:\n      mload(0x40)\n      tag_109\n      swap5\n      swap4\n      swap3\n      swap2\n      swap1\n      tag_70\n      jump\t// in\n    tag_109:\n      mload(0x40)\n      dup1\n      swap2\n      sub\n      swap1\n      return\n        /* \"contracts/InternalEnergyAccountingContract.sol\":1089:1116  address[] public vBuyerAddr */\n    tag_19:\n      callvalue\n      dup1\n      iszero\n      tag_110\n      jumpi\n      revert(0x00, 0x00)\n    tag_110:\n      pop\n      tag_111\n      0x04\n      dup1\n      calldatasize\n      sub\n      dup2\n      add\n      swap1\n      tag_112\n      swap2\n      swap1\n      tag_31\n      jump\t// in\n    tag_112:\n      tag_113\n      jump\t// in\n    tag_111:\n      mload(0x40)\n      tag_114\n      swap2\n      swap1\n      tag_38\n      jump\t// in\n    tag_114:\n      mload(0x40)\n      dup1\n      swap2\n      sub\n      swap1\n      return\n        /* \"contracts/InternalEnergyAccountingContract.sol\":1212:1236  uint256[] public paylist */\n    tag_20:\n      callvalue\n      dup1\n      iszero\n      tag_115\n      jumpi\n      revert(0x00, 0x00)\n    tag_115:\n      pop\n      tag_116\n      0x04\n      dup1\n      calldatasize\n      sub\n      dup2\n      add\n      swap1\n      tag_117\n      swap2\n      swap1\n      tag_31\n      jump\t// in\n    tag_117:\n      tag_118\n      jump\t// in\n    tag_116:\n      mload(0x40)\n      tag_119\n      swap2\n      swap1\n      tag_49\n      jump\t// in\n    tag_119:\n      mload(0x40)\n      dup1\n      swap2\n      sub\n      swap1\n      return\n        /* \"contracts/InternalEnergyAccountingContract.sol\":564:586  uint256[] public vSOPs */\n    tag_21:\n      callvalue\n      dup1\n      iszero\n      tag_120\n      jumpi\n      revert(0x00, 0x00)\n    tag_120:\n      pop\n      tag_121\n      0x04\n      dup1\n      calldatasize\n      sub\n      dup2\n      add\n      swap1\n      tag_122\n      swap2\n      swap1\n      tag_31\n      jump\t// in\n    tag_122:\n      tag_123\n      jump\t// in\n    tag_121:\n      mload(0x40)\n      tag_124\n      swap2\n      swap1\n      tag_49\n      jump\t// in\n    tag_124:\n      mload(0x40)\n      dup1\n      swap2\n      sub\n      swap1\n      return\n        /* \"contracts/InternalEnergyAccountingContract.sol\":287:313  Seller[] public allSellers */\n    tag_22:\n      callvalue\n      dup1\n      iszero\n      tag_125\n      jumpi\n      revert(0x00, 0x00)\n    tag_125:\n      pop\n      tag_126\n      0x04\n      dup1\n      calldatasize\n      sub\n      dup2\n      add\n      swap1\n      tag_127\n      swap2\n      swap1\n      tag_31\n      jump\t// in\n    tag_127:\n      tag_128\n      jump\t// in\n    tag_126:\n      mload(0x40)\n      tag_129\n      swap4\n      swap3\n      swap2\n      swap1\n      tag_76\n      jump\t// in\n    tag_129:\n      mload(0x40)\n      dup1\n      swap2\n      sub\n      swap1\n      return\n        /* \"contracts/InternalEnergyAccountingContract.sol\":5022:5460  function refundBuyers() public {... */\n    tag_23:\n      callvalue\n      dup1\n      iszero\n      tag_130\n      jumpi\n      revert(0x00, 0x00)\n    tag_130:\n      pop\n      tag_131\n      tag_132\n      jump\t// in\n    tag_131:\n      stop\n        /* \"contracts/InternalEnergyAccountingContract.sol\":501:528  address[] public vAddresses */\n    tag_24:\n      callvalue\n      dup1\n      iszero\n      tag_133\n      jumpi\n      revert(0x00, 0x00)\n    tag_133:\n      pop\n      tag_134\n      0x04\n      dup1\n      calldatasize\n      sub\n      dup2\n      add\n      swap1\n      tag_135\n      swap2\n      swap1\n      tag_31\n      jump\t// in\n    tag_135:\n      tag_136\n      jump\t// in\n    tag_134:\n      mload(0x40)\n      tag_137\n      swap2\n      swap1\n      tag_38\n      jump\t// in\n    tag_137:\n      mload(0x40)\n      dup1\n      swap2\n      sub\n      swap1\n      return\n        /* \"contracts/InternalEnergyAccountingContract.sol\":1324:1465  function setRate(uint rate) public {... */\n    tag_32:\n        /* \"contracts/InternalEnergyAccountingContract.sol\":1392:1397  owner */\n      0x01\n      0x00\n      swap1\n      sload\n      swap1\n      0x0100\n      exp\n      swap1\n      div\n      0xffffffffffffffffffffffffffffffffffffffff\n      and\n        /* \"contracts/InternalEnergyAccountingContract.sol\":1378:1397  msg.sender == owner */\n      0xffffffffffffffffffffffffffffffffffffffff\n      and\n        /* \"contracts/InternalEnergyAccountingContract.sol\":1378:1388  msg.sender */\n      caller\n        /* \"contracts/InternalEnergyAccountingContract.sol\":1378:1397  msg.sender == owner */\n      0xffffffffffffffffffffffffffffffffffffffff\n      and\n      eq\n        /* \"contracts/InternalEnergyAccountingContract.sol\":1370:1429  require(msg.sender == owner, \"Only owner can set the rate\") */\n      tag_139\n      jumpi\n      mload(0x40)\n      0x08c379a000000000000000000000000000000000000000000000000000000000\n      dup2\n      mstore\n      0x04\n      add\n      tag_140\n      swap1\n      tag_141\n      jump\t// in\n    tag_140:\n      mload(0x40)\n      dup1\n      swap2\n      sub\n      swap1\n      revert\n    tag_139:\n        /* \"contracts/InternalEnergyAccountingContract.sol\":1453:1457  rate */\n      dup1\n        /* \"contracts/InternalEnergyAccountingContract.sol\":1440:1450  etherPrice */\n      0x00\n        /* \"contracts/InternalEnergyAccountingContract.sol\":1440:1457  etherPrice = rate */\n      dup2\n      swap1\n      sstore\n      pop\n        /* \"contracts/InternalEnergyAccountingContract.sol\":1324:1465  function setRate(uint rate) public {... */\n      pop\n      jump\t// out\n        /* \"contracts/InternalEnergyAccountingContract.sol\":814:842  address[] public buyerLookup */\n    tag_36:\n      0x08\n      dup2\n      dup2\n      sload\n      dup2\n      lt\n      tag_142\n      jumpi\n      0x00\n      dup1\n      revert\n    tag_142:\n      swap1\n      0x00\n      mstore\n      keccak256(0x00, 0x20)\n      add\n      0x00\n      swap2\n      pop\n      sload\n      swap1\n      0x0100\n      exp\n      swap1\n      div\n      0xffffffffffffffffffffffffffffffffffffffff\n      and\n      dup2\n      jump\t// out\n        /* \"contracts/InternalEnergyAccountingContract.sol\":1662:1781  function submitOffers(uint256 SEO, uint256 SOP) public {... */\n    tag_43:\n        /* \"contracts/InternalEnergyAccountingContract.sol\":1728:1738  allSellers */\n      0x02\n        /* \"contracts/InternalEnergyAccountingContract.sol\":1744:1772  Seller(msg.sender, SEO, SOP) */\n      mload(0x40)\n      dup1\n      0x60\n      add\n      0x40\n      mstore\n      dup1\n        /* \"contracts/InternalEnergyAccountingContract.sol\":1751:1761  msg.sender */\n      caller\n        /* \"contracts/InternalEnergyAccountingContract.sol\":1744:1772  Seller(msg.sender, SEO, SOP) */\n      0xffffffffffffffffffffffffffffffffffffffff\n      and\n      dup2\n      mstore\n      0x20\n      add\n        /* \"contracts/InternalEnergyAccountingContract.sol\":1763:1766  SEO */\n      dup5\n        /* \"contracts/InternalEnergyAccountingContract.sol\":1744:1772  Seller(msg.sender, SEO, SOP) */\n      dup2\n      mstore\n      0x20\n      add\n        /* \"contracts/InternalEnergyAccountingContract.sol\":1768:1771  SOP */\n      dup4\n        /* \"contracts/InternalEnergyAccountingContract.sol\":1744:1772  Seller(msg.sender, SEO, SOP) */\n      dup2\n      mstore\n      pop\n        /* \"contracts/InternalEnergyAccountingContract.sol\":1728:1773  allSellers.push(Seller(msg.sender, SEO, SOP)) */\n      swap1\n      dup1\n      0x01\n      dup2\n      sload\n      add\n      dup1\n      dup3\n      sstore\n      dup1\n      swap2\n      pop\n      pop\n      0x01\n      swap1\n      sub\n      swap1\n      0x00\n      mstore\n      keccak256(0x00, 0x20)\n      swap1\n      0x03\n      mul\n      add\n      0x00\n      swap1\n      swap2\n      swap1\n      swap2\n      swap1\n      swap2\n      pop\n      0x00\n      dup3\n      add\n      mload\n      dup2\n      0x00\n      add\n      exp(0x0100, 0x00)\n      dup2\n      sload\n      dup2\n      0xffffffffffffffffffffffffffffffffffffffff\n      mul\n      not\n      and\n      swap1\n      dup4\n      0xffffffffffffffffffffffffffffffffffffffff\n      and\n      mul\n      or\n      swap1\n      sstore\n      pop\n      0x20\n      dup3\n      add\n      mload\n      dup2\n      0x01\n      add\n      sstore\n      0x40\n      dup3\n      add\n      mload\n      dup2\n      0x02\n      add\n      sstore\n      pop\n      pop\n        /* \"contracts/InternalEnergyAccountingContract.sol\":1662:1781  function submitOffers(uint256 SEO, uint256 SOP) public {... */\n      pop\n      pop\n      jump\t// out\n        /* \"contracts/InternalEnergyAccountingContract.sol\":1501:1635  function checkEtherEquiv(uint256 energyPrice) public view returns(uint256){... */\n    tag_47:\n        /* \"contracts/InternalEnergyAccountingContract.sol\":1567:1574  uint256 */\n      0x00\n        /* \"contracts/InternalEnergyAccountingContract.sol\":1616:1626  etherPrice */\n      sload(0x00)\n        /* \"contracts/InternalEnergyAccountingContract.sol\":1608:1612  1e18 */\n      0x0de0b6b3a7640000\n        /* \"contracts/InternalEnergyAccountingContract.sol\":1594:1605  energyPrice */\n      dup4\n        /* \"contracts/InternalEnergyAccountingContract.sol\":1594:1612  energyPrice * 1e18 */\n      tag_147\n      swap2\n      swap1\n      tag_148\n      jump\t// in\n    tag_147:\n        /* \"contracts/InternalEnergyAccountingContract.sol\":1593:1626  (energyPrice * 1e18) / etherPrice */\n      tag_149\n      swap2\n      swap1\n      tag_150\n      jump\t// in\n    tag_149:\n        /* \"contracts/InternalEnergyAccountingContract.sol\":1586:1626  return (energyPrice * 1e18) / etherPrice */\n      swap1\n      pop\n        /* \"contracts/InternalEnergyAccountingContract.sol\":1501:1635  function checkEtherEquiv(uint256 energyPrice) public view returns(uint256){... */\n      swap2\n      swap1\n      pop\n      jump\t// out\n        /* \"contracts/InternalEnergyAccountingContract.sol\":535:557  uint256[] public vSEOs */\n    tag_53:\n      0x05\n      dup2\n      dup2\n      sload\n      dup2\n      lt\n      tag_151\n      jumpi\n      0x00\n      dup1\n      revert\n    tag_151:\n      swap1\n      0x00\n      mstore\n      keccak256(0x00, 0x20)\n      add\n      0x00\n      swap2\n      pop\n      swap1\n      pop\n      sload\n      dup2\n      jump\t// out\n        /* \"contracts/InternalEnergyAccountingContract.sol\":1123:1145  uint256[] public vBEBs */\n    tag_58:\n      0x0b\n      dup2\n      dup2\n      sload\n      dup2\n      lt\n      tag_153\n      jumpi\n      0x00\n      dup1\n      revert\n    tag_153:\n      swap1\n      0x00\n      mstore\n      keccak256(0x00, 0x20)\n      add\n      0x00\n      swap2\n      pop\n      swap1\n      pop\n      sload\n      dup2\n      jump\t// out\n        /* \"contracts/InternalEnergyAccountingContract.sol\":144:164  address public owner */\n    tag_62:\n      0x01\n      0x00\n      swap1\n      sload\n      swap1\n      0x0100\n      exp\n      swap1\n      div\n      0xffffffffffffffffffffffffffffffffffffffff\n      and\n      dup2\n      jump\t// out\n        /* \"contracts/InternalEnergyAccountingContract.sol\":741:780  mapping(address => Buyer) public buyers */\n    tag_68:\n      mstore(0x20, 0x07)\n      dup1\n      0x00\n      mstore\n      keccak256(0x00, 0x40)\n      0x00\n      swap2\n      pop\n      swap1\n      pop\n      dup1\n      0x00\n      add\n      0x00\n      swap1\n      sload\n      swap1\n      0x0100\n      exp\n      swap1\n      div\n      0xffffffffffffffffffffffffffffffffffffffff\n      and\n      swap1\n      dup1\n      0x01\n      add\n      sload\n      swap1\n      dup1\n      0x02\n      add\n      sload\n      swap1\n      dup1\n      0x03\n      add\n      sload\n      swap1\n      pop\n      dup5\n      jump\t// out\n        /* \"contracts/InternalEnergyAccountingContract.sol\":444:494  mapping(uint256 => VerifiedSeller) public vSellers */\n    tag_74:\n      mstore(0x20, 0x03)\n      dup1\n      0x00\n      mstore\n      keccak256(0x00, 0x40)\n      0x00\n      swap2\n      pop\n      swap1\n      pop\n      dup1\n      0x00\n      add\n      0x00\n      swap1\n      sload\n      swap1\n      0x0100\n      exp\n      swap1\n      div\n      0xffffffffffffffffffffffffffffffffffffffff\n      and\n      swap1\n      dup1\n      0x01\n      add\n      sload\n      swap1\n      dup1\n      0x02\n      add\n      sload\n      swap1\n      pop\n      dup4\n      jump\t// out\n        /* \"contracts/InternalEnergyAccountingContract.sol\":4702:4986  function paySellers() public {... */\n    tag_79:\n        /* \"contracts/InternalEnergyAccountingContract.sol\":4764:4769  owner */\n      0x01\n      0x00\n      swap1\n      sload\n      swap1\n      0x0100\n      exp\n      swap1\n      div\n      0xffffffffffffffffffffffffffffffffffffffff\n      and\n        /* \"contracts/InternalEnergyAccountingContract.sol\":4750:4769  msg.sender == owner */\n      0xffffffffffffffffffffffffffffffffffffffff\n      and\n        /* \"contracts/InternalEnergyAccountingContract.sol\":4750:4760  msg.sender */\n      caller\n        /* \"contracts/InternalEnergyAccountingContract.sol\":4750:4769  msg.sender == owner */\n      0xffffffffffffffffffffffffffffffffffffffff\n      and\n      eq\n        /* \"contracts/InternalEnergyAccountingContract.sol\":4742:4803  require(msg.sender == owner, \"Only owner authorizes payment\") */\n      tag_156\n      jumpi\n      mload(0x40)\n      0x08c379a000000000000000000000000000000000000000000000000000000000\n      dup2\n      mstore\n      0x04\n      add\n      tag_157\n      swap1\n      tag_158\n      jump\t// in\n    tag_157:\n      mload(0x40)\n      dup1\n      swap2\n      sub\n      swap1\n      revert\n    tag_156:\n        /* \"contracts/InternalEnergyAccountingContract.sol\":4818:4824  uint i */\n      0x00\n        /* \"contracts/InternalEnergyAccountingContract.sol\":4827:4828  0 */\n      0x00\n        /* \"contracts/InternalEnergyAccountingContract.sol\":4818:4828  uint i = 0 */\n      swap1\n      pop\n        /* \"contracts/InternalEnergyAccountingContract.sol\":4814:4979  for(uint i = 0; i < paylist.length; i++){... */\n    tag_159:\n        /* \"contracts/InternalEnergyAccountingContract.sol\":4834:4841  paylist */\n      0x0e\n        /* \"contracts/InternalEnergyAccountingContract.sol\":4834:4848  paylist.length */\n      dup1\n      sload\n      swap1\n      pop\n        /* \"contracts/InternalEnergyAccountingContract.sol\":4830:4831  i */\n      dup2\n        /* \"contracts/InternalEnergyAccountingContract.sol\":4830:4848  i < paylist.length */\n      lt\n        /* \"contracts/InternalEnergyAccountingContract.sol\":4814:4979  for(uint i = 0; i < paylist.length; i++){... */\n      iszero\n      tag_160\n      jumpi\n        /* \"contracts/InternalEnergyAccountingContract.sol\":4886:4887  0 */\n      0x00\n        /* \"contracts/InternalEnergyAccountingContract.sol\":4873:4880  paylist */\n      0x0e\n        /* \"contracts/InternalEnergyAccountingContract.sol\":4881:4882  i */\n      dup3\n        /* \"contracts/InternalEnergyAccountingContract.sol\":4873:4883  paylist[i] */\n      dup2\n      sload\n      dup2\n      lt\n      tag_162\n      jumpi\n      tag_163\n      tag_164\n      jump\t// in\n    tag_163:\n    tag_162:\n      swap1\n      0x00\n      mstore\n      keccak256(0x00, 0x20)\n      add\n      sload\n        /* \"contracts/InternalEnergyAccountingContract.sol\":4873:4887  paylist[i] > 0 */\n      gt\n        /* \"contracts/InternalEnergyAccountingContract.sol\":4869:4967  if (paylist[i] > 0) {... */\n      iszero\n      tag_166\n      jumpi\n        /* \"contracts/InternalEnergyAccountingContract.sol\":4916:4926  vAddresses */\n      0x04\n        /* \"contracts/InternalEnergyAccountingContract.sol\":4927:4928  i */\n      dup2\n        /* \"contracts/InternalEnergyAccountingContract.sol\":4916:4929  vAddresses[i] */\n      dup2\n      sload\n      dup2\n      lt\n      tag_167\n      jumpi\n      tag_168\n      tag_164\n      jump\t// in\n    tag_168:\n    tag_167:\n      swap1\n      0x00\n      mstore\n      keccak256(0x00, 0x20)\n      add\n      0x00\n      swap1\n      sload\n      swap1\n      0x0100\n      exp\n      swap1\n      div\n      0xffffffffffffffffffffffffffffffffffffffff\n      and\n        /* \"contracts/InternalEnergyAccountingContract.sol\":4908:4939  payable(vAddresses[i]).transfer */\n      0xffffffffffffffffffffffffffffffffffffffff\n      and\n        /* \"contracts/InternalEnergyAccountingContract.sol\":4908:4951  payable(vAddresses[i]).transfer(paylist[i]) */\n      0x08fc\n        /* \"contracts/InternalEnergyAccountingContract.sol\":4940:4947  paylist */\n      0x0e\n        /* \"contracts/InternalEnergyAccountingContract.sol\":4948:4949  i */\n      dup4\n        /* \"contracts/InternalEnergyAccountingContract.sol\":4940:4950  paylist[i] */\n      dup2\n      sload\n      dup2\n      lt\n      tag_170\n      jumpi\n      tag_171\n      tag_164\n      jump\t// in\n    tag_171:\n    tag_170:\n      swap1\n      0x00\n      mstore\n      keccak256(0x00, 0x20)\n      add\n      sload\n        /* \"contracts/InternalEnergyAccountingContract.sol\":4908:4951  payable(vAddresses[i]).transfer(paylist[i]) */\n      swap1\n      dup2\n      iszero\n      mul\n      swap1\n      mload(0x40)\n      0x00\n      mload(0x40)\n      dup1\n      dup4\n      sub\n      dup2\n      dup6\n      dup9\n      dup9\n      call\n      swap4\n      pop\n      pop\n      pop\n      pop\n      iszero\n      dup1\n      iszero\n      tag_174\n      jumpi\n      returndatacopy(0x00, 0x00, returndatasize)\n      revert(0x00, returndatasize)\n    tag_174:\n      pop\n        /* \"contracts/InternalEnergyAccountingContract.sol\":4869:4967  if (paylist[i] > 0) {... */\n    tag_166:\n        /* \"contracts/InternalEnergyAccountingContract.sol\":4850:4853  i++ */\n      dup1\n      dup1\n      0x01\n      add\n      swap2\n      pop\n      pop\n        /* \"contracts/InternalEnergyAccountingContract.sol\":4814:4979  for(uint i = 0; i < paylist.length; i++){... */\n      jump(tag_159)\n    tag_160:\n      pop\n        /* \"contracts/InternalEnergyAccountingContract.sol\":4702:4986  function paySellers() public {... */\n      jump\t// out\n        /* \"contracts/InternalEnergyAccountingContract.sol\":2502:2809  function submitBid(uint256 BEB, uint256 BBP) public payable {... */\n    tag_82:\n        /* \"contracts/InternalEnergyAccountingContract.sol\":2573:2592  uint256 dollarsSent */\n      0x00\n        /* \"contracts/InternalEnergyAccountingContract.sol\":2622:2626  1e18 */\n      0x0de0b6b3a7640000\n        /* \"contracts/InternalEnergyAccountingContract.sol\":2608:2618  etherPrice */\n      sload(0x00)\n        /* \"contracts/InternalEnergyAccountingContract.sol\":2596:2605  msg.value */\n      callvalue\n        /* \"contracts/InternalEnergyAccountingContract.sol\":2596:2618  msg.value * etherPrice */\n      tag_176\n      swap2\n      swap1\n      tag_148\n      jump\t// in\n    tag_176:\n        /* \"contracts/InternalEnergyAccountingContract.sol\":2595:2626  (msg.value * etherPrice) / 1e18 */\n      tag_177\n      swap2\n      swap1\n      tag_150\n      jump\t// in\n    tag_177:\n        /* \"contracts/InternalEnergyAccountingContract.sol\":2573:2626  uint256 dollarsSent = (msg.value * etherPrice) / 1e18 */\n      swap1\n      pop\n        /* \"contracts/InternalEnergyAccountingContract.sol\":2660:2663  BBP */\n      dup2\n        /* \"contracts/InternalEnergyAccountingContract.sol\":2645:2656  dollarsSent */\n      dup2\n        /* \"contracts/InternalEnergyAccountingContract.sol\":2645:2663  dollarsSent >= BBP */\n      lt\n      iszero\n        /* \"contracts/InternalEnergyAccountingContract.sol\":2637:2690  require(dollarsSent >= BBP, \"Ether sent < Bid Price\") */\n      tag_178\n      jumpi\n      mload(0x40)\n      0x08c379a000000000000000000000000000000000000000000000000000000000\n      dup2\n      mstore\n      0x04\n      add\n      tag_179\n      swap1\n      tag_180\n      jump\t// in\n    tag_179:\n      mload(0x40)\n      dup1\n      swap2\n      sub\n      swap1\n      revert\n    tag_178:\n        /* \"contracts/InternalEnergyAccountingContract.sol\":2724:2762  Buyer(msg.sender, BEB, BBP, msg.value) */\n      mload(0x40)\n      dup1\n      0x80\n      add\n      0x40\n      mstore\n      dup1\n        /* \"contracts/InternalEnergyAccountingContract.sol\":2730:2740  msg.sender */\n      caller\n        /* \"contracts/InternalEnergyAccountingContract.sol\":2724:2762  Buyer(msg.sender, BEB, BBP, msg.value) */\n      0xffffffffffffffffffffffffffffffffffffffff\n      and\n      dup2\n      mstore\n      0x20\n      add\n        /* \"contracts/InternalEnergyAccountingContract.sol\":2742:2745  BEB */\n      dup5\n        /* \"contracts/InternalEnergyAccountingContract.sol\":2724:2762  Buyer(msg.sender, BEB, BBP, msg.value) */\n      dup2\n      mstore\n      0x20\n      add\n        /* \"contracts/InternalEnergyAccountingContract.sol\":2747:2750  BBP */\n      dup4\n        /* \"contracts/InternalEnergyAccountingContract.sol\":2724:2762  Buyer(msg.sender, BEB, BBP, msg.value) */\n      dup2\n      mstore\n      0x20\n      add\n        /* \"contracts/InternalEnergyAccountingContract.sol\":2752:2761  msg.value */\n      callvalue\n        /* \"contracts/InternalEnergyAccountingContract.sol\":2724:2762  Buyer(msg.sender, BEB, BBP, msg.value) */\n      dup2\n      mstore\n      pop\n        /* \"contracts/InternalEnergyAccountingContract.sol\":2703:2709  buyers */\n      0x07\n        /* \"contracts/InternalEnergyAccountingContract.sol\":2703:2721  buyers[msg.sender] */\n      0x00\n        /* \"contracts/InternalEnergyAccountingContract.sol\":2710:2720  msg.sender */\n      caller\n        /* \"contracts/InternalEnergyAccountingContract.sol\":2703:2721  buyers[msg.sender] */\n      0xffffffffffffffffffffffffffffffffffffffff\n      and\n      0xffffffffffffffffffffffffffffffffffffffff\n      and\n      dup2\n      mstore\n      0x20\n      add\n      swap1\n      dup2\n      mstore\n      0x20\n      add\n      0x00\n      keccak256\n        /* \"contracts/InternalEnergyAccountingContract.sol\":2703:2762  buyers[msg.sender] = Buyer(msg.sender, BEB, BBP, msg.value) */\n      0x00\n      dup3\n      add\n      mload\n      dup2\n      0x00\n      add\n      exp(0x0100, 0x00)\n      dup2\n      sload\n      dup2\n      0xffffffffffffffffffffffffffffffffffffffff\n      mul\n      not\n      and\n      swap1\n      dup4\n      0xffffffffffffffffffffffffffffffffffffffff\n      and\n      mul\n      or\n      swap1\n      sstore\n      pop\n      0x20\n      dup3\n      add\n      mload\n      dup2\n      0x01\n      add\n      sstore\n      0x40\n      dup3\n      add\n      mload\n      dup2\n      0x02\n      add\n      sstore\n      0x60\n      dup3\n      add\n      mload\n      dup2\n      0x03\n      add\n      sstore\n      swap1\n      pop\n      pop\n        /* \"contracts/InternalEnergyAccountingContract.sol\":2773:2784  buyerLookup */\n      0x08\n        /* \"contracts/InternalEnergyAccountingContract.sol\":2790:2800  msg.sender */\n      caller\n        /* \"contracts/InternalEnergyAccountingContract.sol\":2773:2801  buyerLookup.push(msg.sender) */\n      swap1\n      dup1\n      0x01\n      dup2\n      sload\n      add\n      dup1\n      dup3\n      sstore\n      dup1\n      swap2\n      pop\n      pop\n      0x01\n      swap1\n      sub\n      swap1\n      0x00\n      mstore\n      keccak256(0x00, 0x20)\n      add\n      0x00\n      swap1\n      swap2\n      swap1\n      swap2\n      swap1\n      swap2\n      0x0100\n      exp\n      dup2\n      sload\n      dup2\n      0xffffffffffffffffffffffffffffffffffffffff\n      mul\n      not\n      and\n      swap1\n      dup4\n      0xffffffffffffffffffffffffffffffffffffffff\n      and\n      mul\n      or\n      swap1\n      sstore\n      pop\n        /* \"contracts/InternalEnergyAccountingContract.sol\":2562:2809  {... */\n      pop\n        /* \"contracts/InternalEnergyAccountingContract.sol\":2502:2809  function submitBid(uint256 BEB, uint256 BBP) public payable {... */\n      pop\n      pop\n      jump\t// out\n        /* \"contracts/InternalEnergyAccountingContract.sol\":1181:1202  uint256[] public vFCs */\n    tag_86:\n      0x0d\n      dup2\n      dup2\n      sload\n      dup2\n      lt\n      tag_182\n      jumpi\n      0x00\n      dup1\n      revert\n    tag_182:\n      swap1\n      0x00\n      mstore\n      keccak256(0x00, 0x20)\n      add\n      0x00\n      swap2\n      pop\n      swap1\n      pop\n      sload\n      dup2\n      jump\t// out\n        /* \"contracts/InternalEnergyAccountingContract.sol\":2842:3441  function verifiedBids(address bidderAddress, uint256 BEB, uint256 BBP) public {... */\n    tag_92:\n        /* \"contracts/InternalEnergyAccountingContract.sol\":2969:2982  bidderAddress */\n      dup3\n        /* \"contracts/InternalEnergyAccountingContract.sol\":2939:2982  buyers[bidderAddress].addr == bidderAddress */\n      0xffffffffffffffffffffffffffffffffffffffff\n      and\n        /* \"contracts/InternalEnergyAccountingContract.sol\":2939:2945  buyers */\n      0x07\n        /* \"contracts/InternalEnergyAccountingContract.sol\":2939:2960  buyers[bidderAddress] */\n      0x00\n        /* \"contracts/InternalEnergyAccountingContract.sol\":2946:2959  bidderAddress */\n      dup6\n        /* \"contracts/InternalEnergyAccountingContract.sol\":2939:2960  buyers[bidderAddress] */\n      0xffffffffffffffffffffffffffffffffffffffff\n      and\n      0xffffffffffffffffffffffffffffffffffffffff\n      and\n      dup2\n      mstore\n      0x20\n      add\n      swap1\n      dup2\n      mstore\n      0x20\n      add\n      0x00\n      keccak256\n        /* \"contracts/InternalEnergyAccountingContract.sol\":2939:2965  buyers[bidderAddress].addr */\n      0x00\n      add\n      0x00\n      swap1\n      sload\n      swap1\n      0x0100\n      exp\n      swap1\n      div\n      0xffffffffffffffffffffffffffffffffffffffff\n      and\n        /* \"contracts/InternalEnergyAccountingContract.sol\":2939:2982  buyers[bidderAddress].addr == bidderAddress */\n      0xffffffffffffffffffffffffffffffffffffffff\n      and\n      eq\n        /* \"contracts/InternalEnergyAccountingContract.sol\":2939:3029  buyers[bidderAddress].addr == bidderAddress && buyers[bidderAddress].energyDemanded == BEB */\n      dup1\n      iszero\n      tag_185\n      jumpi\n      pop\n        /* \"contracts/InternalEnergyAccountingContract.sol\":3026:3029  BEB */\n      dup2\n        /* \"contracts/InternalEnergyAccountingContract.sol\":2986:2992  buyers */\n      0x07\n        /* \"contracts/InternalEnergyAccountingContract.sol\":2986:3007  buyers[bidderAddress] */\n      0x00\n        /* \"contracts/InternalEnergyAccountingContract.sol\":2993:3006  bidderAddress */\n      dup6\n        /* \"contracts/InternalEnergyAccountingContract.sol\":2986:3007  buyers[bidderAddress] */\n      0xffffffffffffffffffffffffffffffffffffffff\n      and\n      0xffffffffffffffffffffffffffffffffffffffff\n      and\n      dup2\n      mstore\n      0x20\n      add\n      swap1\n      dup2\n      mstore\n      0x20\n      add\n      0x00\n      keccak256\n        /* \"contracts/InternalEnergyAccountingContract.sol\":2986:3022  buyers[bidderAddress].energyDemanded */\n      0x01\n      add\n      sload\n        /* \"contracts/InternalEnergyAccountingContract.sol\":2986:3029  buyers[bidderAddress].energyDemanded == BEB */\n      eq\n        /* \"contracts/InternalEnergyAccountingContract.sol\":2939:3029  buyers[bidderAddress].addr == bidderAddress && buyers[bidderAddress].energyDemanded == BEB */\n    tag_185:\n        /* \"contracts/InternalEnergyAccountingContract.sol\":2939:3070  buyers[bidderAddress].addr == bidderAddress && buyers[bidderAddress].energyDemanded == BEB && buyers[bidderAddress].priceBid == BBP */\n      dup1\n      iszero\n      tag_186\n      jumpi\n      pop\n        /* \"contracts/InternalEnergyAccountingContract.sol\":3067:3070  BBP */\n      dup1\n        /* \"contracts/InternalEnergyAccountingContract.sol\":3033:3039  buyers */\n      0x07\n        /* \"contracts/InternalEnergyAccountingContract.sol\":3033:3054  buyers[bidderAddress] */\n      0x00\n        /* \"contracts/InternalEnergyAccountingContract.sol\":3040:3053  bidderAddress */\n      dup6\n        /* \"contracts/InternalEnergyAccountingContract.sol\":3033:3054  buyers[bidderAddress] */\n      0xffffffffffffffffffffffffffffffffffffffff\n      and\n      0xffffffffffffffffffffffffffffffffffffffff\n      and\n      dup2\n      mstore\n      0x20\n      add\n      swap1\n      dup2\n      mstore\n      0x20\n      add\n      0x00\n      keccak256\n        /* \"contracts/InternalEnergyAccountingContract.sol\":3033:3063  buyers[bidderAddress].priceBid */\n      0x02\n      add\n      sload\n        /* \"contracts/InternalEnergyAccountingContract.sol\":3033:3070  buyers[bidderAddress].priceBid == BBP */\n      eq\n        /* \"contracts/InternalEnergyAccountingContract.sol\":2939:3070  buyers[bidderAddress].addr == bidderAddress && buyers[bidderAddress].energyDemanded == BEB && buyers[bidderAddress].priceBid == BBP */\n    tag_186:\n        /* \"contracts/InternalEnergyAccountingContract.sol\":2931:3087  require(buyers[bidderAddress].addr == bidderAddress && buyers[bidderAddress].energyDemanded == BEB && buyers[bidderAddress].priceBid == BBP, \"Bid mismatch\") */\n      tag_187\n      jumpi\n      mload(0x40)\n      0x08c379a000000000000000000000000000000000000000000000000000000000\n      dup2\n      mstore\n      0x04\n      add\n      tag_188\n      swap1\n      tag_189\n      jump\t// in\n    tag_188:\n      mload(0x40)\n      dup1\n      swap2\n      sub\n      swap1\n      revert\n    tag_187:\n        /* \"contracts/InternalEnergyAccountingContract.sol\":3100:3110  uint256 id */\n      0x00\n        /* \"contracts/InternalEnergyAccountingContract.sol\":3113:3123  vBuyerAddr */\n      0x0a\n        /* \"contracts/InternalEnergyAccountingContract.sol\":3113:3130  vBuyerAddr.length */\n      dup1\n      sload\n      swap1\n      pop\n        /* \"contracts/InternalEnergyAccountingContract.sol\":3100:3130  uint256 id = vBuyerAddr.length */\n      swap1\n      pop\n        /* \"contracts/InternalEnergyAccountingContract.sol\":3155:3231  VerifiedBuyer(bidderAddress, BEB, BBP, buyers[bidderAddress].fundsCommitted) */\n      mload(0x40)\n      dup1\n      0x80\n      add\n      0x40\n      mstore\n      dup1\n        /* \"contracts/InternalEnergyAccountingContract.sol\":3169:3182  bidderAddress */\n      dup6\n        /* \"contracts/InternalEnergyAccountingContract.sol\":3155:3231  VerifiedBuyer(bidderAddress, BEB, BBP, buyers[bidderAddress].fundsCommitted) */\n      0xffffffffffffffffffffffffffffffffffffffff\n      and\n      dup2\n      mstore\n      0x20\n      add\n        /* \"contracts/InternalEnergyAccountingContract.sol\":3184:3187  BEB */\n      dup5\n        /* \"contracts/InternalEnergyAccountingContract.sol\":3155:3231  VerifiedBuyer(bidderAddress, BEB, BBP, buyers[bidderAddress].fundsCommitted) */\n      dup2\n      mstore\n      0x20\n      add\n        /* \"contracts/InternalEnergyAccountingContract.sol\":3189:3192  BBP */\n      dup4\n        /* \"contracts/InternalEnergyAccountingContract.sol\":3155:3231  VerifiedBuyer(bidderAddress, BEB, BBP, buyers[bidderAddress].fundsCommitted) */\n      dup2\n      mstore\n      0x20\n      add\n        /* \"contracts/InternalEnergyAccountingContract.sol\":3194:3200  buyers */\n      0x07\n        /* \"contracts/InternalEnergyAccountingContract.sol\":3194:3215  buyers[bidderAddress] */\n      0x00\n        /* \"contracts/InternalEnergyAccountingContract.sol\":3201:3214  bidderAddress */\n      dup8\n        /* \"contracts/InternalEnergyAccountingContract.sol\":3194:3215  buyers[bidderAddress] */\n      0xffffffffffffffffffffffffffffffffffffffff\n      and\n      0xffffffffffffffffffffffffffffffffffffffff\n      and\n      dup2\n      mstore\n      0x20\n      add\n      swap1\n      dup2\n      mstore\n      0x20\n      add\n      0x00\n      keccak256\n        /* \"contracts/InternalEnergyAccountingContract.sol\":3194:3230  buyers[bidderAddress].fundsCommitted */\n      0x03\n      add\n      sload\n        /* \"contracts/InternalEnergyAccountingContract.sol\":3155:3231  VerifiedBuyer(bidderAddress, BEB, BBP, buyers[bidderAddress].fundsCommitted) */\n      dup2\n      mstore\n      pop\n        /* \"contracts/InternalEnergyAccountingContract.sol\":3141:3148  vBuyers */\n      0x09\n        /* \"contracts/InternalEnergyAccountingContract.sol\":3141:3152  vBuyers[id] */\n      0x00\n        /* \"contracts/InternalEnergyAccountingContract.sol\":3149:3151  id */\n      dup4\n        /* \"contracts/InternalEnergyAccountingContract.sol\":3141:3152  vBuyers[id] */\n      dup2\n      mstore\n      0x20\n      add\n      swap1\n      dup2\n      mstore\n      0x20\n      add\n      0x00\n      keccak256\n        /* \"contracts/InternalEnergyAccountingContract.sol\":3141:3231  vBuyers[id] = VerifiedBuyer(bidderAddress, BEB, BBP, buyers[bidderAddress].fundsCommitted) */\n      0x00\n      dup3\n      add\n      mload\n      dup2\n      0x00\n      add\n      exp(0x0100, 0x00)\n      dup2\n      sload\n      dup2\n      0xffffffffffffffffffffffffffffffffffffffff\n      mul\n      not\n      and\n      swap1\n      dup4\n      0xffffffffffffffffffffffffffffffffffffffff\n      and\n      mul\n      or\n      swap1\n      sstore\n      pop\n      0x20\n      dup3\n      add\n      mload\n      dup2\n      0x01\n      add\n      sstore\n      0x40\n      dup3\n      add\n      mload\n      dup2\n      0x02\n      add\n      sstore\n      0x60\n      dup3\n      add\n      mload\n      dup2\n      0x03\n      add\n      sstore\n      swap1\n      pop\n      pop\n        /* \"contracts/InternalEnergyAccountingContract.sol\":3252:3262  vBuyerAddr */\n      0x0a\n        /* \"contracts/InternalEnergyAccountingContract.sol\":3268:3281  bidderAddress */\n      dup5\n        /* \"contracts/InternalEnergyAccountingContract.sol\":3252:3282  vBuyerAddr.push(bidderAddress) */\n      swap1\n      dup1\n      0x01\n      dup2\n      sload\n      add\n      dup1\n      dup3\n      sstore\n      dup1\n      swap2\n      pop\n      pop\n      0x01\n      swap1\n      sub\n      swap1\n      0x00\n      mstore\n      keccak256(0x00, 0x20)\n      add\n      0x00\n      swap1\n      swap2\n      swap1\n      swap2\n      swap1\n      swap2\n      0x0100\n      exp\n      dup2\n      sload\n      dup2\n      0xffffffffffffffffffffffffffffffffffffffff\n      mul\n      not\n      and\n      swap1\n      dup4\n      0xffffffffffffffffffffffffffffffffffffffff\n      and\n      mul\n      or\n      swap1\n      sstore\n      pop\n        /* \"contracts/InternalEnergyAccountingContract.sol\":3293:3298  vBEBs */\n      0x0b\n        /* \"contracts/InternalEnergyAccountingContract.sol\":3304:3307  BEB */\n      dup4\n        /* \"contracts/InternalEnergyAccountingContract.sol\":3293:3308  vBEBs.push(BEB) */\n      swap1\n      dup1\n      0x01\n      dup2\n      sload\n      add\n      dup1\n      dup3\n      sstore\n      dup1\n      swap2\n      pop\n      pop\n      0x01\n      swap1\n      sub\n      swap1\n      0x00\n      mstore\n      keccak256(0x00, 0x20)\n      add\n      0x00\n      swap1\n      swap2\n      swap1\n      swap2\n      swap1\n      swap2\n      pop\n      sstore\n        /* \"contracts/InternalEnergyAccountingContract.sol\":3319:3324  vBBPs */\n      0x0c\n        /* \"contracts/InternalEnergyAccountingContract.sol\":3330:3333  BBP */\n      dup3\n        /* \"contracts/InternalEnergyAccountingContract.sol\":3319:3334  vBBPs.push(BBP) */\n      swap1\n      dup1\n      0x01\n      dup2\n      sload\n      add\n      dup1\n      dup3\n      sstore\n      dup1\n      swap2\n      pop\n      pop\n      0x01\n      swap1\n      sub\n      swap1\n      0x00\n      mstore\n      keccak256(0x00, 0x20)\n      add\n      0x00\n      swap1\n      swap2\n      swap1\n      swap2\n      swap1\n      swap2\n      pop\n      sstore\n        /* \"contracts/InternalEnergyAccountingContract.sol\":3345:3349  vFCs */\n      0x0d\n        /* \"contracts/InternalEnergyAccountingContract.sol\":3355:3361  buyers */\n      0x07\n        /* \"contracts/InternalEnergyAccountingContract.sol\":3355:3376  buyers[bidderAddress] */\n      0x00\n        /* \"contracts/InternalEnergyAccountingContract.sol\":3362:3375  bidderAddress */\n      dup7\n        /* \"contracts/InternalEnergyAccountingContract.sol\":3355:3376  buyers[bidderAddress] */\n      0xffffffffffffffffffffffffffffffffffffffff\n      and\n      0xffffffffffffffffffffffffffffffffffffffff\n      and\n      dup2\n      mstore\n      0x20\n      add\n      swap1\n      dup2\n      mstore\n      0x20\n      add\n      0x00\n      keccak256\n        /* \"contracts/InternalEnergyAccountingContract.sol\":3355:3391  buyers[bidderAddress].fundsCommitted */\n      0x03\n      add\n      sload\n        /* \"contracts/InternalEnergyAccountingContract.sol\":3345:3392  vFCs.push(buyers[bidderAddress].fundsCommitted) */\n      swap1\n      dup1\n      0x01\n      dup2\n      sload\n      add\n      dup1\n      dup3\n      sstore\n      dup1\n      swap2\n      pop\n      pop\n      0x01\n      swap1\n      sub\n      swap1\n      0x00\n      mstore\n      keccak256(0x00, 0x20)\n      add\n      0x00\n      swap1\n      swap2\n      swap1\n      swap2\n      swap1\n      swap2\n      pop\n      sstore\n        /* \"contracts/InternalEnergyAccountingContract.sol\":3412:3418  buyers */\n      0x07\n        /* \"contracts/InternalEnergyAccountingContract.sol\":3412:3433  buyers[bidderAddress] */\n      0x00\n        /* \"contracts/InternalEnergyAccountingContract.sol\":3419:3432  bidderAddress */\n      dup6\n        /* \"contracts/InternalEnergyAccountingContract.sol\":3412:3433  buyers[bidderAddress] */\n      0xffffffffffffffffffffffffffffffffffffffff\n      and\n      0xffffffffffffffffffffffffffffffffffffffff\n      and\n      dup2\n      mstore\n      0x20\n      add\n      swap1\n      dup2\n      mstore\n      0x20\n      add\n      0x00\n      keccak256\n      0x00\n        /* \"contracts/InternalEnergyAccountingContract.sol\":3405:3433  delete buyers[bidderAddress] */\n      0x00\n      dup3\n      add\n      exp(0x0100, 0x00)\n      dup2\n      sload\n      swap1\n      0xffffffffffffffffffffffffffffffffffffffff\n      mul\n      not\n      and\n      swap1\n      sstore\n      0x01\n      dup3\n      add\n      0x00\n      swap1\n      sstore\n      0x02\n      dup3\n      add\n      0x00\n      swap1\n      sstore\n      0x03\n      dup3\n      add\n      0x00\n      swap1\n      sstore\n      pop\n      pop\n        /* \"contracts/InternalEnergyAccountingContract.sol\":2920:3441  {... */\n      pop\n        /* \"contracts/InternalEnergyAccountingContract.sol\":2842:3441  function verifiedBids(address bidderAddress, uint256 BEB, uint256 BBP) public {... */\n      pop\n      pop\n      pop\n      jump\t// out\n        /* \"contracts/InternalEnergyAccountingContract.sol\":1152:1174  uint256[] public vBBPs */\n    tag_96:\n      0x0c\n      dup2\n      dup2\n      sload\n      dup2\n      lt\n      tag_194\n      jumpi\n      0x00\n      dup1\n      revert\n    tag_194:\n      swap1\n      0x00\n      mstore\n      keccak256(0x00, 0x20)\n      add\n      0x00\n      swap2\n      pop\n      swap1\n      pop\n      sload\n      dup2\n      jump\t// out\n        /* \"contracts/InternalEnergyAccountingContract.sol\":3470:4671  function matchDemandAndSupply() public {... */\n    tag_100:\n        /* \"contracts/InternalEnergyAccountingContract.sol\":3542:3547  owner */\n      0x01\n      0x00\n      swap1\n      sload\n      swap1\n      0x0100\n      exp\n      swap1\n      div\n      0xffffffffffffffffffffffffffffffffffffffff\n      and\n        /* \"contracts/InternalEnergyAccountingContract.sol\":3528:3547  msg.sender == owner */\n      0xffffffffffffffffffffffffffffffffffffffff\n      and\n        /* \"contracts/InternalEnergyAccountingContract.sol\":3528:3538  msg.sender */\n      caller\n        /* \"contracts/InternalEnergyAccountingContract.sol\":3528:3547  msg.sender == owner */\n      0xffffffffffffffffffffffffffffffffffffffff\n      and\n      eq\n        /* \"contracts/InternalEnergyAccountingContract.sol\":3520:3579  require(msg.sender == owner, \"Only owner can run matching\") */\n      tag_197\n      jumpi\n      mload(0x40)\n      0x08c379a000000000000000000000000000000000000000000000000000000000\n      dup2\n      mstore\n      0x04\n      add\n      tag_198\n      swap1\n      tag_199\n      jump\t// in\n    tag_198:\n      mload(0x40)\n      dup1\n      swap2\n      sub\n      swap1\n      revert\n    tag_197:\n        /* \"contracts/InternalEnergyAccountingContract.sol\":3596:3602  uint i */\n      0x00\n        /* \"contracts/InternalEnergyAccountingContract.sol\":3603:3604  0 */\n      0x00\n        /* \"contracts/InternalEnergyAccountingContract.sol\":3596:3604  uint i=0 */\n      swap1\n      pop\n        /* \"contracts/InternalEnergyAccountingContract.sol\":3592:4664  for(uint i=0; i < vAddresses.length; i++){... */\n    tag_200:\n        /* \"contracts/InternalEnergyAccountingContract.sol\":3610:3620  vAddresses */\n      0x04\n        /* \"contracts/InternalEnergyAccountingContract.sol\":3610:3627  vAddresses.length */\n      dup1\n      sload\n      swap1\n      pop\n        /* \"contracts/InternalEnergyAccountingContract.sol\":3606:3607  i */\n      dup2\n        /* \"contracts/InternalEnergyAccountingContract.sol\":3606:3627  i < vAddresses.length */\n      lt\n        /* \"contracts/InternalEnergyAccountingContract.sol\":3592:4664  for(uint i=0; i < vAddresses.length; i++){... */\n      iszero\n      tag_201\n      jumpi\n        /* \"contracts/InternalEnergyAccountingContract.sol\":3648:3654  uint x */\n      0x00\n        /* \"contracts/InternalEnergyAccountingContract.sol\":3657:3658  0 */\n      0x00\n        /* \"contracts/InternalEnergyAccountingContract.sol\":3648:3658  uint x = 0 */\n      swap1\n      pop\n        /* \"contracts/InternalEnergyAccountingContract.sol\":3674:3681  uint yy */\n      0x00\n        /* \"contracts/InternalEnergyAccountingContract.sol\":3684:3685  0 */\n      0x00\n        /* \"contracts/InternalEnergyAccountingContract.sol\":3674:3685  uint yy = 0 */\n      swap1\n      pop\n        /* \"contracts/InternalEnergyAccountingContract.sol\":3701:3709  uint pay */\n      0x00\n        /* \"contracts/InternalEnergyAccountingContract.sol\":3712:3713  0 */\n      0x00\n        /* \"contracts/InternalEnergyAccountingContract.sol\":3701:3713  uint pay = 0 */\n      swap1\n      pop\n        /* \"contracts/InternalEnergyAccountingContract.sol\":3734:3740  uint j */\n      0x00\n        /* \"contracts/InternalEnergyAccountingContract.sol\":3741:3742  0 */\n      0x00\n        /* \"contracts/InternalEnergyAccountingContract.sol\":3734:3742  uint j=0 */\n      swap1\n      pop\n        /* \"contracts/InternalEnergyAccountingContract.sol\":3730:4558  for(uint j=0; j < vBuyerAddr.length; j++){... */\n    tag_203:\n        /* \"contracts/InternalEnergyAccountingContract.sol\":3748:3758  vBuyerAddr */\n      0x0a\n        /* \"contracts/InternalEnergyAccountingContract.sol\":3748:3765  vBuyerAddr.length */\n      dup1\n      sload\n      swap1\n      pop\n        /* \"contracts/InternalEnergyAccountingContract.sol\":3744:3745  j */\n      dup2\n        /* \"contracts/InternalEnergyAccountingContract.sol\":3744:3765  j < vBuyerAddr.length */\n      lt\n        /* \"contracts/InternalEnergyAccountingContract.sol\":3730:4558  for(uint j=0; j < vBuyerAddr.length; j++){... */\n      iszero\n      tag_204\n      jumpi\n        /* \"contracts/InternalEnergyAccountingContract.sol\":3805:3810  vSOPs */\n      0x06\n        /* \"contracts/InternalEnergyAccountingContract.sol\":3811:3812  i */\n      dup6\n        /* \"contracts/InternalEnergyAccountingContract.sol\":3805:3813  vSOPs[i] */\n      dup2\n      sload\n      dup2\n      lt\n      tag_206\n      jumpi\n      tag_207\n      tag_164\n      jump\t// in\n    tag_207:\n    tag_206:\n      swap1\n      0x00\n      mstore\n      keccak256(0x00, 0x20)\n      add\n      sload\n        /* \"contracts/InternalEnergyAccountingContract.sol\":3794:3799  vBBPs */\n      0x0c\n        /* \"contracts/InternalEnergyAccountingContract.sol\":3800:3801  j */\n      dup3\n        /* \"contracts/InternalEnergyAccountingContract.sol\":3794:3802  vBBPs[j] */\n      dup2\n      sload\n      dup2\n      lt\n      tag_209\n      jumpi\n      tag_210\n      tag_164\n      jump\t// in\n    tag_210:\n    tag_209:\n      swap1\n      0x00\n      mstore\n      keccak256(0x00, 0x20)\n      add\n      sload\n        /* \"contracts/InternalEnergyAccountingContract.sol\":3794:3813  vBBPs[j] < vSOPs[i] */\n      lt\n        /* \"contracts/InternalEnergyAccountingContract.sol\":3790:3891  if (vBBPs[j] < vSOPs[i]) {... */\n      iszero\n      tag_212\n      jumpi\n        /* \"contracts/InternalEnergyAccountingContract.sol\":3842:3843  1 */\n      0x01\n        /* \"contracts/InternalEnergyAccountingContract.sol\":3838:3843  x = 1 */\n      swap4\n      pop\n        /* \"contracts/InternalEnergyAccountingContract.sol\":3866:3871  break */\n      jump(tag_204)\n        /* \"contracts/InternalEnergyAccountingContract.sol\":3790:3891  if (vBBPs[j] < vSOPs[i]) {... */\n    tag_212:\n        /* \"contracts/InternalEnergyAccountingContract.sol\":3924:3925  0 */\n      0x00\n        /* \"contracts/InternalEnergyAccountingContract.sol\":3912:3917  vBEBs */\n      0x0b\n        /* \"contracts/InternalEnergyAccountingContract.sol\":3918:3919  j */\n      dup3\n        /* \"contracts/InternalEnergyAccountingContract.sol\":3912:3920  vBEBs[j] */\n      dup2\n      sload\n      dup2\n      lt\n      tag_213\n      jumpi\n      tag_214\n      tag_164\n      jump\t// in\n    tag_214:\n    tag_213:\n      swap1\n      0x00\n      mstore\n      keccak256(0x00, 0x20)\n      add\n      sload\n        /* \"contracts/InternalEnergyAccountingContract.sol\":3912:3925  vBEBs[j] == 0 */\n      sub\n        /* \"contracts/InternalEnergyAccountingContract.sol\":3909:3935  if(vBEBs[j] == 0) continue */\n      iszero\n        /* \"contracts/InternalEnergyAccountingContract.sol\":3927:3935  continue */\n      tag_205\n        /* \"contracts/InternalEnergyAccountingContract.sol\":3909:3935  if(vBEBs[j] == 0) continue */\n      jumpi\n        /* \"contracts/InternalEnergyAccountingContract.sol\":3971:3976  vBEBs */\n      0x0b\n        /* \"contracts/InternalEnergyAccountingContract.sol\":3977:3978  j */\n      dup2\n        /* \"contracts/InternalEnergyAccountingContract.sol\":3971:3979  vBEBs[j] */\n      dup2\n      sload\n      dup2\n      lt\n      tag_217\n      jumpi\n      tag_218\n      tag_164\n      jump\t// in\n    tag_218:\n    tag_217:\n      swap1\n      0x00\n      mstore\n      keccak256(0x00, 0x20)\n      add\n      sload\n        /* \"contracts/InternalEnergyAccountingContract.sol\":3960:3965  vSEOs */\n      0x05\n        /* \"contracts/InternalEnergyAccountingContract.sol\":3966:3967  i */\n      dup7\n        /* \"contracts/InternalEnergyAccountingContract.sol\":3960:3968  vSEOs[i] */\n      dup2\n      sload\n      dup2\n      lt\n      tag_220\n      jumpi\n      tag_221\n      tag_164\n      jump\t// in\n    tag_221:\n    tag_220:\n      swap1\n      0x00\n      mstore\n      keccak256(0x00, 0x20)\n      add\n      sload\n        /* \"contracts/InternalEnergyAccountingContract.sol\":3960:3979  vSEOs[i] < vBEBs[j] */\n      lt\n        /* \"contracts/InternalEnergyAccountingContract.sol\":3956:4543  if (vSEOs[i] < vBEBs[j]) {... */\n      iszero\n      tag_223\n      jumpi\n        /* \"contracts/InternalEnergyAccountingContract.sol\":4063:4073  etherPrice */\n      sload(0x00)\n        /* \"contracts/InternalEnergyAccountingContract.sol\":4059:4060  2 */\n      0x02\n        /* \"contracts/InternalEnergyAccountingContract.sol\":4059:4073  2 * etherPrice */\n      tag_224\n      swap2\n      swap1\n      tag_148\n      jump\t// in\n    tag_224:\n        /* \"contracts/InternalEnergyAccountingContract.sol\":4051:4055  1e18 */\n      0x0de0b6b3a7640000\n        /* \"contracts/InternalEnergyAccountingContract.sol\":4040:4045  vSEOs */\n      0x05\n        /* \"contracts/InternalEnergyAccountingContract.sol\":4046:4047  i */\n      dup8\n        /* \"contracts/InternalEnergyAccountingContract.sol\":4040:4048  vSEOs[i] */\n      dup2\n      sload\n      dup2\n      lt\n      tag_225\n      jumpi\n      tag_226\n      tag_164\n      jump\t// in\n    tag_226:\n    tag_225:\n      swap1\n      0x00\n      mstore\n      keccak256(0x00, 0x20)\n      add\n      sload\n        /* \"contracts/InternalEnergyAccountingContract.sol\":4028:4033  vSOPs */\n      0x06\n        /* \"contracts/InternalEnergyAccountingContract.sol\":4034:4035  i */\n      dup9\n        /* \"contracts/InternalEnergyAccountingContract.sol\":4028:4036  vSOPs[i] */\n      dup2\n      sload\n      dup2\n      lt\n      tag_228\n      jumpi\n      tag_229\n      tag_164\n      jump\t// in\n    tag_229:\n    tag_228:\n      swap1\n      0x00\n      mstore\n      keccak256(0x00, 0x20)\n      add\n      sload\n        /* \"contracts/InternalEnergyAccountingContract.sol\":4017:4022  vBBPs */\n      0x0c\n        /* \"contracts/InternalEnergyAccountingContract.sol\":4023:4024  j */\n      dup6\n        /* \"contracts/InternalEnergyAccountingContract.sol\":4017:4025  vBBPs[j] */\n      dup2\n      sload\n      dup2\n      lt\n      tag_231\n      jumpi\n      tag_232\n      tag_164\n      jump\t// in\n    tag_232:\n    tag_231:\n      swap1\n      0x00\n      mstore\n      keccak256(0x00, 0x20)\n      add\n      sload\n        /* \"contracts/InternalEnergyAccountingContract.sol\":4017:4036  vBBPs[j] + vSOPs[i] */\n      tag_234\n      swap2\n      swap1\n      tag_235\n      jump\t// in\n    tag_234:\n        /* \"contracts/InternalEnergyAccountingContract.sol\":4016:4048  (vBBPs[j] + vSOPs[i]) * vSEOs[i] */\n      tag_236\n      swap2\n      swap1\n      tag_148\n      jump\t// in\n    tag_236:\n        /* \"contracts/InternalEnergyAccountingContract.sol\":4016:4055  (vBBPs[j] + vSOPs[i]) * vSEOs[i] * 1e18 */\n      tag_237\n      swap2\n      swap1\n      tag_148\n      jump\t// in\n    tag_237:\n        /* \"contracts/InternalEnergyAccountingContract.sol\":4016:4074  (vBBPs[j] + vSOPs[i]) * vSEOs[i] * 1e18 / (2 * etherPrice) */\n      tag_238\n      swap2\n      swap1\n      tag_150\n      jump\t// in\n    tag_238:\n        /* \"contracts/InternalEnergyAccountingContract.sol\":4010:4013  pay */\n      dup3\n        /* \"contracts/InternalEnergyAccountingContract.sol\":4010:4074  pay + (vBBPs[j] + vSOPs[i]) * vSEOs[i] * 1e18 / (2 * etherPrice) */\n      tag_239\n      swap2\n      swap1\n      tag_235\n      jump\t// in\n    tag_239:\n        /* \"contracts/InternalEnergyAccountingContract.sol\":4004:4074  pay = pay + (vBBPs[j] + vSOPs[i]) * vSEOs[i] * 1e18 / (2 * etherPrice) */\n      swap2\n      pop\n        /* \"contracts/InternalEnergyAccountingContract.sol\":4109:4114  vSEOs */\n      0x05\n        /* \"contracts/InternalEnergyAccountingContract.sol\":4115:4116  i */\n      dup6\n        /* \"contracts/InternalEnergyAccountingContract.sol\":4109:4117  vSEOs[i] */\n      dup2\n      sload\n      dup2\n      lt\n      tag_240\n      jumpi\n      tag_241\n      tag_164\n      jump\t// in\n    tag_241:\n    tag_240:\n      swap1\n      0x00\n      mstore\n      keccak256(0x00, 0x20)\n      add\n      sload\n        /* \"contracts/InternalEnergyAccountingContract.sol\":4097:4102  vBEBs */\n      0x0b\n        /* \"contracts/InternalEnergyAccountingContract.sol\":4103:4104  j */\n      dup3\n        /* \"contracts/InternalEnergyAccountingContract.sol\":4097:4105  vBEBs[j] */\n      dup2\n      sload\n      dup2\n      lt\n      tag_243\n      jumpi\n      tag_244\n      tag_164\n      jump\t// in\n    tag_244:\n    tag_243:\n      swap1\n      0x00\n      mstore\n      keccak256(0x00, 0x20)\n      add\n      0x00\n        /* \"contracts/InternalEnergyAccountingContract.sol\":4097:4117  vBEBs[j] -= vSEOs[i] */\n      dup3\n      dup3\n      sload\n      tag_246\n      swap2\n      swap1\n      tag_247\n      jump\t// in\n    tag_246:\n      swap3\n      pop\n      pop\n      dup2\n      swap1\n      sstore\n      pop\n        /* \"contracts/InternalEnergyAccountingContract.sol\":4151:4152  0 */\n      0x00\n        /* \"contracts/InternalEnergyAccountingContract.sol\":4140:4145  vSEOs */\n      0x05\n        /* \"contracts/InternalEnergyAccountingContract.sol\":4146:4147  i */\n      dup7\n        /* \"contracts/InternalEnergyAccountingContract.sol\":4140:4148  vSEOs[i] */\n      dup2\n      sload\n      dup2\n      lt\n      tag_248\n      jumpi\n      tag_249\n      tag_164\n      jump\t// in\n    tag_249:\n    tag_248:\n      swap1\n      0x00\n      mstore\n      keccak256(0x00, 0x20)\n      add\n        /* \"contracts/InternalEnergyAccountingContract.sol\":4140:4152  vSEOs[i] = 0 */\n      dup2\n      swap1\n      sstore\n      pop\n        /* \"contracts/InternalEnergyAccountingContract.sol\":4175:4180  break */\n      jump(tag_204)\n        /* \"contracts/InternalEnergyAccountingContract.sol\":3956:4543  if (vSEOs[i] < vBEBs[j]) {... */\n    tag_223:\n        /* \"contracts/InternalEnergyAccountingContract.sol\":4289:4299  etherPrice */\n      sload(0x00)\n        /* \"contracts/InternalEnergyAccountingContract.sol\":4285:4286  2 */\n      0x02\n        /* \"contracts/InternalEnergyAccountingContract.sol\":4285:4299  2 * etherPrice */\n      tag_252\n      swap2\n      swap1\n      tag_148\n      jump\t// in\n    tag_252:\n        /* \"contracts/InternalEnergyAccountingContract.sol\":4277:4281  1e18 */\n      0x0de0b6b3a7640000\n        /* \"contracts/InternalEnergyAccountingContract.sol\":4266:4271  vBEBs */\n      0x0b\n        /* \"contracts/InternalEnergyAccountingContract.sol\":4272:4273  j */\n      dup4\n        /* \"contracts/InternalEnergyAccountingContract.sol\":4266:4274  vBEBs[j] */\n      dup2\n      sload\n      dup2\n      lt\n      tag_253\n      jumpi\n      tag_254\n      tag_164\n      jump\t// in\n    tag_254:\n    tag_253:\n      swap1\n      0x00\n      mstore\n      keccak256(0x00, 0x20)\n      add\n      sload\n        /* \"contracts/InternalEnergyAccountingContract.sol\":4254:4259  vSOPs */\n      0x06\n        /* \"contracts/InternalEnergyAccountingContract.sol\":4260:4261  i */\n      dup9\n        /* \"contracts/InternalEnergyAccountingContract.sol\":4254:4262  vSOPs[i] */\n      dup2\n      sload\n      dup2\n      lt\n      tag_256\n      jumpi\n      tag_257\n      tag_164\n      jump\t// in\n    tag_257:\n    tag_256:\n      swap1\n      0x00\n      mstore\n      keccak256(0x00, 0x20)\n      add\n      sload\n        /* \"contracts/InternalEnergyAccountingContract.sol\":4243:4248  vBBPs */\n      0x0c\n        /* \"contracts/InternalEnergyAccountingContract.sol\":4249:4250  j */\n      dup6\n        /* \"contracts/InternalEnergyAccountingContract.sol\":4243:4251  vBBPs[j] */\n      dup2\n      sload\n      dup2\n      lt\n      tag_259\n      jumpi\n      tag_260\n      tag_164\n      jump\t// in\n    tag_260:\n    tag_259:\n      swap1\n      0x00\n      mstore\n      keccak256(0x00, 0x20)\n      add\n      sload\n        /* \"contracts/InternalEnergyAccountingContract.sol\":4243:4262  vBBPs[j] + vSOPs[i] */\n      tag_262\n      swap2\n      swap1\n      tag_235\n      jump\t// in\n    tag_262:\n        /* \"contracts/InternalEnergyAccountingContract.sol\":4242:4274  (vBBPs[j] + vSOPs[i]) * vBEBs[j] */\n      tag_263\n      swap2\n      swap1\n      tag_148\n      jump\t// in\n    tag_263:\n        /* \"contracts/InternalEnergyAccountingContract.sol\":4242:4281  (vBBPs[j] + vSOPs[i]) * vBEBs[j] * 1e18 */\n      tag_264\n      swap2\n      swap1\n      tag_148\n      jump\t// in\n    tag_264:\n        /* \"contracts/InternalEnergyAccountingContract.sol\":4242:4300  (vBBPs[j] + vSOPs[i]) * vBEBs[j] * 1e18 / (2 * etherPrice) */\n      tag_265\n      swap2\n      swap1\n      tag_150\n      jump\t// in\n    tag_265:\n        /* \"contracts/InternalEnergyAccountingContract.sol\":4236:4239  pay */\n      dup3\n        /* \"contracts/InternalEnergyAccountingContract.sol\":4236:4300  pay + (vBBPs[j] + vSOPs[i]) * vBEBs[j] * 1e18 / (2 * etherPrice) */\n      tag_266\n      swap2\n      swap1\n      tag_235\n      jump\t// in\n    tag_266:\n        /* \"contracts/InternalEnergyAccountingContract.sol\":4230:4300  pay = pay + (vBBPs[j] + vSOPs[i]) * vBEBs[j] * 1e18 / (2 * etherPrice) */\n      swap2\n      pop\n        /* \"contracts/InternalEnergyAccountingContract.sol\":4335:4340  vBEBs */\n      0x0b\n        /* \"contracts/InternalEnergyAccountingContract.sol\":4341:4342  j */\n      dup2\n        /* \"contracts/InternalEnergyAccountingContract.sol\":4335:4343  vBEBs[j] */\n      dup2\n      sload\n      dup2\n      lt\n      tag_267\n      jumpi\n      tag_268\n      tag_164\n      jump\t// in\n    tag_268:\n    tag_267:\n      swap1\n      0x00\n      mstore\n      keccak256(0x00, 0x20)\n      add\n      sload\n        /* \"contracts/InternalEnergyAccountingContract.sol\":4323:4328  vSEOs */\n      0x05\n        /* \"contracts/InternalEnergyAccountingContract.sol\":4329:4330  i */\n      dup7\n        /* \"contracts/InternalEnergyAccountingContract.sol\":4323:4331  vSEOs[i] */\n      dup2\n      sload\n      dup2\n      lt\n      tag_270\n      jumpi\n      tag_271\n      tag_164\n      jump\t// in\n    tag_271:\n    tag_270:\n      swap1\n      0x00\n      mstore\n      keccak256(0x00, 0x20)\n      add\n      0x00\n        /* \"contracts/InternalEnergyAccountingContract.sol\":4323:4343  vSEOs[i] -= vBEBs[j] */\n      dup3\n      dup3\n      sload\n      tag_273\n      swap2\n      swap1\n      tag_247\n      jump\t// in\n    tag_273:\n      swap3\n      pop\n      pop\n      dup2\n      swap1\n      sstore\n      pop\n        /* \"contracts/InternalEnergyAccountingContract.sol\":4377:4378  0 */\n      0x00\n        /* \"contracts/InternalEnergyAccountingContract.sol\":4366:4371  vBEBs */\n      0x0b\n        /* \"contracts/InternalEnergyAccountingContract.sol\":4372:4373  j */\n      dup3\n        /* \"contracts/InternalEnergyAccountingContract.sol\":4366:4374  vBEBs[j] */\n      dup2\n      sload\n      dup2\n      lt\n      tag_274\n      jumpi\n      tag_275\n      tag_164\n      jump\t// in\n    tag_275:\n    tag_274:\n      swap1\n      0x00\n      mstore\n      keccak256(0x00, 0x20)\n      add\n        /* \"contracts/InternalEnergyAccountingContract.sol\":4366:4378  vBEBs[j] = 0 */\n      dup2\n      swap1\n      sstore\n      pop\n        /* \"contracts/InternalEnergyAccountingContract.sol\":4430:4431  1 */\n      0x01\n        /* \"contracts/InternalEnergyAccountingContract.sol\":4410:4420  vBuyerAddr */\n      0x0a\n        /* \"contracts/InternalEnergyAccountingContract.sol\":4410:4427  vBuyerAddr.length */\n      dup1\n      sload\n      swap1\n      pop\n        /* \"contracts/InternalEnergyAccountingContract.sol\":4410:4431  vBuyerAddr.length - 1 */\n      tag_277\n      swap2\n      swap1\n      tag_247\n      jump\t// in\n    tag_277:\n        /* \"contracts/InternalEnergyAccountingContract.sol\":4404:4405  j */\n      dup2\n        /* \"contracts/InternalEnergyAccountingContract.sol\":4404:4432  j == (vBuyerAddr.length - 1) */\n      sub\n        /* \"contracts/InternalEnergyAccountingContract.sol\":4401:4524  if(j == (vBuyerAddr.length - 1)) { ... */\n      tag_278\n      jumpi\n        /* \"contracts/InternalEnergyAccountingContract.sol\":4467:4468  1 */\n      0x01\n        /* \"contracts/InternalEnergyAccountingContract.sol\":4462:4468  yy = 1 */\n      swap3\n      pop\n        /* \"contracts/InternalEnergyAccountingContract.sol\":4495:4500  break */\n      jump(tag_204)\n        /* \"contracts/InternalEnergyAccountingContract.sol\":4401:4524  if(j == (vBuyerAddr.length - 1)) { ... */\n    tag_278:\n        /* \"contracts/InternalEnergyAccountingContract.sol\":3730:4558  for(uint j=0; j < vBuyerAddr.length; j++){... */\n    tag_205:\n        /* \"contracts/InternalEnergyAccountingContract.sol\":3767:3770  j++ */\n      dup1\n      dup1\n      0x01\n      add\n      swap2\n      pop\n      pop\n        /* \"contracts/InternalEnergyAccountingContract.sol\":3730:4558  for(uint j=0; j < vBuyerAddr.length; j++){... */\n      jump(tag_203)\n    tag_204:\n      pop\n        /* \"contracts/InternalEnergyAccountingContract.sol\":4580:4581  0 */\n      0x00\n        /* \"contracts/InternalEnergyAccountingContract.sol\":4576:4577  x */\n      dup4\n        /* \"contracts/InternalEnergyAccountingContract.sol\":4576:4581  x > 0 */\n      gt\n        /* \"contracts/InternalEnergyAccountingContract.sol\":4572:4588  if (x > 0) break */\n      iszero\n      tag_279\n      jumpi\n        /* \"contracts/InternalEnergyAccountingContract.sol\":4583:4588  break */\n      pop\n      pop\n      pop\n      jump(tag_201)\n        /* \"contracts/InternalEnergyAccountingContract.sol\":4572:4588  if (x > 0) break */\n    tag_279:\n        /* \"contracts/InternalEnergyAccountingContract.sol\":4603:4610  paylist */\n      0x0e\n        /* \"contracts/InternalEnergyAccountingContract.sol\":4616:4619  pay */\n      dup2\n        /* \"contracts/InternalEnergyAccountingContract.sol\":4603:4620  paylist.push(pay) */\n      swap1\n      dup1\n      0x01\n      dup2\n      sload\n      add\n      dup1\n      dup3\n      sstore\n      dup1\n      swap2\n      pop\n      pop\n      0x01\n      swap1\n      sub\n      swap1\n      0x00\n      mstore\n      keccak256(0x00, 0x20)\n      add\n      0x00\n      swap1\n      swap2\n      swap1\n      swap2\n      swap1\n      swap2\n      pop\n      sstore\n        /* \"contracts/InternalEnergyAccountingContract.sol\":4644:4645  0 */\n      0x00\n        /* \"contracts/InternalEnergyAccountingContract.sol\":4639:4641  yy */\n      dup3\n        /* \"contracts/InternalEnergyAccountingContract.sol\":4639:4645  yy > 0 */\n      gt\n        /* \"contracts/InternalEnergyAccountingContract.sol\":4635:4652  if (yy > 0) break */\n      iszero\n      tag_281\n      jumpi\n        /* \"contracts/InternalEnergyAccountingContract.sol\":4647:4652  break */\n      pop\n      pop\n      pop\n      jump(tag_201)\n        /* \"contracts/InternalEnergyAccountingContract.sol\":4635:4652  if (yy > 0) break */\n    tag_281:\n        /* \"contracts/InternalEnergyAccountingContract.sol\":3633:4664  {... */\n      pop\n      pop\n      pop\n        /* \"contracts/InternalEnergyAccountingContract.sol\":3629:3632  i++ */\n      dup1\n      dup1\n      0x01\n      add\n      swap2\n      pop\n      pop\n        /* \"contracts/InternalEnergyAccountingContract.sol\":3592:4664  for(uint i=0; i < vAddresses.length; i++){... */\n      jump(tag_200)\n    tag_201:\n      pop\n        /* \"contracts/InternalEnergyAccountingContract.sol\":3470:4671  function matchDemandAndSupply() public {... */\n      jump\t// out\n        /* \"contracts/InternalEnergyAccountingContract.sol\":1816:2477  function verifiedOffers(address offerorAddress, uint256 SEO, uint256 SOP) public {... */\n    tag_104:\n        /* \"contracts/InternalEnergyAccountingContract.sol\":1908:1918  bool found */\n      0x00\n        /* \"contracts/InternalEnergyAccountingContract.sol\":1921:1926  false */\n      0x00\n        /* \"contracts/InternalEnergyAccountingContract.sol\":1908:1926  bool found = false */\n      swap1\n      pop\n        /* \"contracts/InternalEnergyAccountingContract.sol\":1941:1947  uint i */\n      0x00\n        /* \"contracts/InternalEnergyAccountingContract.sol\":1950:1951  0 */\n      0x00\n        /* \"contracts/InternalEnergyAccountingContract.sol\":1941:1951  uint i = 0 */\n      swap1\n      pop\n        /* \"contracts/InternalEnergyAccountingContract.sol\":1937:2192  for(uint i = 0; i < allSellers.length; i++){... */\n    tag_283:\n        /* \"contracts/InternalEnergyAccountingContract.sol\":1957:1967  allSellers */\n      0x02\n        /* \"contracts/InternalEnergyAccountingContract.sol\":1957:1974  allSellers.length */\n      dup1\n      sload\n      swap1\n      pop\n        /* \"contracts/InternalEnergyAccountingContract.sol\":1953:1954  i */\n      dup2\n        /* \"contracts/InternalEnergyAccountingContract.sol\":1953:1974  i < allSellers.length */\n      lt\n        /* \"contracts/InternalEnergyAccountingContract.sol\":1937:2192  for(uint i = 0; i < allSellers.length; i++){... */\n      iszero\n      tag_284\n      jumpi\n        /* \"contracts/InternalEnergyAccountingContract.sol\":2020:2034  offerorAddress */\n      dup5\n        /* \"contracts/InternalEnergyAccountingContract.sol\":1998:2034  allSellers[i].addr == offerorAddress */\n      0xffffffffffffffffffffffffffffffffffffffff\n      and\n        /* \"contracts/InternalEnergyAccountingContract.sol\":1998:2008  allSellers */\n      0x02\n        /* \"contracts/InternalEnergyAccountingContract.sol\":2009:2010  i */\n      dup3\n        /* \"contracts/InternalEnergyAccountingContract.sol\":1998:2011  allSellers[i] */\n      dup2\n      sload\n      dup2\n      lt\n      tag_286\n      jumpi\n      tag_287\n      tag_164\n      jump\t// in\n    tag_287:\n    tag_286:\n      swap1\n      0x00\n      mstore\n      keccak256(0x00, 0x20)\n      swap1\n      0x03\n      mul\n      add\n        /* \"contracts/InternalEnergyAccountingContract.sol\":1998:2016  allSellers[i].addr */\n      0x00\n      add\n      0x00\n      swap1\n      sload\n      swap1\n      0x0100\n      exp\n      swap1\n      div\n      0xffffffffffffffffffffffffffffffffffffffff\n      and\n        /* \"contracts/InternalEnergyAccountingContract.sol\":1998:2034  allSellers[i].addr == offerorAddress */\n      0xffffffffffffffffffffffffffffffffffffffff\n      and\n      eq\n        /* \"contracts/InternalEnergyAccountingContract.sol\":1998:2072  allSellers[i].addr == offerorAddress && allSellers[i].energyOffered == SEO */\n      dup1\n      iszero\n      tag_289\n      jumpi\n      pop\n        /* \"contracts/InternalEnergyAccountingContract.sol\":2069:2072  SEO */\n      dup4\n        /* \"contracts/InternalEnergyAccountingContract.sol\":2038:2048  allSellers */\n      0x02\n        /* \"contracts/InternalEnergyAccountingContract.sol\":2049:2050  i */\n      dup3\n        /* \"contracts/InternalEnergyAccountingContract.sol\":2038:2051  allSellers[i] */\n      dup2\n      sload\n      dup2\n      lt\n      tag_290\n      jumpi\n      tag_291\n      tag_164\n      jump\t// in\n    tag_291:\n    tag_290:\n      swap1\n      0x00\n      mstore\n      keccak256(0x00, 0x20)\n      swap1\n      0x03\n      mul\n      add\n        /* \"contracts/InternalEnergyAccountingContract.sol\":2038:2065  allSellers[i].energyOffered */\n      0x01\n      add\n      sload\n        /* \"contracts/InternalEnergyAccountingContract.sol\":2038:2072  allSellers[i].energyOffered == SEO */\n      eq\n        /* \"contracts/InternalEnergyAccountingContract.sol\":1998:2072  allSellers[i].addr == offerorAddress && allSellers[i].energyOffered == SEO */\n    tag_289:\n        /* \"contracts/InternalEnergyAccountingContract.sol\":1998:2109  allSellers[i].addr == offerorAddress && allSellers[i].energyOffered == SEO && allSellers[i].desiredPrice == SOP */\n      dup1\n      iszero\n      tag_293\n      jumpi\n      pop\n        /* \"contracts/InternalEnergyAccountingContract.sol\":2106:2109  SOP */\n      dup3\n        /* \"contracts/InternalEnergyAccountingContract.sol\":2076:2086  allSellers */\n      0x02\n        /* \"contracts/InternalEnergyAccountingContract.sol\":2087:2088  i */\n      dup3\n        /* \"contracts/InternalEnergyAccountingContract.sol\":2076:2089  allSellers[i] */\n      dup2\n      sload\n      dup2\n      lt\n      tag_294\n      jumpi\n      tag_295\n      tag_164\n      jump\t// in\n    tag_295:\n    tag_294:\n      swap1\n      0x00\n      mstore\n      keccak256(0x00, 0x20)\n      swap1\n      0x03\n      mul\n      add\n        /* \"contracts/InternalEnergyAccountingContract.sol\":2076:2102  allSellers[i].desiredPrice */\n      0x02\n      add\n      sload\n        /* \"contracts/InternalEnergyAccountingContract.sol\":2076:2109  allSellers[i].desiredPrice == SOP */\n      eq\n        /* \"contracts/InternalEnergyAccountingContract.sol\":1998:2109  allSellers[i].addr == offerorAddress && allSellers[i].energyOffered == SEO && allSellers[i].desiredPrice == SOP */\n    tag_293:\n        /* \"contracts/InternalEnergyAccountingContract.sol\":1995:2181  if(allSellers[i].addr == offerorAddress && allSellers[i].energyOffered == SEO && allSellers[i].desiredPrice == SOP){... */\n      iszero\n      tag_297\n      jumpi\n        /* \"contracts/InternalEnergyAccountingContract.sol\":2137:2141  true */\n      0x01\n        /* \"contracts/InternalEnergyAccountingContract.sol\":2129:2141  found = true */\n      swap2\n      pop\n        /* \"contracts/InternalEnergyAccountingContract.sol\":2160:2165  break */\n      jump(tag_284)\n        /* \"contracts/InternalEnergyAccountingContract.sol\":1995:2181  if(allSellers[i].addr == offerorAddress && allSellers[i].energyOffered == SEO && allSellers[i].desiredPrice == SOP){... */\n    tag_297:\n        /* \"contracts/InternalEnergyAccountingContract.sol\":1976:1979  i++ */\n      dup1\n      dup1\n      0x01\n      add\n      swap2\n      pop\n      pop\n        /* \"contracts/InternalEnergyAccountingContract.sol\":1937:2192  for(uint i = 0; i < allSellers.length; i++){... */\n      jump(tag_283)\n    tag_284:\n      pop\n        /* \"contracts/InternalEnergyAccountingContract.sol\":2210:2215  found */\n      dup1\n        /* \"contracts/InternalEnergyAccountingContract.sol\":2202:2235  require(found, \"Offer not found\") */\n      tag_298\n      jumpi\n      mload(0x40)\n      0x08c379a000000000000000000000000000000000000000000000000000000000\n      dup2\n      mstore\n      0x04\n      add\n      tag_299\n      swap1\n      tag_300\n      jump\t// in\n    tag_299:\n      mload(0x40)\n      dup1\n      swap2\n      sub\n      swap1\n      revert\n    tag_298:\n        /* \"contracts/InternalEnergyAccountingContract.sol\":2248:2258  uint256 id */\n      0x00\n        /* \"contracts/InternalEnergyAccountingContract.sol\":2261:2271  vAddresses */\n      0x04\n        /* \"contracts/InternalEnergyAccountingContract.sol\":2261:2278  vAddresses.length */\n      dup1\n      sload\n      swap1\n      pop\n        /* \"contracts/InternalEnergyAccountingContract.sol\":2248:2278  uint256 id = vAddresses.length */\n      swap1\n      pop\n        /* \"contracts/InternalEnergyAccountingContract.sol\":2304:2344  VerifiedSeller(offerorAddress, SEO, SOP) */\n      mload(0x40)\n      dup1\n      0x60\n      add\n      0x40\n      mstore\n      dup1\n        /* \"contracts/InternalEnergyAccountingContract.sol\":2319:2333  offerorAddress */\n      dup7\n        /* \"contracts/InternalEnergyAccountingContract.sol\":2304:2344  VerifiedSeller(offerorAddress, SEO, SOP) */\n      0xffffffffffffffffffffffffffffffffffffffff\n      and\n      dup2\n      mstore\n      0x20\n      add\n        /* \"contracts/InternalEnergyAccountingContract.sol\":2335:2338  SEO */\n      dup6\n        /* \"contracts/InternalEnergyAccountingContract.sol\":2304:2344  VerifiedSeller(offerorAddress, SEO, SOP) */\n      dup2\n      mstore\n      0x20\n      add\n        /* \"contracts/InternalEnergyAccountingContract.sol\":2340:2343  SOP */\n      dup5\n        /* \"contracts/InternalEnergyAccountingContract.sol\":2304:2344  VerifiedSeller(offerorAddress, SEO, SOP) */\n      dup2\n      mstore\n      pop\n        /* \"contracts/InternalEnergyAccountingContract.sol\":2289:2297  vSellers */\n      0x03\n        /* \"contracts/InternalEnergyAccountingContract.sol\":2289:2301  vSellers[id] */\n      0x00\n        /* \"contracts/InternalEnergyAccountingContract.sol\":2298:2300  id */\n      dup4\n        /* \"contracts/InternalEnergyAccountingContract.sol\":2289:2301  vSellers[id] */\n      dup2\n      mstore\n      0x20\n      add\n      swap1\n      dup2\n      mstore\n      0x20\n      add\n      0x00\n      keccak256\n        /* \"contracts/InternalEnergyAccountingContract.sol\":2289:2344  vSellers[id] = VerifiedSeller(offerorAddress, SEO, SOP) */\n      0x00\n      dup3\n      add\n      mload\n      dup2\n      0x00\n      add\n      exp(0x0100, 0x00)\n      dup2\n      sload\n      dup2\n      0xffffffffffffffffffffffffffffffffffffffff\n      mul\n      not\n      and\n      swap1\n      dup4\n      0xffffffffffffffffffffffffffffffffffffffff\n      and\n      mul\n      or\n      swap1\n      sstore\n      pop\n      0x20\n      dup3\n      add\n      mload\n      dup2\n      0x01\n      add\n      sstore\n      0x40\n      dup3\n      add\n      mload\n      dup2\n      0x02\n      add\n      sstore\n      swap1\n      pop\n      pop\n        /* \"contracts/InternalEnergyAccountingContract.sol\":2355:2365  vAddresses */\n      0x04\n        /* \"contracts/InternalEnergyAccountingContract.sol\":2371:2385  offerorAddress */\n      dup6\n        /* \"contracts/InternalEnergyAccountingContract.sol\":2355:2386  vAddresses.push(offerorAddress) */\n      swap1\n      dup1\n      0x01\n      dup2\n      sload\n      add\n      dup1\n      dup3\n      sstore\n      dup1\n      swap2\n      pop\n      pop\n      0x01\n      swap1\n      sub\n      swap1\n      0x00\n      mstore\n      keccak256(0x00, 0x20)\n      add\n      0x00\n      swap1\n      swap2\n      swap1\n      swap2\n      swap1\n      swap2\n      0x0100\n      exp\n      dup2\n      sload\n      dup2\n      0xffffffffffffffffffffffffffffffffffffffff\n      mul\n      not\n      and\n      swap1\n      dup4\n      0xffffffffffffffffffffffffffffffffffffffff\n      and\n      mul\n      or\n      swap1\n      sstore\n      pop\n        /* \"contracts/InternalEnergyAccountingContract.sol\":2397:2402  vSEOs */\n      0x05\n        /* \"contracts/InternalEnergyAccountingContract.sol\":2408:2411  SEO */\n      dup5\n        /* \"contracts/InternalEnergyAccountingContract.sol\":2397:2412  vSEOs.push(SEO) */\n      swap1\n      dup1\n      0x01\n      dup2\n      sload\n      add\n      dup1\n      dup3\n      sstore\n      dup1\n      swap2\n      pop\n      pop\n      0x01\n      swap1\n      sub\n      swap1\n      0x00\n      mstore\n      keccak256(0x00, 0x20)\n      add\n      0x00\n      swap1\n      swap2\n      swap1\n      swap2\n      swap1\n      swap2\n      pop\n      sstore\n        /* \"contracts/InternalEnergyAccountingContract.sol\":2423:2428  vSOPs */\n      0x06\n        /* \"contracts/InternalEnergyAccountingContract.sol\":2434:2437  SOP */\n      dup4\n        /* \"contracts/InternalEnergyAccountingContract.sol\":2423:2438  vSOPs.push(SOP) */\n      swap1\n      dup1\n      0x01\n      dup2\n      sload\n      add\n      dup1\n      dup3\n      sstore\n      dup1\n      swap2\n      pop\n      pop\n      0x01\n      swap1\n      sub\n      swap1\n      0x00\n      mstore\n      keccak256(0x00, 0x20)\n      add\n      0x00\n      swap1\n      swap2\n      swap1\n      swap2\n      swap1\n      swap2\n      pop\n      sstore\n        /* \"contracts/InternalEnergyAccountingContract.sol\":2458:2468  allSellers */\n      0x02\n      0x00\n        /* \"contracts/InternalEnergyAccountingContract.sol\":2451:2468  delete allSellers */\n      tag_304\n      swap2\n      swap1\n      tag_305\n      jump\t// in\n    tag_304:\n        /* \"contracts/InternalEnergyAccountingContract.sol\":1897:2477  {... */\n      pop\n      pop\n        /* \"contracts/InternalEnergyAccountingContract.sol\":1816:2477  function verifiedOffers(address offerorAddress, uint256 SEO, uint256 SOP) public {... */\n      pop\n      pop\n      pop\n      jump\t// out\n        /* \"contracts/InternalEnergyAccountingContract.sol\":1034:1082  mapping(uint256 => VerifiedBuyer) public vBuyers */\n    tag_108:\n      mstore(0x20, 0x09)\n      dup1\n      0x00\n      mstore\n      keccak256(0x00, 0x40)\n      0x00\n      swap2\n      pop\n      swap1\n      pop\n      dup1\n      0x00\n      add\n      0x00\n      swap1\n      sload\n      swap1\n      0x0100\n      exp\n      swap1\n      div\n      0xffffffffffffffffffffffffffffffffffffffff\n      and\n      swap1\n      dup1\n      0x01\n      add\n      sload\n      swap1\n      dup1\n      0x02\n      add\n      sload\n      swap1\n      dup1\n      0x03\n      add\n      sload\n      swap1\n      pop\n      dup5\n      jump\t// out\n        /* \"contracts/InternalEnergyAccountingContract.sol\":1089:1116  address[] public vBuyerAddr */\n    tag_113:\n      0x0a\n      dup2\n      dup2\n      sload\n      dup2\n      lt\n      tag_306\n      jumpi\n      0x00\n      dup1\n      revert\n    tag_306:\n      swap1\n      0x00\n      mstore\n      keccak256(0x00, 0x20)\n      add\n      0x00\n      swap2\n      pop\n      sload\n      swap1\n      0x0100\n      exp\n      swap1\n      div\n      0xffffffffffffffffffffffffffffffffffffffff\n      and\n      dup2\n      jump\t// out\n        /* \"contracts/InternalEnergyAccountingContract.sol\":1212:1236  uint256[] public paylist */\n    tag_118:\n      0x0e\n      dup2\n      dup2\n      sload\n      dup2\n      lt\n      tag_308\n      jumpi\n      0x00\n      dup1\n      revert\n    tag_308:\n      swap1\n      0x00\n      mstore\n      keccak256(0x00, 0x20)\n      add\n      0x00\n      swap2\n      pop\n      swap1\n      pop\n      sload\n      dup2\n      jump\t// out\n        /* \"contracts/InternalEnergyAccountingContract.sol\":564:586  uint256[] public vSOPs */\n    tag_123:\n      0x06\n      dup2\n      dup2\n      sload\n      dup2\n      lt\n      tag_310\n      jumpi\n      0x00\n      dup1\n      revert\n    tag_310:\n      swap1\n      0x00\n      mstore\n      keccak256(0x00, 0x20)\n      add\n      0x00\n      swap2\n      pop\n      swap1\n      pop\n      sload\n      dup2\n      jump\t// out\n        /* \"contracts/InternalEnergyAccountingContract.sol\":287:313  Seller[] public allSellers */\n    tag_128:\n      0x02\n      dup2\n      dup2\n      sload\n      dup2\n      lt\n      tag_312\n      jumpi\n      0x00\n      dup1\n      revert\n    tag_312:\n      swap1\n      0x00\n      mstore\n      keccak256(0x00, 0x20)\n      swap1\n      0x03\n      mul\n      add\n      0x00\n      swap2\n      pop\n      swap1\n      pop\n      dup1\n      0x00\n      add\n      0x00\n      swap1\n      sload\n      swap1\n      0x0100\n      exp\n      swap1\n      div\n      0xffffffffffffffffffffffffffffffffffffffff\n      and\n      swap1\n      dup1\n      0x01\n      add\n      sload\n      swap1\n      dup1\n      0x02\n      add\n      sload\n      swap1\n      pop\n      dup4\n      jump\t// out\n        /* \"contracts/InternalEnergyAccountingContract.sol\":5022:5460  function refundBuyers() public {... */\n    tag_132:\n        /* \"contracts/InternalEnergyAccountingContract.sol\":5086:5091  owner */\n      0x01\n      0x00\n      swap1\n      sload\n      swap1\n      0x0100\n      exp\n      swap1\n      div\n      0xffffffffffffffffffffffffffffffffffffffff\n      and\n        /* \"contracts/InternalEnergyAccountingContract.sol\":5072:5091  msg.sender == owner */\n      0xffffffffffffffffffffffffffffffffffffffff\n      and\n        /* \"contracts/InternalEnergyAccountingContract.sol\":5072:5082  msg.sender */\n      caller\n        /* \"contracts/InternalEnergyAccountingContract.sol\":5072:5091  msg.sender == owner */\n      0xffffffffffffffffffffffffffffffffffffffff\n      and\n      eq\n        /* \"contracts/InternalEnergyAccountingContract.sol\":5064:5124  require(msg.sender == owner, \"Only owner authorizes refund\") */\n      tag_315\n      jumpi\n      mload(0x40)\n      0x08c379a000000000000000000000000000000000000000000000000000000000\n      dup2\n      mstore\n      0x04\n      add\n      tag_316\n      swap1\n      tag_317\n      jump\t// in\n    tag_316:\n      mload(0x40)\n      dup1\n      swap2\n      sub\n      swap1\n      revert\n    tag_315:\n        /* \"contracts/InternalEnergyAccountingContract.sol\":5139:5145  uint i */\n      0x00\n        /* \"contracts/InternalEnergyAccountingContract.sol\":5148:5149  0 */\n      0x00\n        /* \"contracts/InternalEnergyAccountingContract.sol\":5139:5149  uint i = 0 */\n      swap1\n      pop\n        /* \"contracts/InternalEnergyAccountingContract.sol\":5135:5453  for(uint i = 0; i < vBuyerAddr.length; i++){... */\n    tag_318:\n        /* \"contracts/InternalEnergyAccountingContract.sol\":5155:5165  vBuyerAddr */\n      0x0a\n        /* \"contracts/InternalEnergyAccountingContract.sol\":5155:5172  vBuyerAddr.length */\n      dup1\n      sload\n      swap1\n      pop\n        /* \"contracts/InternalEnergyAccountingContract.sol\":5151:5152  i */\n      dup2\n        /* \"contracts/InternalEnergyAccountingContract.sol\":5151:5172  i < vBuyerAddr.length */\n      lt\n        /* \"contracts/InternalEnergyAccountingContract.sol\":5135:5453  for(uint i = 0; i < vBuyerAddr.length; i++){... */\n      iszero\n      tag_319\n      jumpi\n        /* \"contracts/InternalEnergyAccountingContract.sol\":5363:5364  0 */\n      0x00\n        /* \"contracts/InternalEnergyAccountingContract.sol\":5352:5357  vBEBs */\n      0x0b\n        /* \"contracts/InternalEnergyAccountingContract.sol\":5358:5359  i */\n      dup3\n        /* \"contracts/InternalEnergyAccountingContract.sol\":5352:5360  vBEBs[i] */\n      dup2\n      sload\n      dup2\n      lt\n      tag_321\n      jumpi\n      tag_322\n      tag_164\n      jump\t// in\n    tag_322:\n    tag_321:\n      swap1\n      0x00\n      mstore\n      keccak256(0x00, 0x20)\n      add\n      sload\n        /* \"contracts/InternalEnergyAccountingContract.sol\":5352:5364  vBEBs[i] > 0 */\n      gt\n        /* \"contracts/InternalEnergyAccountingContract.sol\":5349:5442  if(vBEBs[i] > 0) {... */\n      iszero\n      tag_324\n      jumpi\n        /* \"contracts/InternalEnergyAccountingContract.sol\":5394:5404  vBuyerAddr */\n      0x0a\n        /* \"contracts/InternalEnergyAccountingContract.sol\":5405:5406  i */\n      dup2\n        /* \"contracts/InternalEnergyAccountingContract.sol\":5394:5407  vBuyerAddr[i] */\n      dup2\n      sload\n      dup2\n      lt\n      tag_325\n      jumpi\n      tag_326\n      tag_164\n      jump\t// in\n    tag_326:\n    tag_325:\n      swap1\n      0x00\n      mstore\n      keccak256(0x00, 0x20)\n      add\n      0x00\n      swap1\n      sload\n      swap1\n      0x0100\n      exp\n      swap1\n      div\n      0xffffffffffffffffffffffffffffffffffffffff\n      and\n        /* \"contracts/InternalEnergyAccountingContract.sol\":5386:5417  payable(vBuyerAddr[i]).transfer */\n      0xffffffffffffffffffffffffffffffffffffffff\n      and\n        /* \"contracts/InternalEnergyAccountingContract.sol\":5386:5426  payable(vBuyerAddr[i]).transfer(vFCs[i]) */\n      0x08fc\n        /* \"contracts/InternalEnergyAccountingContract.sol\":5418:5422  vFCs */\n      0x0d\n        /* \"contracts/InternalEnergyAccountingContract.sol\":5423:5424  i */\n      dup4\n        /* \"contracts/InternalEnergyAccountingContract.sol\":5418:5425  vFCs[i] */\n      dup2\n      sload\n      dup2\n      lt\n      tag_328\n      jumpi\n      tag_329\n      tag_164\n      jump\t// in\n    tag_329:\n    tag_328:\n      swap1\n      0x00\n      mstore\n      keccak256(0x00, 0x20)\n      add\n      sload\n        /* \"contracts/InternalEnergyAccountingContract.sol\":5386:5426  payable(vBuyerAddr[i]).transfer(vFCs[i]) */\n      swap1\n      dup2\n      iszero\n      mul\n      swap1\n      mload(0x40)\n      0x00\n      mload(0x40)\n      dup1\n      dup4\n      sub\n      dup2\n      dup6\n      dup9\n      dup9\n      call\n      swap4\n      pop\n      pop\n      pop\n      pop\n      iszero\n      dup1\n      iszero\n      tag_332\n      jumpi\n      returndatacopy(0x00, 0x00, returndatasize)\n      revert(0x00, returndatasize)\n    tag_332:\n      pop\n        /* \"contracts/InternalEnergyAccountingContract.sol\":5349:5442  if(vBEBs[i] > 0) {... */\n    tag_324:\n        /* \"contracts/InternalEnergyAccountingContract.sol\":5174:5177  i++ */\n      dup1\n      dup1\n      0x01\n      add\n      swap2\n      pop\n      pop\n        /* \"contracts/InternalEnergyAccountingContract.sol\":5135:5453  for(uint i = 0; i < vBuyerAddr.length; i++){... */\n      jump(tag_318)\n    tag_319:\n      pop\n        /* \"contracts/InternalEnergyAccountingContract.sol\":5022:5460  function refundBuyers() public {... */\n      jump\t// out\n        /* \"contracts/InternalEnergyAccountingContract.sol\":501:528  address[] public vAddresses */\n    tag_136:\n      0x04\n      dup2\n      dup2\n      sload\n      dup2\n      lt\n      tag_333\n      jumpi\n      0x00\n      dup1\n      revert\n    tag_333:\n      swap1\n      0x00\n      mstore\n      keccak256(0x00, 0x20)\n      add\n      0x00\n      swap2\n      pop\n      sload\n      swap1\n      0x0100\n      exp\n      swap1\n      div\n      0xffffffffffffffffffffffffffffffffffffffff\n      and\n      dup2\n      jump\t// out\n    tag_305:\n      pop\n      dup1\n      sload\n      0x00\n      dup3\n      sstore\n      0x03\n      mul\n      swap1\n      0x00\n      mstore\n      keccak256(0x00, 0x20)\n      swap1\n      dup2\n      add\n      swap1\n      tag_336\n      swap2\n      swap1\n      tag_337\n      jump\t// in\n    tag_336:\n      pop\n      jump\t// out\n    tag_337:\n    tag_338:\n      dup1\n      dup3\n      gt\n      iszero\n      tag_339\n      jumpi\n      0x00\n      0x00\n      dup3\n      add\n      exp(0x0100, 0x00)\n      dup2\n      sload\n      swap1\n      0xffffffffffffffffffffffffffffffffffffffff\n      mul\n      not\n      and\n      swap1\n      sstore\n      0x01\n      dup3\n      add\n      0x00\n      swap1\n      sstore\n      0x02\n      dup3\n      add\n      0x00\n      swap1\n      sstore\n      pop\n      0x03\n      add\n      jump(tag_338)\n    tag_339:\n      pop\n      swap1\n      jump\t// out\n        /* \"#utility.yul\":88:205   */\n    tag_341:\n        /* \"#utility.yul\":197:198   */\n      0x00\n        /* \"#utility.yul\":194:195   */\n      0x00\n        /* \"#utility.yul\":187:199   */\n      revert\n        /* \"#utility.yul\":334:411   */\n    tag_343:\n        /* \"#utility.yul\":371:378   */\n      0x00\n        /* \"#utility.yul\":400:405   */\n      dup2\n        /* \"#utility.yul\":389:405   */\n      swap1\n      pop\n        /* \"#utility.yul\":334:411   */\n      swap2\n      swap1\n      pop\n      jump\t// out\n        /* \"#utility.yul\":417:539   */\n    tag_344:\n        /* \"#utility.yul\":490:514   */\n      tag_375\n        /* \"#utility.yul\":508:513   */\n      dup2\n        /* \"#utility.yul\":490:514   */\n      tag_343\n      jump\t// in\n    tag_375:\n        /* \"#utility.yul\":483:488   */\n      dup2\n        /* \"#utility.yul\":480:515   */\n      eq\n        /* \"#utility.yul\":470:533   */\n      tag_376\n      jumpi\n        /* \"#utility.yul\":529:530   */\n      0x00\n        /* \"#utility.yul\":526:527   */\n      0x00\n        /* \"#utility.yul\":519:531   */\n      revert\n        /* \"#utility.yul\":470:533   */\n    tag_376:\n        /* \"#utility.yul\":417:539   */\n      pop\n      jump\t// out\n        /* \"#utility.yul\":545:684   */\n    tag_345:\n        /* \"#utility.yul\":591:596   */\n      0x00\n        /* \"#utility.yul\":629:635   */\n      dup2\n        /* \"#utility.yul\":616:636   */\n      calldataload\n        /* \"#utility.yul\":607:636   */\n      swap1\n      pop\n        /* \"#utility.yul\":645:678   */\n      tag_378\n        /* \"#utility.yul\":672:677   */\n      dup2\n        /* \"#utility.yul\":645:678   */\n      tag_344\n      jump\t// in\n    tag_378:\n        /* \"#utility.yul\":545:684   */\n      swap3\n      swap2\n      pop\n      pop\n      jump\t// out\n        /* \"#utility.yul\":690:1019   */\n    tag_31:\n        /* \"#utility.yul\":749:755   */\n      0x00\n        /* \"#utility.yul\":798:800   */\n      0x20\n        /* \"#utility.yul\":786:795   */\n      dup3\n        /* \"#utility.yul\":777:784   */\n      dup5\n        /* \"#utility.yul\":773:796   */\n      sub\n        /* \"#utility.yul\":769:801   */\n      slt\n        /* \"#utility.yul\":766:885   */\n      iszero\n      tag_380\n      jumpi\n        /* \"#utility.yul\":804:883   */\n      tag_381\n      tag_341\n      jump\t// in\n    tag_381:\n        /* \"#utility.yul\":766:885   */\n    tag_380:\n        /* \"#utility.yul\":924:925   */\n      0x00\n        /* \"#utility.yul\":949:1002   */\n      tag_382\n        /* \"#utility.yul\":994:1001   */\n      dup5\n        /* \"#utility.yul\":985:991   */\n      dup3\n        /* \"#utility.yul\":974:983   */\n      dup6\n        /* \"#utility.yul\":970:992   */\n      add\n        /* \"#utility.yul\":949:1002   */\n      tag_345\n      jump\t// in\n    tag_382:\n        /* \"#utility.yul\":939:1002   */\n      swap2\n      pop\n        /* \"#utility.yul\":895:1012   */\n      pop\n        /* \"#utility.yul\":690:1019   */\n      swap3\n      swap2\n      pop\n      pop\n      jump\t// out\n        /* \"#utility.yul\":1025:1151   */\n    tag_346:\n        /* \"#utility.yul\":1062:1069   */\n      0x00\n        /* \"#utility.yul\":1102:1144   */\n      0xffffffffffffffffffffffffffffffffffffffff\n        /* \"#utility.yul\":1095:1100   */\n      dup3\n        /* \"#utility.yul\":1091:1145   */\n      and\n        /* \"#utility.yul\":1080:1145   */\n      swap1\n      pop\n        /* \"#utility.yul\":1025:1151   */\n      swap2\n      swap1\n      pop\n      jump\t// out\n        /* \"#utility.yul\":1157:1253   */\n    tag_347:\n        /* \"#utility.yul\":1194:1201   */\n      0x00\n        /* \"#utility.yul\":1223:1247   */\n      tag_385\n        /* \"#utility.yul\":1241:1246   */\n      dup3\n        /* \"#utility.yul\":1223:1247   */\n      tag_346\n      jump\t// in\n    tag_385:\n        /* \"#utility.yul\":1212:1247   */\n      swap1\n      pop\n        /* \"#utility.yul\":1157:1253   */\n      swap2\n      swap1\n      pop\n      jump\t// out\n        /* \"#utility.yul\":1259:1377   */\n    tag_348:\n        /* \"#utility.yul\":1346:1370   */\n      tag_387\n        /* \"#utility.yul\":1364:1369   */\n      dup2\n        /* \"#utility.yul\":1346:1370   */\n      tag_347\n      jump\t// in\n    tag_387:\n        /* \"#utility.yul\":1341:1344   */\n      dup3\n        /* \"#utility.yul\":1334:1371   */\n      mstore\n        /* \"#utility.yul\":1259:1377   */\n      pop\n      pop\n      jump\t// out\n        /* \"#utility.yul\":1383:1605   */\n    tag_38:\n        /* \"#utility.yul\":1476:1480   */\n      0x00\n        /* \"#utility.yul\":1514:1516   */\n      0x20\n        /* \"#utility.yul\":1503:1512   */\n      dup3\n        /* \"#utility.yul\":1499:1517   */\n      add\n        /* \"#utility.yul\":1491:1517   */\n      swap1\n      pop\n        /* \"#utility.yul\":1527:1598   */\n      tag_389\n        /* \"#utility.yul\":1595:1596   */\n      0x00\n        /* \"#utility.yul\":1584:1593   */\n      dup4\n        /* \"#utility.yul\":1580:1597   */\n      add\n        /* \"#utility.yul\":1571:1577   */\n      dup5\n        /* \"#utility.yul\":1527:1598   */\n      tag_348\n      jump\t// in\n    tag_389:\n        /* \"#utility.yul\":1383:1605   */\n      swap3\n      swap2\n      pop\n      pop\n      jump\t// out\n        /* \"#utility.yul\":1611:2085   */\n    tag_42:\n        /* \"#utility.yul\":1679:1685   */\n      0x00\n        /* \"#utility.yul\":1687:1693   */\n      0x00\n        /* \"#utility.yul\":1736:1738   */\n      0x40\n        /* \"#utility.yul\":1724:1733   */\n      dup4\n        /* \"#utility.yul\":1715:1722   */\n      dup6\n        /* \"#utility.yul\":1711:1734   */\n      sub\n        /* \"#utility.yul\":1707:1739   */\n      slt\n        /* \"#utility.yul\":1704:1823   */\n      iszero\n      tag_391\n      jumpi\n        /* \"#utility.yul\":1742:1821   */\n      tag_392\n      tag_341\n      jump\t// in\n    tag_392:\n        /* \"#utility.yul\":1704:1823   */\n    tag_391:\n        /* \"#utility.yul\":1862:1863   */\n      0x00\n        /* \"#utility.yul\":1887:1940   */\n      tag_393\n        /* \"#utility.yul\":1932:1939   */\n      dup6\n        /* \"#utility.yul\":1923:1929   */\n      dup3\n        /* \"#utility.yul\":1912:1921   */\n      dup7\n        /* \"#utility.yul\":1908:1930   */\n      add\n        /* \"#utility.yul\":1887:1940   */\n      tag_345\n      jump\t// in\n    tag_393:\n        /* \"#utility.yul\":1877:1940   */\n      swap3\n      pop\n        /* \"#utility.yul\":1833:1950   */\n      pop\n        /* \"#utility.yul\":1989:1991   */\n      0x20\n        /* \"#utility.yul\":2015:2068   */\n      tag_394\n        /* \"#utility.yul\":2060:2067   */\n      dup6\n        /* \"#utility.yul\":2051:2057   */\n      dup3\n        /* \"#utility.yul\":2040:2049   */\n      dup7\n        /* \"#utility.yul\":2036:2058   */\n      add\n        /* \"#utility.yul\":2015:2068   */\n      tag_345\n      jump\t// in\n    tag_394:\n        /* \"#utility.yul\":2005:2068   */\n      swap2\n      pop\n        /* \"#utility.yul\":1960:2078   */\n      pop\n        /* \"#utility.yul\":1611:2085   */\n      swap3\n      pop\n      swap3\n      swap1\n      pop\n      jump\t// out\n        /* \"#utility.yul\":2091:2209   */\n    tag_349:\n        /* \"#utility.yul\":2178:2202   */\n      tag_396\n        /* \"#utility.yul\":2196:2201   */\n      dup2\n        /* \"#utility.yul\":2178:2202   */\n      tag_343\n      jump\t// in\n    tag_396:\n        /* \"#utility.yul\":2173:2176   */\n      dup3\n        /* \"#utility.yul\":2166:2203   */\n      mstore\n        /* \"#utility.yul\":2091:2209   */\n      pop\n      pop\n      jump\t// out\n        /* \"#utility.yul\":2215:2437   */\n    tag_49:\n        /* \"#utility.yul\":2308:2312   */\n      0x00\n        /* \"#utility.yul\":2346:2348   */\n      0x20\n        /* \"#utility.yul\":2335:2344   */\n      dup3\n        /* \"#utility.yul\":2331:2349   */\n      add\n        /* \"#utility.yul\":2323:2349   */\n      swap1\n      pop\n        /* \"#utility.yul\":2359:2430   */\n      tag_398\n        /* \"#utility.yul\":2427:2428   */\n      0x00\n        /* \"#utility.yul\":2416:2425   */\n      dup4\n        /* \"#utility.yul\":2412:2429   */\n      add\n        /* \"#utility.yul\":2403:2409   */\n      dup5\n        /* \"#utility.yul\":2359:2430   */\n      tag_349\n      jump\t// in\n    tag_398:\n        /* \"#utility.yul\":2215:2437   */\n      swap3\n      swap2\n      pop\n      pop\n      jump\t// out\n        /* \"#utility.yul\":2443:2565   */\n    tag_350:\n        /* \"#utility.yul\":2516:2540   */\n      tag_400\n        /* \"#utility.yul\":2534:2539   */\n      dup2\n        /* \"#utility.yul\":2516:2540   */\n      tag_347\n      jump\t// in\n    tag_400:\n        /* \"#utility.yul\":2509:2514   */\n      dup2\n        /* \"#utility.yul\":2506:2541   */\n      eq\n        /* \"#utility.yul\":2496:2559   */\n      tag_401\n      jumpi\n        /* \"#utility.yul\":2555:2556   */\n      0x00\n        /* \"#utility.yul\":2552:2553   */\n      0x00\n        /* \"#utility.yul\":2545:2557   */\n      revert\n        /* \"#utility.yul\":2496:2559   */\n    tag_401:\n        /* \"#utility.yul\":2443:2565   */\n      pop\n      jump\t// out\n        /* \"#utility.yul\":2571:2710   */\n    tag_351:\n        /* \"#utility.yul\":2617:2622   */\n      0x00\n        /* \"#utility.yul\":2655:2661   */\n      dup2\n        /* \"#utility.yul\":2642:2662   */\n      calldataload\n        /* \"#utility.yul\":2633:2662   */\n      swap1\n      pop\n        /* \"#utility.yul\":2671:2704   */\n      tag_403\n        /* \"#utility.yul\":2698:2703   */\n      dup2\n        /* \"#utility.yul\":2671:2704   */\n      tag_350\n      jump\t// in\n    tag_403:\n        /* \"#utility.yul\":2571:2710   */\n      swap3\n      swap2\n      pop\n      pop\n      jump\t// out\n        /* \"#utility.yul\":2716:3045   */\n    tag_67:\n        /* \"#utility.yul\":2775:2781   */\n      0x00\n        /* \"#utility.yul\":2824:2826   */\n      0x20\n        /* \"#utility.yul\":2812:2821   */\n      dup3\n        /* \"#utility.yul\":2803:2810   */\n      dup5\n        /* \"#utility.yul\":2799:2822   */\n      sub\n        /* \"#utility.yul\":2795:2827   */\n      slt\n        /* \"#utility.yul\":2792:2911   */\n      iszero\n      tag_405\n      jumpi\n        /* \"#utility.yul\":2830:2909   */\n      tag_406\n      tag_341\n      jump\t// in\n    tag_406:\n        /* \"#utility.yul\":2792:2911   */\n    tag_405:\n        /* \"#utility.yul\":2950:2951   */\n      0x00\n        /* \"#utility.yul\":2975:3028   */\n      tag_407\n        /* \"#utility.yul\":3020:3027   */\n      dup5\n        /* \"#utility.yul\":3011:3017   */\n      dup3\n        /* \"#utility.yul\":3000:3009   */\n      dup6\n        /* \"#utility.yul\":2996:3018   */\n      add\n        /* \"#utility.yul\":2975:3028   */\n      tag_351\n      jump\t// in\n    tag_407:\n        /* \"#utility.yul\":2965:3028   */\n      swap2\n      pop\n        /* \"#utility.yul\":2921:3038   */\n      pop\n        /* \"#utility.yul\":2716:3045   */\n      swap3\n      swap2\n      pop\n      pop\n      jump\t// out\n        /* \"#utility.yul\":3051:3604   */\n    tag_70:\n        /* \"#utility.yul\":3228:3232   */\n      0x00\n        /* \"#utility.yul\":3266:3269   */\n      0x80\n        /* \"#utility.yul\":3255:3264   */\n      dup3\n        /* \"#utility.yul\":3251:3270   */\n      add\n        /* \"#utility.yul\":3243:3270   */\n      swap1\n      pop\n        /* \"#utility.yul\":3280:3351   */\n      tag_409\n        /* \"#utility.yul\":3348:3349   */\n      0x00\n        /* \"#utility.yul\":3337:3346   */\n      dup4\n        /* \"#utility.yul\":3333:3350   */\n      add\n        /* \"#utility.yul\":3324:3330   */\n      dup8\n        /* \"#utility.yul\":3280:3351   */\n      tag_348\n      jump\t// in\n    tag_409:\n        /* \"#utility.yul\":3361:3433   */\n      tag_410\n        /* \"#utility.yul\":3429:3431   */\n      0x20\n        /* \"#utility.yul\":3418:3427   */\n      dup4\n        /* \"#utility.yul\":3414:3432   */\n      add\n        /* \"#utility.yul\":3405:3411   */\n      dup7\n        /* \"#utility.yul\":3361:3433   */\n      tag_349\n      jump\t// in\n    tag_410:\n        /* \"#utility.yul\":3443:3515   */\n      tag_411\n        /* \"#utility.yul\":3511:3513   */\n      0x40\n        /* \"#utility.yul\":3500:3509   */\n      dup4\n        /* \"#utility.yul\":3496:3514   */\n      add\n        /* \"#utility.yul\":3487:3493   */\n      dup6\n        /* \"#utility.yul\":3443:3515   */\n      tag_349\n      jump\t// in\n    tag_411:\n        /* \"#utility.yul\":3525:3597   */\n      tag_412\n        /* \"#utility.yul\":3593:3595   */\n      0x60\n        /* \"#utility.yul\":3582:3591   */\n      dup4\n        /* \"#utility.yul\":3578:3596   */\n      add\n        /* \"#utility.yul\":3569:3575   */\n      dup5\n        /* \"#utility.yul\":3525:3597   */\n      tag_349\n      jump\t// in\n    tag_412:\n        /* \"#utility.yul\":3051:3604   */\n      swap6\n      swap5\n      pop\n      pop\n      pop\n      pop\n      pop\n      jump\t// out\n        /* \"#utility.yul\":3610:4052   */\n    tag_76:\n        /* \"#utility.yul\":3759:3763   */\n      0x00\n        /* \"#utility.yul\":3797:3799   */\n      0x60\n        /* \"#utility.yul\":3786:3795   */\n      dup3\n        /* \"#utility.yul\":3782:3800   */\n      add\n        /* \"#utility.yul\":3774:3800   */\n      swap1\n      pop\n        /* \"#utility.yul\":3810:3881   */\n      tag_414\n        /* \"#utility.yul\":3878:3879   */\n      0x00\n        /* \"#utility.yul\":3867:3876   */\n      dup4\n        /* \"#utility.yul\":3863:3880   */\n      add\n        /* \"#utility.yul\":3854:3860   */\n      dup7\n        /* \"#utility.yul\":3810:3881   */\n      tag_348\n      jump\t// in\n    tag_414:\n        /* \"#utility.yul\":3891:3963   */\n      tag_415\n        /* \"#utility.yul\":3959:3961   */\n      0x20\n        /* \"#utility.yul\":3948:3957   */\n      dup4\n        /* \"#utility.yul\":3944:3962   */\n      add\n        /* \"#utility.yul\":3935:3941   */\n      dup6\n        /* \"#utility.yul\":3891:3963   */\n      tag_349\n      jump\t// in\n    tag_415:\n        /* \"#utility.yul\":3973:4045   */\n      tag_416\n        /* \"#utility.yul\":4041:4043   */\n      0x40\n        /* \"#utility.yul\":4030:4039   */\n      dup4\n        /* \"#utility.yul\":4026:4044   */\n      add\n        /* \"#utility.yul\":4017:4023   */\n      dup5\n        /* \"#utility.yul\":3973:4045   */\n      tag_349\n      jump\t// in\n    tag_416:\n        /* \"#utility.yul\":3610:4052   */\n      swap5\n      swap4\n      pop\n      pop\n      pop\n      pop\n      jump\t// out\n        /* \"#utility.yul\":4058:4677   */\n    tag_91:\n        /* \"#utility.yul\":4135:4141   */\n      0x00\n        /* \"#utility.yul\":4143:4149   */\n      0x00\n        /* \"#utility.yul\":4151:4157   */\n      0x00\n        /* \"#utility.yul\":4200:4202   */\n      0x60\n        /* \"#utility.yul\":4188:4197   */\n      dup5\n        /* \"#utility.yul\":4179:4186   */\n      dup7\n        /* \"#utility.yul\":4175:4198   */\n      sub\n        /* \"#utility.yul\":4171:4203   */\n      slt\n        /* \"#utility.yul\":4168:4287   */\n      iszero\n      tag_418\n      jumpi\n        /* \"#utility.yul\":4206:4285   */\n      tag_419\n      tag_341\n      jump\t// in\n    tag_419:\n        /* \"#utility.yul\":4168:4287   */\n    tag_418:\n        /* \"#utility.yul\":4326:4327   */\n      0x00\n        /* \"#utility.yul\":4351:4404   */\n      tag_420\n        /* \"#utility.yul\":4396:4403   */\n      dup7\n        /* \"#utility.yul\":4387:4393   */\n      dup3\n        /* \"#utility.yul\":4376:4385   */\n      dup8\n        /* \"#utility.yul\":4372:4394   */\n      add\n        /* \"#utility.yul\":4351:4404   */\n      tag_351\n      jump\t// in\n    tag_420:\n        /* \"#utility.yul\":4341:4404   */\n      swap4\n      pop\n        /* \"#utility.yul\":4297:4414   */\n      pop\n        /* \"#utility.yul\":4453:4455   */\n      0x20\n        /* \"#utility.yul\":4479:4532   */\n      tag_421\n        /* \"#utility.yul\":4524:4531   */\n      dup7\n        /* \"#utility.yul\":4515:4521   */\n      dup3\n        /* \"#utility.yul\":4504:4513   */\n      dup8\n        /* \"#utility.yul\":4500:4522   */\n      add\n        /* \"#utility.yul\":4479:4532   */\n      tag_345\n      jump\t// in\n    tag_421:\n        /* \"#utility.yul\":4469:4532   */\n      swap3\n      pop\n        /* \"#utility.yul\":4424:4542   */\n      pop\n        /* \"#utility.yul\":4581:4583   */\n      0x40\n        /* \"#utility.yul\":4607:4660   */\n      tag_422\n        /* \"#utility.yul\":4652:4659   */\n      dup7\n        /* \"#utility.yul\":4643:4649   */\n      dup3\n        /* \"#utility.yul\":4632:4641   */\n      dup8\n        /* \"#utility.yul\":4628:4650   */\n      add\n        /* \"#utility.yul\":4607:4660   */\n      tag_345\n      jump\t// in\n    tag_422:\n        /* \"#utility.yul\":4597:4660   */\n      swap2\n      pop\n        /* \"#utility.yul\":4552:4670   */\n      pop\n        /* \"#utility.yul\":4058:4677   */\n      swap3\n      pop\n      swap3\n      pop\n      swap3\n      jump\t// out\n        /* \"#utility.yul\":4683:4852   */\n    tag_352:\n        /* \"#utility.yul\":4767:4778   */\n      0x00\n        /* \"#utility.yul\":4801:4807   */\n      dup3\n        /* \"#utility.yul\":4796:4799   */\n      dup3\n        /* \"#utility.yul\":4789:4808   */\n      mstore\n        /* \"#utility.yul\":4841:4845   */\n      0x20\n        /* \"#utility.yul\":4836:4839   */\n      dup3\n        /* \"#utility.yul\":4832:4846   */\n      add\n        /* \"#utility.yul\":4817:4846   */\n      swap1\n      pop\n        /* \"#utility.yul\":4683:4852   */\n      swap3\n      swap2\n      pop\n      pop\n      jump\t// out\n        /* \"#utility.yul\":4858:5035   */\n    tag_353:\n        /* \"#utility.yul\":4998:5027   */\n      0x4f6e6c79206f776e65722063616e207365742074686520726174650000000000\n        /* \"#utility.yul\":4994:4995   */\n      0x00\n        /* \"#utility.yul\":4986:4992   */\n      dup3\n        /* \"#utility.yul\":4982:4996   */\n      add\n        /* \"#utility.yul\":4975:5028   */\n      mstore\n        /* \"#utility.yul\":4858:5035   */\n      pop\n      jump\t// out\n        /* \"#utility.yul\":5041:5407   */\n    tag_354:\n        /* \"#utility.yul\":5183:5186   */\n      0x00\n        /* \"#utility.yul\":5204:5271   */\n      tag_426\n        /* \"#utility.yul\":5268:5270   */\n      0x1b\n        /* \"#utility.yul\":5263:5266   */\n      dup4\n        /* \"#utility.yul\":5204:5271   */\n      tag_352\n      jump\t// in\n    tag_426:\n        /* \"#utility.yul\":5197:5271   */\n      swap2\n      pop\n        /* \"#utility.yul\":5280:5373   */\n      tag_427\n        /* \"#utility.yul\":5369:5372   */\n      dup3\n        /* \"#utility.yul\":5280:5373   */\n      tag_353\n      jump\t// in\n    tag_427:\n        /* \"#utility.yul\":5398:5400   */\n      0x20\n        /* \"#utility.yul\":5393:5396   */\n      dup3\n        /* \"#utility.yul\":5389:5401   */\n      add\n        /* \"#utility.yul\":5382:5401   */\n      swap1\n      pop\n        /* \"#utility.yul\":5041:5407   */\n      swap2\n      swap1\n      pop\n      jump\t// out\n        /* \"#utility.yul\":5413:5832   */\n    tag_141:\n        /* \"#utility.yul\":5579:5583   */\n      0x00\n        /* \"#utility.yul\":5617:5619   */\n      0x20\n        /* \"#utility.yul\":5606:5615   */\n      dup3\n        /* \"#utility.yul\":5602:5620   */\n      add\n        /* \"#utility.yul\":5594:5620   */\n      swap1\n      pop\n        /* \"#utility.yul\":5666:5675   */\n      dup2\n        /* \"#utility.yul\":5660:5664   */\n      dup2\n        /* \"#utility.yul\":5656:5676   */\n      sub\n        /* \"#utility.yul\":5652:5653   */\n      0x00\n        /* \"#utility.yul\":5641:5650   */\n      dup4\n        /* \"#utility.yul\":5637:5654   */\n      add\n        /* \"#utility.yul\":5630:5677   */\n      mstore\n        /* \"#utility.yul\":5694:5825   */\n      tag_429\n        /* \"#utility.yul\":5820:5824   */\n      dup2\n        /* \"#utility.yul\":5694:5825   */\n      tag_354\n      jump\t// in\n    tag_429:\n        /* \"#utility.yul\":5686:5825   */\n      swap1\n      pop\n        /* \"#utility.yul\":5413:5832   */\n      swap2\n      swap1\n      pop\n      jump\t// out\n        /* \"#utility.yul\":5838:6018   */\n    tag_355:\n        /* \"#utility.yul\":5886:5963   */\n      0x4e487b7100000000000000000000000000000000000000000000000000000000\n        /* \"#utility.yul\":5883:5884   */\n      0x00\n        /* \"#utility.yul\":5876:5964   */\n      mstore\n        /* \"#utility.yul\":5983:5987   */\n      0x11\n        /* \"#utility.yul\":5980:5981   */\n      0x04\n        /* \"#utility.yul\":5973:5988   */\n      mstore\n        /* \"#utility.yul\":6007:6011   */\n      0x24\n        /* \"#utility.yul\":6004:6005   */\n      0x00\n        /* \"#utility.yul\":5997:6012   */\n      revert\n        /* \"#utility.yul\":6024:6434   */\n    tag_148:\n        /* \"#utility.yul\":6064:6071   */\n      0x00\n        /* \"#utility.yul\":6087:6107   */\n      tag_432\n        /* \"#utility.yul\":6105:6106   */\n      dup3\n        /* \"#utility.yul\":6087:6107   */\n      tag_343\n      jump\t// in\n    tag_432:\n        /* \"#utility.yul\":6082:6107   */\n      swap2\n      pop\n        /* \"#utility.yul\":6121:6141   */\n      tag_433\n        /* \"#utility.yul\":6139:6140   */\n      dup4\n        /* \"#utility.yul\":6121:6141   */\n      tag_343\n      jump\t// in\n    tag_433:\n        /* \"#utility.yul\":6116:6141   */\n      swap3\n      pop\n        /* \"#utility.yul\":6176:6177   */\n      dup3\n        /* \"#utility.yul\":6173:6174   */\n      dup3\n        /* \"#utility.yul\":6169:6178   */\n      mul\n        /* \"#utility.yul\":6198:6228   */\n      tag_434\n        /* \"#utility.yul\":6216:6227   */\n      dup2\n        /* \"#utility.yul\":6198:6228   */\n      tag_343\n      jump\t// in\n    tag_434:\n        /* \"#utility.yul\":6187:6228   */\n      swap2\n      pop\n        /* \"#utility.yul\":6377:6378   */\n      dup3\n        /* \"#utility.yul\":6368:6375   */\n      dup3\n        /* \"#utility.yul\":6364:6379   */\n      div\n        /* \"#utility.yul\":6361:6362   */\n      dup5\n        /* \"#utility.yul\":6358:6380   */\n      eq\n        /* \"#utility.yul\":6338:6339   */\n      dup4\n        /* \"#utility.yul\":6331:6340   */\n      iszero\n        /* \"#utility.yul\":6311:6394   */\n      or\n        /* \"#utility.yul\":6288:6427   */\n      tag_435\n      jumpi\n        /* \"#utility.yul\":6407:6425   */\n      tag_436\n      tag_355\n      jump\t// in\n    tag_436:\n        /* \"#utility.yul\":6288:6427   */\n    tag_435:\n        /* \"#utility.yul\":6072:6434   */\n      pop\n        /* \"#utility.yul\":6024:6434   */\n      swap3\n      swap2\n      pop\n      pop\n      jump\t// out\n        /* \"#utility.yul\":6440:6620   */\n    tag_356:\n        /* \"#utility.yul\":6488:6565   */\n      0x4e487b7100000000000000000000000000000000000000000000000000000000\n        /* \"#utility.yul\":6485:6486   */\n      0x00\n        /* \"#utility.yul\":6478:6566   */\n      mstore\n        /* \"#utility.yul\":6585:6589   */\n      0x12\n        /* \"#utility.yul\":6582:6583   */\n      0x04\n        /* \"#utility.yul\":6575:6590   */\n      mstore\n        /* \"#utility.yul\":6609:6613   */\n      0x24\n        /* \"#utility.yul\":6606:6607   */\n      0x00\n        /* \"#utility.yul\":6599:6614   */\n      revert\n        /* \"#utility.yul\":6626:6811   */\n    tag_150:\n        /* \"#utility.yul\":6666:6667   */\n      0x00\n        /* \"#utility.yul\":6683:6703   */\n      tag_439\n        /* \"#utility.yul\":6701:6702   */\n      dup3\n        /* \"#utility.yul\":6683:6703   */\n      tag_343\n      jump\t// in\n    tag_439:\n        /* \"#utility.yul\":6678:6703   */\n      swap2\n      pop\n        /* \"#utility.yul\":6717:6737   */\n      tag_440\n        /* \"#utility.yul\":6735:6736   */\n      dup4\n        /* \"#utility.yul\":6717:6737   */\n      tag_343\n      jump\t// in\n    tag_440:\n        /* \"#utility.yul\":6712:6737   */\n      swap3\n      pop\n        /* \"#utility.yul\":6756:6757   */\n      dup3\n        /* \"#utility.yul\":6746:6781   */\n      tag_441\n      jumpi\n        /* \"#utility.yul\":6761:6779   */\n      tag_442\n      tag_356\n      jump\t// in\n    tag_442:\n        /* \"#utility.yul\":6746:6781   */\n    tag_441:\n        /* \"#utility.yul\":6803:6804   */\n      dup3\n        /* \"#utility.yul\":6800:6801   */\n      dup3\n        /* \"#utility.yul\":6796:6805   */\n      div\n        /* \"#utility.yul\":6791:6805   */\n      swap1\n      pop\n        /* \"#utility.yul\":6626:6811   */\n      swap3\n      swap2\n      pop\n      pop\n      jump\t// out\n        /* \"#utility.yul\":6817:6996   */\n    tag_357:\n        /* \"#utility.yul\":6957:6988   */\n      0x4f6e6c79206f776e657220617574686f72697a6573207061796d656e74000000\n        /* \"#utility.yul\":6953:6954   */\n      0x00\n        /* \"#utility.yul\":6945:6951   */\n      dup3\n        /* \"#utility.yul\":6941:6955   */\n      add\n        /* \"#utility.yul\":6934:6989   */\n      mstore\n        /* \"#utility.yul\":6817:6996   */\n      pop\n      jump\t// out\n        /* \"#utility.yul\":7002:7368   */\n    tag_358:\n        /* \"#utility.yul\":7144:7147   */\n      0x00\n        /* \"#utility.yul\":7165:7232   */\n      tag_445\n        /* \"#utility.yul\":7229:7231   */\n      0x1d\n        /* \"#utility.yul\":7224:7227   */\n      dup4\n        /* \"#utility.yul\":7165:7232   */\n      tag_352\n      jump\t// in\n    tag_445:\n        /* \"#utility.yul\":7158:7232   */\n      swap2\n      pop\n        /* \"#utility.yul\":7241:7334   */\n      tag_446\n        /* \"#utility.yul\":7330:7333   */\n      dup3\n        /* \"#utility.yul\":7241:7334   */\n      tag_357\n      jump\t// in\n    tag_446:\n        /* \"#utility.yul\":7359:7361   */\n      0x20\n        /* \"#utility.yul\":7354:7357   */\n      dup3\n        /* \"#utility.yul\":7350:7362   */\n      add\n        /* \"#utility.yul\":7343:7362   */\n      swap1\n      pop\n        /* \"#utility.yul\":7002:7368   */\n      swap2\n      swap1\n      pop\n      jump\t// out\n        /* \"#utility.yul\":7374:7793   */\n    tag_158:\n        /* \"#utility.yul\":7540:7544   */\n      0x00\n        /* \"#utility.yul\":7578:7580   */\n      0x20\n        /* \"#utility.yul\":7567:7576   */\n      dup3\n        /* \"#utility.yul\":7563:7581   */\n      add\n        /* \"#utility.yul\":7555:7581   */\n      swap1\n      pop\n        /* \"#utility.yul\":7627:7636   */\n      dup2\n        /* \"#utility.yul\":7621:7625   */\n      dup2\n        /* \"#utility.yul\":7617:7637   */\n      sub\n        /* \"#utility.yul\":7613:7614   */\n      0x00\n        /* \"#utility.yul\":7602:7611   */\n      dup4\n        /* \"#utility.yul\":7598:7615   */\n      add\n        /* \"#utility.yul\":7591:7638   */\n      mstore\n        /* \"#utility.yul\":7655:7786   */\n      tag_448\n        /* \"#utility.yul\":7781:7785   */\n      dup2\n        /* \"#utility.yul\":7655:7786   */\n      tag_358\n      jump\t// in\n    tag_448:\n        /* \"#utility.yul\":7647:7786   */\n      swap1\n      pop\n        /* \"#utility.yul\":7374:7793   */\n      swap2\n      swap1\n      pop\n      jump\t// out\n        /* \"#utility.yul\":7799:7979   */\n    tag_164:\n        /* \"#utility.yul\":7847:7924   */\n      0x4e487b7100000000000000000000000000000000000000000000000000000000\n        /* \"#utility.yul\":7844:7845   */\n      0x00\n        /* \"#utility.yul\":7837:7925   */\n      mstore\n        /* \"#utility.yul\":7944:7948   */\n      0x32\n        /* \"#utility.yul\":7941:7942   */\n      0x04\n        /* \"#utility.yul\":7934:7949   */\n      mstore\n        /* \"#utility.yul\":7968:7972   */\n      0x24\n        /* \"#utility.yul\":7965:7966   */\n      0x00\n        /* \"#utility.yul\":7958:7973   */\n      revert\n        /* \"#utility.yul\":7985:8157   */\n    tag_359:\n        /* \"#utility.yul\":8125:8149   */\n      0x45746865722073656e74203c2042696420507269636500000000000000000000\n        /* \"#utility.yul\":8121:8122   */\n      0x00\n        /* \"#utility.yul\":8113:8119   */\n      dup3\n        /* \"#utility.yul\":8109:8123   */\n      add\n        /* \"#utility.yul\":8102:8150   */\n      mstore\n        /* \"#utility.yul\":7985:8157   */\n      pop\n      jump\t// out\n        /* \"#utility.yul\":8163:8529   */\n    tag_360:\n        /* \"#utility.yul\":8305:8308   */\n      0x00\n        /* \"#utility.yul\":8326:8393   */\n      tag_452\n        /* \"#utility.yul\":8390:8392   */\n      0x16\n        /* \"#utility.yul\":8385:8388   */\n      dup4\n        /* \"#utility.yul\":8326:8393   */\n      tag_352\n      jump\t// in\n    tag_452:\n        /* \"#utility.yul\":8319:8393   */\n      swap2\n      pop\n        /* \"#utility.yul\":8402:8495   */\n      tag_453\n        /* \"#utility.yul\":8491:8494   */\n      dup3\n        /* \"#utility.yul\":8402:8495   */\n      tag_359\n      jump\t// in\n    tag_453:\n        /* \"#utility.yul\":8520:8522   */\n      0x20\n        /* \"#utility.yul\":8515:8518   */\n      dup3\n        /* \"#utility.yul\":8511:8523   */\n      add\n        /* \"#utility.yul\":8504:8523   */\n      swap1\n      pop\n        /* \"#utility.yul\":8163:8529   */\n      swap2\n      swap1\n      pop\n      jump\t// out\n        /* \"#utility.yul\":8535:8954   */\n    tag_180:\n        /* \"#utility.yul\":8701:8705   */\n      0x00\n        /* \"#utility.yul\":8739:8741   */\n      0x20\n        /* \"#utility.yul\":8728:8737   */\n      dup3\n        /* \"#utility.yul\":8724:8742   */\n      add\n        /* \"#utility.yul\":8716:8742   */\n      swap1\n      pop\n        /* \"#utility.yul\":8788:8797   */\n      dup2\n        /* \"#utility.yul\":8782:8786   */\n      dup2\n        /* \"#utility.yul\":8778:8798   */\n      sub\n        /* \"#utility.yul\":8774:8775   */\n      0x00\n        /* \"#utility.yul\":8763:8772   */\n      dup4\n        /* \"#utility.yul\":8759:8776   */\n      add\n        /* \"#utility.yul\":8752:8799   */\n      mstore\n        /* \"#utility.yul\":8816:8947   */\n      tag_455\n        /* \"#utility.yul\":8942:8946   */\n      dup2\n        /* \"#utility.yul\":8816:8947   */\n      tag_360\n      jump\t// in\n    tag_455:\n        /* \"#utility.yul\":8808:8947   */\n      swap1\n      pop\n        /* \"#utility.yul\":8535:8954   */\n      swap2\n      swap1\n      pop\n      jump\t// out\n        /* \"#utility.yul\":8960:9122   */\n    tag_361:\n        /* \"#utility.yul\":9100:9114   */\n      0x426964206d69736d617463680000000000000000000000000000000000000000\n        /* \"#utility.yul\":9096:9097   */\n      0x00\n        /* \"#utility.yul\":9088:9094   */\n      dup3\n        /* \"#utility.yul\":9084:9098   */\n      add\n        /* \"#utility.yul\":9077:9115   */\n      mstore\n        /* \"#utility.yul\":8960:9122   */\n      pop\n      jump\t// out\n        /* \"#utility.yul\":9128:9494   */\n    tag_362:\n        /* \"#utility.yul\":9270:9273   */\n      0x00\n        /* \"#utility.yul\":9291:9358   */\n      tag_458\n        /* \"#utility.yul\":9355:9357   */\n      0x0c\n        /* \"#utility.yul\":9350:9353   */\n      dup4\n        /* \"#utility.yul\":9291:9358   */\n      tag_352\n      jump\t// in\n    tag_458:\n        /* \"#utility.yul\":9284:9358   */\n      swap2\n      pop\n        /* \"#utility.yul\":9367:9460   */\n      tag_459\n        /* \"#utility.yul\":9456:9459   */\n      dup3\n        /* \"#utility.yul\":9367:9460   */\n      tag_361\n      jump\t// in\n    tag_459:\n        /* \"#utility.yul\":9485:9487   */\n      0x20\n        /* \"#utility.yul\":9480:9483   */\n      dup3\n        /* \"#utility.yul\":9476:9488   */\n      add\n        /* \"#utility.yul\":9469:9488   */\n      swap1\n      pop\n        /* \"#utility.yul\":9128:9494   */\n      swap2\n      swap1\n      pop\n      jump\t// out\n        /* \"#utility.yul\":9500:9919   */\n    tag_189:\n        /* \"#utility.yul\":9666:9670   */\n      0x00\n        /* \"#utility.yul\":9704:9706   */\n      0x20\n        /* \"#utility.yul\":9693:9702   */\n      dup3\n        /* \"#utility.yul\":9689:9707   */\n      add\n        /* \"#utility.yul\":9681:9707   */\n      swap1\n      pop\n        /* \"#utility.yul\":9753:9762   */\n      dup2\n        /* \"#utility.yul\":9747:9751   */\n      dup2\n        /* \"#utility.yul\":9743:9763   */\n      sub\n        /* \"#utility.yul\":9739:9740   */\n      0x00\n        /* \"#utility.yul\":9728:9737   */\n      dup4\n        /* \"#utility.yul\":9724:9741   */\n      add\n        /* \"#utility.yul\":9717:9764   */\n      mstore\n        /* \"#utility.yul\":9781:9912   */\n      tag_461\n        /* \"#utility.yul\":9907:9911   */\n      dup2\n        /* \"#utility.yul\":9781:9912   */\n      tag_362\n      jump\t// in\n    tag_461:\n        /* \"#utility.yul\":9773:9912   */\n      swap1\n      pop\n        /* \"#utility.yul\":9500:9919   */\n      swap2\n      swap1\n      pop\n      jump\t// out\n        /* \"#utility.yul\":9925:10102   */\n    tag_363:\n        /* \"#utility.yul\":10065:10094   */\n      0x4f6e6c79206f776e65722063616e2072756e206d61746368696e670000000000\n        /* \"#utility.yul\":10061:10062   */\n      0x00\n        /* \"#utility.yul\":10053:10059   */\n      dup3\n        /* \"#utility.yul\":10049:10063   */\n      add\n        /* \"#utility.yul\":10042:10095   */\n      mstore\n        /* \"#utility.yul\":9925:10102   */\n      pop\n      jump\t// out\n        /* \"#utility.yul\":10108:10474   */\n    tag_364:\n        /* \"#utility.yul\":10250:10253   */\n      0x00\n        /* \"#utility.yul\":10271:10338   */\n      tag_464\n        /* \"#utility.yul\":10335:10337   */\n      0x1b\n        /* \"#utility.yul\":10330:10333   */\n      dup4\n        /* \"#utility.yul\":10271:10338   */\n      tag_352\n      jump\t// in\n    tag_464:\n        /* \"#utility.yul\":10264:10338   */\n      swap2\n      pop\n        /* \"#utility.yul\":10347:10440   */\n      tag_465\n        /* \"#utility.yul\":10436:10439   */\n      dup3\n        /* \"#utility.yul\":10347:10440   */\n      tag_363\n      jump\t// in\n    tag_465:\n        /* \"#utility.yul\":10465:10467   */\n      0x20\n        /* \"#utility.yul\":10460:10463   */\n      dup3\n        /* \"#utility.yul\":10456:10468   */\n      add\n        /* \"#utility.yul\":10449:10468   */\n      swap1\n      pop\n        /* \"#utility.yul\":10108:10474   */\n      swap2\n      swap1\n      pop\n      jump\t// out\n        /* \"#utility.yul\":10480:10899   */\n    tag_199:\n        /* \"#utility.yul\":10646:10650   */\n      0x00\n        /* \"#utility.yul\":10684:10686   */\n      0x20\n        /* \"#utility.yul\":10673:10682   */\n      dup3\n        /* \"#utility.yul\":10669:10687   */\n      add\n        /* \"#utility.yul\":10661:10687   */\n      swap1\n      pop\n        /* \"#utility.yul\":10733:10742   */\n      dup2\n        /* \"#utility.yul\":10727:10731   */\n      dup2\n        /* \"#utility.yul\":10723:10743   */\n      sub\n        /* \"#utility.yul\":10719:10720   */\n      0x00\n        /* \"#utility.yul\":10708:10717   */\n      dup4\n        /* \"#utility.yul\":10704:10721   */\n      add\n        /* \"#utility.yul\":10697:10744   */\n      mstore\n        /* \"#utility.yul\":10761:10892   */\n      tag_467\n        /* \"#utility.yul\":10887:10891   */\n      dup2\n        /* \"#utility.yul\":10761:10892   */\n      tag_364\n      jump\t// in\n    tag_467:\n        /* \"#utility.yul\":10753:10892   */\n      swap1\n      pop\n        /* \"#utility.yul\":10480:10899   */\n      swap2\n      swap1\n      pop\n      jump\t// out\n        /* \"#utility.yul\":10905:11096   */\n    tag_235:\n        /* \"#utility.yul\":10945:10948   */\n      0x00\n        /* \"#utility.yul\":10964:10984   */\n      tag_469\n        /* \"#utility.yul\":10982:10983   */\n      dup3\n        /* \"#utility.yul\":10964:10984   */\n      tag_343\n      jump\t// in\n    tag_469:\n        /* \"#utility.yul\":10959:10984   */\n      swap2\n      pop\n        /* \"#utility.yul\":10998:11018   */\n      tag_470\n        /* \"#utility.yul\":11016:11017   */\n      dup4\n        /* \"#utility.yul\":10998:11018   */\n      tag_343\n      jump\t// in\n    tag_470:\n        /* \"#utility.yul\":10993:11018   */\n      swap3\n      pop\n        /* \"#utility.yul\":11041:11042   */\n      dup3\n        /* \"#utility.yul\":11038:11039   */\n      dup3\n        /* \"#utility.yul\":11034:11043   */\n      add\n        /* \"#utility.yul\":11027:11043   */\n      swap1\n      pop\n        /* \"#utility.yul\":11062:11065   */\n      dup1\n        /* \"#utility.yul\":11059:11060   */\n      dup3\n        /* \"#utility.yul\":11056:11066   */\n      gt\n        /* \"#utility.yul\":11053:11089   */\n      iszero\n      tag_471\n      jumpi\n        /* \"#utility.yul\":11069:11087   */\n      tag_472\n      tag_355\n      jump\t// in\n    tag_472:\n        /* \"#utility.yul\":11053:11089   */\n    tag_471:\n        /* \"#utility.yul\":10905:11096   */\n      swap3\n      swap2\n      pop\n      pop\n      jump\t// out\n        /* \"#utility.yul\":11102:11296   */\n    tag_247:\n        /* \"#utility.yul\":11142:11146   */\n      0x00\n        /* \"#utility.yul\":11162:11182   */\n      tag_474\n        /* \"#utility.yul\":11180:11181   */\n      dup3\n        /* \"#utility.yul\":11162:11182   */\n      tag_343\n      jump\t// in\n    tag_474:\n        /* \"#utility.yul\":11157:11182   */\n      swap2\n      pop\n        /* \"#utility.yul\":11196:11216   */\n      tag_475\n        /* \"#utility.yul\":11214:11215   */\n      dup4\n        /* \"#utility.yul\":11196:11216   */\n      tag_343\n      jump\t// in\n    tag_475:\n        /* \"#utility.yul\":11191:11216   */\n      swap3\n      pop\n        /* \"#utility.yul\":11240:11241   */\n      dup3\n        /* \"#utility.yul\":11237:11238   */\n      dup3\n        /* \"#utility.yul\":11233:11242   */\n      sub\n        /* \"#utility.yul\":11225:11242   */\n      swap1\n      pop\n        /* \"#utility.yul\":11264:11265   */\n      dup2\n        /* \"#utility.yul\":11258:11262   */\n      dup2\n        /* \"#utility.yul\":11255:11266   */\n      gt\n        /* \"#utility.yul\":11252:11289   */\n      iszero\n      tag_476\n      jumpi\n        /* \"#utility.yul\":11269:11287   */\n      tag_477\n      tag_355\n      jump\t// in\n    tag_477:\n        /* \"#utility.yul\":11252:11289   */\n    tag_476:\n        /* \"#utility.yul\":11102:11296   */\n      swap3\n      swap2\n      pop\n      pop\n      jump\t// out\n        /* \"#utility.yul\":11302:11467   */\n    tag_365:\n        /* \"#utility.yul\":11442:11459   */\n      0x4f66666572206e6f7420666f756e640000000000000000000000000000000000\n        /* \"#utility.yul\":11438:11439   */\n      0x00\n        /* \"#utility.yul\":11430:11436   */\n      dup3\n        /* \"#utility.yul\":11426:11440   */\n      add\n        /* \"#utility.yul\":11419:11460   */\n      mstore\n        /* \"#utility.yul\":11302:11467   */\n      pop\n      jump\t// out\n        /* \"#utility.yul\":11473:11839   */\n    tag_366:\n        /* \"#utility.yul\":11615:11618   */\n      0x00\n        /* \"#utility.yul\":11636:11703   */\n      tag_480\n        /* \"#utility.yul\":11700:11702   */\n      0x0f\n        /* \"#utility.yul\":11695:11698   */\n      dup4\n        /* \"#utility.yul\":11636:11703   */\n      tag_352\n      jump\t// in\n    tag_480:\n        /* \"#utility.yul\":11629:11703   */\n      swap2\n      pop\n        /* \"#utility.yul\":11712:11805   */\n      tag_481\n        /* \"#utility.yul\":11801:11804   */\n      dup3\n        /* \"#utility.yul\":11712:11805   */\n      tag_365\n      jump\t// in\n    tag_481:\n        /* \"#utility.yul\":11830:11832   */\n      0x20\n        /* \"#utility.yul\":11825:11828   */\n      dup3\n        /* \"#utility.yul\":11821:11833   */\n      add\n        /* \"#utility.yul\":11814:11833   */\n      swap1\n      pop\n        /* \"#utility.yul\":11473:11839   */\n      swap2\n      swap1\n      pop\n      jump\t// out\n        /* \"#utility.yul\":11845:12264   */\n    tag_300:\n        /* \"#utility.yul\":12011:12015   */\n      0x00\n        /* \"#utility.yul\":12049:12051   */\n      0x20\n        /* \"#utility.yul\":12038:12047   */\n      dup3\n        /* \"#utility.yul\":12034:12052   */\n      add\n        /* \"#utility.yul\":12026:12052   */\n      swap1\n      pop\n        /* \"#utility.yul\":12098:12107   */\n      dup2\n        /* \"#utility.yul\":12092:12096   */\n      dup2\n        /* \"#utility.yul\":12088:12108   */\n      sub\n        /* \"#utility.yul\":12084:12085   */\n      0x00\n        /* \"#utility.yul\":12073:12082   */\n      dup4\n        /* \"#utility.yul\":12069:12086   */\n      add\n        /* \"#utility.yul\":12062:12109   */\n      mstore\n        /* \"#utility.yul\":12126:12257   */\n      tag_483\n        /* \"#utility.yul\":12252:12256   */\n      dup2\n        /* \"#utility.yul\":12126:12257   */\n      tag_366\n      jump\t// in\n    tag_483:\n        /* \"#utility.yul\":12118:12257   */\n      swap1\n      pop\n        /* \"#utility.yul\":11845:12264   */\n      swap2\n      swap1\n      pop\n      jump\t// out\n        /* \"#utility.yul\":12270:12448   */\n    tag_367:\n        /* \"#utility.yul\":12410:12440   */\n      0x4f6e6c79206f776e657220617574686f72697a657320726566756e6400000000\n        /* \"#utility.yul\":12406:12407   */\n      0x00\n        /* \"#utility.yul\":12398:12404   */\n      dup3\n        /* \"#utility.yul\":12394:12408   */\n      add\n        /* \"#utility.yul\":12387:12441   */\n      mstore\n        /* \"#utility.yul\":12270:12448   */\n      pop\n      jump\t// out\n        /* \"#utility.yul\":12454:12820   */\n    tag_368:\n        /* \"#utility.yul\":12596:12599   */\n      0x00\n        /* \"#utility.yul\":12617:12684   */\n      tag_486\n        /* \"#utility.yul\":12681:12683   */\n      0x1c\n        /* \"#utility.yul\":12676:12679   */\n      dup4\n        /* \"#utility.yul\":12617:12684   */\n      tag_352\n      jump\t// in\n    tag_486:\n        /* \"#utility.yul\":12610:12684   */\n      swap2\n      pop\n        /* \"#utility.yul\":12693:12786   */\n      tag_487\n        /* \"#utility.yul\":12782:12785   */\n      dup3\n        /* \"#utility.yul\":12693:12786   */\n      tag_367\n      jump\t// in\n    tag_487:\n        /* \"#utility.yul\":12811:12813   */\n      0x20\n        /* \"#utility.yul\":12806:12809   */\n      dup3\n        /* \"#utility.yul\":12802:12814   */\n      add\n        /* \"#utility.yul\":12795:12814   */\n      swap1\n      pop\n        /* \"#utility.yul\":12454:12820   */\n      swap2\n      swap1\n      pop\n      jump\t// out\n        /* \"#utility.yul\":12826:13245   */\n    tag_317:\n        /* \"#utility.yul\":12992:12996   */\n      0x00\n        /* \"#utility.yul\":13030:13032   */\n      0x20\n        /* \"#utility.yul\":13019:13028   */\n      dup3\n        /* \"#utility.yul\":13015:13033   */\n      add\n        /* \"#utility.yul\":13007:13033   */\n      swap1\n      pop\n        /* \"#utility.yul\":13079:13088   */\n      dup2\n        /* \"#utility.yul\":13073:13077   */\n      dup2\n        /* \"#utility.yul\":13069:13089   */\n      sub\n        /* \"#utility.yul\":13065:13066   */\n      0x00\n        /* \"#utility.yul\":13054:13063   */\n      dup4\n        /* \"#utility.yul\":13050:13067   */\n      add\n        /* \"#utility.yul\":13043:13090   */\n      mstore\n        /* \"#utility.yul\":13107:13238   */\n      tag_489\n        /* \"#utility.yul\":13233:13237   */\n      dup2\n        /* \"#utility.yul\":13107:13238   */\n      tag_368\n      jump\t// in\n    tag_489:\n        /* \"#utility.yul\":13099:13238   */\n      swap1\n      pop\n        /* \"#utility.yul\":12826:13245   */\n      swap2\n      swap1\n      pop\n      jump\t// out\n\n    auxdata: 0xa2646970667358221220e565b7f2b183c750136094f26694f6568fe3c995dff8b7f609823e241bc4d6d964736f6c634300081e0033\n}\n",
				"bytecode": {
					"linkReferences": {},
					"object": "6080604052348015600e575f5ffd5b503360015f6101000a81548173ffffffffffffffffffffffffffffffffffffffff021916908373ffffffffffffffffffffffffffffffffffffffff16021790555061204f8061005c5f395ff3fe60806040526004361061013f575f3560e01c8063ba4e194f116100b5578063ddd469d81161006e578063ddd469d814610479578063e1d53875146104b5578063ec14f2a2146104f1578063ed4a4a241461052d578063f29052371461056b578063f40ab387146105815761013f565b8063ba4e194f1461035c578063be9abf1c14610398578063bf2c0451146103c0578063c3c7d602146103fc578063d23c177914610412578063d97049841461043a5761013f565b806382a8c8531161010757806382a8c853146102475780638da5cb5b1461028357806397a993aa146102ad578063a8bba507146102ec578063b2bf04a31461032a578063b821da1b146103405761013f565b806334fcf4371461014357806342bec0841461016b5780636d6be726146101a7578063701d1973146101cf5780637b4b1dcd1461020b575b5f5ffd5b34801561014e575f5ffd5b50610169600480360381019061016491906119cd565b6105bd565b005b348015610176575f5ffd5b50610191600480360381019061018c91906119cd565b610655565b60405161019e9190611a37565b60405180910390f35b3480156101b2575f5ffd5b506101cd60048036038101906101c89190611a50565b610690565b005b3480156101da575f5ffd5b506101f560048036038101906101f091906119cd565b610747565b6040516102029190611a9d565b60405180910390f35b348015610216575f5ffd5b50610231600480360381019061022c91906119cd565b61076f565b60405161023e9190611a9d565b60405180910390f35b348015610252575f5ffd5b5061026d600480360381019061026891906119cd565b61078f565b60405161027a9190611a9d565b60405180910390f35b34801561028e575f5ffd5b506102976107af565b6040516102a49190611a37565b60405180910390f35b3480156102b8575f5ffd5b506102d360048036038101906102ce9190611ae0565b6107d4565b6040516102e39493929190611b0b565b60405180910390f35b3480156102f7575f5ffd5b50610312600480360381019061030d91906119cd565b61081f565b60405161032193929190611b4e565b60405180910390f35b348015610335575f5ffd5b5061033e610864565b005b61035a60048036038101906103559190611a50565b6109d5565b005b348015610367575f5ffd5b50610382600480360381019061037d91906119cd565b610b79565b60405161038f9190611a9d565b60405180910390f35b3480156103a3575f5ffd5b506103be60048036038101906103b99190611b83565b610b99565b005b3480156103cb575f5ffd5b506103e660048036038101906103e191906119cd565b610f83565b6040516103f39190611a9d565b60405180910390f35b348015610407575f5ffd5b50610410610fa3565b005b34801561041d575f5ffd5b5061043860048036038101906104339190611b83565b6113c1565b005b348015610445575f5ffd5b50610460600480360381019061045b91906119cd565b611665565b6040516104709493929190611b0b565b60405180910390f35b348015610484575f5ffd5b5061049f600480360381019061049a91906119cd565b6116b0565b6040516104ac9190611a37565b60405180910390f35b3480156104c0575f5ffd5b506104db60048036038101906104d691906119cd565b6116eb565b6040516104e89190611a9d565b60405180910390f35b3480156104fc575f5ffd5b50610517600480360381019061051291906119cd565b61170b565b6040516105249190611a9d565b60405180910390f35b348015610538575f5ffd5b50610553600480360381019061054e91906119cd565b61172b565b60405161056293929190611b4e565b60405180910390f35b348015610576575f5ffd5b5061057f61177f565b005b34801561058c575f5ffd5b506105a760048036038101906105a291906119cd565b6118f0565b6040516105b49190611a37565b60405180910390f35b60015f9054906101000a900473ffffffffffffffffffffffffffffffffffffffff1673ffffffffffffffffffffffffffffffffffffffff163373ffffffffffffffffffffffffffffffffffffffff161461064c576040517f08c379a000000000000000000000000000000000000000000000000000000000815260040161064390611c2d565b60405180910390fd5b805f8190555050565b60088181548110610664575f80fd5b905f5260205f20015f915054906101000a900473ffffffffffffffffffffffffffffffffffffffff1681565b600260405180606001604052803373ffffffffffffffffffffffffffffffffffffffff16815260200184815260200183815250908060018154018082558091505060019003905f5260205f2090600302015f909190919091505f820151815f015f6101000a81548173ffffffffffffffffffffffffffffffffffffffff021916908373ffffffffffffffffffffffffffffffffffffffff160217905550602082015181600101556040820151816002015550505050565b5f5f54670de0b6b3a76400008361075e9190611c78565b6107689190611ce6565b9050919050565b6005818154811061077e575f80fd5b905f5260205f20015f915090505481565b600b818154811061079e575f80fd5b905f5260205f20015f915090505481565b60015f9054906101000a900473ffffffffffffffffffffffffffffffffffffffff1681565b6007602052805f5260405f205f91509050805f015f9054906101000a900473ffffffffffffffffffffffffffffffffffffffff16908060010154908060020154908060030154905084565b6003602052805f5260405f205f91509050805f015f9054906101000a900473ffffffffffffffffffffffffffffffffffffffff16908060010154908060020154905083565b60015f9054906101000a900473ffffffffffffffffffffffffffffffffffffffff1673ffffffffffffffffffffffffffffffffffffffff163373ffffffffffffffffffffffffffffffffffffffff16146108f3576040517f08c379a00000000000000000000000000000000000000000000000000000000081526004016108ea90611d60565b60405180910390fd5b5f5f90505b600e805490508110156109d2575f600e828154811061091a57610919611d7e565b5b905f5260205f20015411156109c5576004818154811061093d5761093c611d7e565b5b905f5260205f20015f9054906101000a900473ffffffffffffffffffffffffffffffffffffffff1673ffffffffffffffffffffffffffffffffffffffff166108fc600e838154811061099257610991611d7e565b5b905f5260205f20015490811502906040515f60405180830381858888f193505050501580156109c3573d5f5f3e3d5ffd5b505b80806001019150506108f8565b50565b5f670de0b6b3a76400005f54346109ec9190611c78565b6109f69190611ce6565b905081811015610a3b576040517f08c379a0000000000000000000000000000000000000000000000000000000008152600401610a3290611df5565b60405180910390fd5b60405180608001604052803373ffffffffffffffffffffffffffffffffffffffff1681526020018481526020018381526020013481525060075f3373ffffffffffffffffffffffffffffffffffffffff1673ffffffffffffffffffffffffffffffffffffffff1681526020019081526020015f205f820151815f015f6101000a81548173ffffffffffffffffffffffffffffffffffffffff021916908373ffffffffffffffffffffffffffffffffffffffff160217905550602082015181600101556040820151816002015560608201518160030155905050600833908060018154018082558091505060019003905f5260205f20015f9091909190916101000a81548173ffffffffffffffffffffffffffffffffffffffff021916908373ffffffffffffffffffffffffffffffffffffffff160217905550505050565b600d8181548110610b88575f80fd5b905f5260205f20015f915090505481565b8273ffffffffffffffffffffffffffffffffffffffff1660075f8573ffffffffffffffffffffffffffffffffffffffff1673ffffffffffffffffffffffffffffffffffffffff1681526020019081526020015f205f015f9054906101000a900473ffffffffffffffffffffffffffffffffffffffff1673ffffffffffffffffffffffffffffffffffffffff16148015610c7157508160075f8573ffffffffffffffffffffffffffffffffffffffff1673ffffffffffffffffffffffffffffffffffffffff1681526020019081526020015f2060010154145b8015610cbc57508060075f8573ffffffffffffffffffffffffffffffffffffffff1673ffffffffffffffffffffffffffffffffffffffff1681526020019081526020015f2060020154145b610cfb576040517f08c379a0000000000000000000000000000000000000000000000000000000008152600401610cf290611e5d565b60405180910390fd5b5f600a80549050905060405180608001604052808573ffffffffffffffffffffffffffffffffffffffff16815260200184815260200183815260200160075f8773ffffffffffffffffffffffffffffffffffffffff1673ffffffffffffffffffffffffffffffffffffffff1681526020019081526020015f206003015481525060095f8381526020019081526020015f205f820151815f015f6101000a81548173ffffffffffffffffffffffffffffffffffffffff021916908373ffffffffffffffffffffffffffffffffffffffff160217905550602082015181600101556040820151816002015560608201518160030155905050600a84908060018154018082558091505060019003905f5260205f20015f9091909190916101000a81548173ffffffffffffffffffffffffffffffffffffffff021916908373ffffffffffffffffffffffffffffffffffffffff160217905550600b83908060018154018082558091505060019003905f5260205f20015f9091909190915055600c82908060018154018082558091505060019003905f5260205f20015f9091909190915055600d60075f8673ffffffffffffffffffffffffffffffffffffffff1673ffffffffffffffffffffffffffffffffffffffff1681526020019081526020015f2060030154908060018154018082558091505060019003905f5260205f20015f909190919091505560075f8573ffffffffffffffffffffffffffffffffffffffff1673ffffffffffffffffffffffffffffffffffffffff1681526020019081526020015f205f5f82015f6101000a81549073ffffffffffffffffffffffffffffffffffffffff0219169055600182015f9055600282015f9055600382015f9055505050505050565b600c8181548110610f92575f80fd5b905f5260205f20015f915090505481565b60015f9054906101000a900473ffffffffffffffffffffffffffffffffffffffff1673ffffffffffffffffffffffffffffffffffffffff163373ffffffffffffffffffffffffffffffffffffffff1614611032576040517f08c379a000000000000000000000000000000000000000000000000000000000815260040161102990611ec5565b60405180910390fd5b5f5f90505b6004805490508110156113be575f5f90505f5f90505f5f90505f5f90505b600a80549050811015611367576006858154811061107657611075611d7e565b5b905f5260205f200154600c828154811061109357611092611d7e565b5b905f5260205f20015410156110ab5760019350611367565b5f600b82815481106110c0576110bf611d7e565b5b905f5260205f200154031561135a57600b81815481106110e3576110e2611d7e565b5b905f5260205f20015460058681548110611100576110ff611d7e565b5b905f5260205f2001541015611226575f54600261111d9190611c78565b670de0b6b3a76400006005878154811061113a57611139611d7e565b5b905f5260205f2001546006888154811061115757611156611d7e565b5b905f5260205f200154600c858154811061117457611173611d7e565b5b905f5260205f2001546111879190611ee3565b6111919190611c78565b61119b9190611c78565b6111a59190611ce6565b826111b09190611ee3565b9150600585815481106111c6576111c5611d7e565b5b905f5260205f200154600b82815481106111e3576111e2611d7e565b5b905f5260205f20015f8282546111f99190611f16565b925050819055505f6005868154811061121557611214611d7e565b5b905f5260205f200181905550611367565b5f5460026112349190611c78565b670de0b6b3a7640000600b838154811061125157611250611d7e565b5b905f5260205f2001546006888154811061126e5761126d611d7e565b5b905f5260205f200154600c858154811061128b5761128a611d7e565b5b905f5260205f20015461129e9190611ee3565b6112a89190611c78565b6112b29190611c78565b6112bc9190611ce6565b826112c79190611ee3565b9150600b81815481106112dd576112dc611d7e565b5b905f5260205f200154600586815481106112fa576112f9611d7e565b5b905f5260205f20015f8282546113109190611f16565b925050819055505f600b828154811061132c5761132b611d7e565b5b905f5260205f2001819055506001600a8054905061134a9190611f16565b81036113595760019250611367565b5b8080600101915050611055565b505f831115611378575050506113be565b600e81908060018154018082558091505060019003905f5260205f20015f90919091909150555f8211156113ae575050506113be565b5050508080600101915050611037565b50565b5f5f90505f5f90505b6002805490508110156114be578473ffffffffffffffffffffffffffffffffffffffff166002828154811061140257611401611d7e565b5b905f5260205f2090600302015f015f9054906101000a900473ffffffffffffffffffffffffffffffffffffffff1673ffffffffffffffffffffffffffffffffffffffff161480156114755750836002828154811061146357611462611d7e565b5b905f5260205f20906003020160010154145b80156114a35750826002828154811061149157611490611d7e565b5b905f5260205f20906003020160020154145b156114b157600191506114be565b80806001019150506113ca565b50806114ff576040517f08c379a00000000000000000000000000000000000000000000000000000000081526004016114f690611f93565b60405180910390fd5b5f600480549050905060405180606001604052808673ffffffffffffffffffffffffffffffffffffffff1681526020018581526020018481525060035f8381526020019081526020015f205f820151815f015f6101000a81548173ffffffffffffffffffffffffffffffffffffffff021916908373ffffffffffffffffffffffffffffffffffffffff1602179055506020820151816001015560408201518160020155905050600485908060018154018082558091505060019003905f5260205f20015f9091909190916101000a81548173ffffffffffffffffffffffffffffffffffffffff021916908373ffffffffffffffffffffffffffffffffffffffff160217905550600584908060018154018082558091505060019003905f5260205f20015f9091909190915055600683908060018154018082558091505060019003905f5260205f20015f909190919091505560025f61165e919061192b565b5050505050565b6009602052805f5260405f205f91509050805f015f9054906101000a900473ffffffffffffffffffffffffffffffffffffffff16908060010154908060020154908060030154905084565b600a81815481106116bf575f80fd5b905f5260205f20015f915054906101000a900473ffffffffffffffffffffffffffffffffffffffff1681565b600e81815481106116fa575f80fd5b905f5260205f20015f915090505481565b6006818154811061171a575f80fd5b905f5260205f20015f915090505481565b6002818154811061173a575f80fd5b905f5260205f2090600302015f91509050805f015f9054906101000a900473ffffffffffffffffffffffffffffffffffffffff16908060010154908060020154905083565b60015f9054906101000a900473ffffffffffffffffffffffffffffffffffffffff1673ffffffffffffffffffffffffffffffffffffffff163373ffffffffffffffffffffffffffffffffffffffff161461180e576040517f08c379a000000000000000000000000000000000000000000000000000000000815260040161180590611ffb565b60405180910390fd5b5f5f90505b600a805490508110156118ed575f600b828154811061183557611834611d7e565b5b905f5260205f20015411156118e057600a818154811061185857611857611d7e565b5b905f5260205f20015f9054906101000a900473ffffffffffffffffffffffffffffffffffffffff1673ffffffffffffffffffffffffffffffffffffffff166108fc600d83815481106118ad576118ac611d7e565b5b905f5260205f20015490811502906040515f60405180830381858888f193505050501580156118de573d5f5f3e3d5ffd5b505b8080600101915050611813565b50565b600481815481106118ff575f80fd5b905f5260205f20015f915054906101000a900473ffffffffffffffffffffffffffffffffffffffff1681565b5080545f8255600302905f5260205f2090810190611949919061194c565b50565b5b80821115611992575f5f82015f6101000a81549073ffffffffffffffffffffffffffffffffffffffff0219169055600182015f9055600282015f90555060030161194d565b5090565b5f5ffd5b5f819050919050565b6119ac8161199a565b81146119b6575f5ffd5b50565b5f813590506119c7816119a3565b92915050565b5f602082840312156119e2576119e1611996565b5b5f6119ef848285016119b9565b91505092915050565b5f73ffffffffffffffffffffffffffffffffffffffff82169050919050565b5f611a21826119f8565b9050919050565b611a3181611a17565b82525050565b5f602082019050611a4a5f830184611a28565b92915050565b5f5f60408385031215611a6657611a65611996565b5b5f611a73858286016119b9565b9250506020611a84858286016119b9565b9150509250929050565b611a978161199a565b82525050565b5f602082019050611ab05f830184611a8e565b92915050565b611abf81611a17565b8114611ac9575f5ffd5b50565b5f81359050611ada81611ab6565b92915050565b5f60208284031215611af557611af4611996565b5b5f611b0284828501611acc565b91505092915050565b5f608082019050611b1e5f830187611a28565b611b2b6020830186611a8e565b611b386040830185611a8e565b611b456060830184611a8e565b95945050505050565b5f606082019050611b615f830186611a28565b611b6e6020830185611a8e565b611b7b6040830184611a8e565b949350505050565b5f5f5f60608486031215611b9a57611b99611996565b5b5f611ba786828701611acc565b9350506020611bb8868287016119b9565b9250506040611bc9868287016119b9565b9150509250925092565b5f82825260208201905092915050565b7f4f6e6c79206f776e65722063616e2073657420746865207261746500000000005f82015250565b5f611c17601b83611bd3565b9150611c2282611be3565b602082019050919050565b5f6020820190508181035f830152611c4481611c0b565b9050919050565b7f4e487b71000000000000000000000000000000000000000000000000000000005f52601160045260245ffd5b5f611c828261199a565b9150611c8d8361199a565b9250828202611c9b8161199a565b91508282048414831517611cb257611cb1611c4b565b5b5092915050565b7f4e487b71000000000000000000000000000000000000000000000000000000005f52601260045260245ffd5b5f611cf08261199a565b9150611cfb8361199a565b925082611d0b57611d0a611cb9565b5b828204905092915050565b7f4f6e6c79206f776e657220617574686f72697a6573207061796d656e740000005f82015250565b5f611d4a601d83611bd3565b9150611d5582611d16565b602082019050919050565b5f6020820190508181035f830152611d7781611d3e565b9050919050565b7f4e487b71000000000000000000000000000000000000000000000000000000005f52603260045260245ffd5b7f45746865722073656e74203c20426964205072696365000000000000000000005f82015250565b5f611ddf601683611bd3565b9150611dea82611dab565b602082019050919050565b5f6020820190508181035f830152611e0c81611dd3565b9050919050565b7f426964206d69736d6174636800000000000000000000000000000000000000005f82015250565b5f611e47600c83611bd3565b9150611e5282611e13565b602082019050919050565b5f6020820190508181035f830152611e7481611e3b565b9050919050565b7f4f6e6c79206f776e65722063616e2072756e206d61746368696e6700000000005f82015250565b5f611eaf601b83611bd3565b9150611eba82611e7b565b602082019050919050565b5f6020820190508181035f830152611edc81611ea3565b9050919050565b5f611eed8261199a565b9150611ef88361199a565b9250828201905080821115611f1057611f0f611c4b565b5b92915050565b5f611f208261199a565b9150611f2b8361199a565b9250828203905081811115611f4357611f42611c4b565b5b92915050565b7f4f66666572206e6f7420666f756e6400000000000000000000000000000000005f82015250565b5f611f7d600f83611bd3565b9150611f8882611f49565b602082019050919050565b5f6020820190508181035f830152611faa81611f71565b9050919050565b7f4f6e6c79206f776e657220617574686f72697a657320726566756e64000000005f82015250565b5f611fe5601c83611bd3565b9150611ff082611fb1565b602082019050919050565b5f6020820190508181035f83015261201281611fd9565b905091905056fea2646970667358221220e565b7f2b183c750136094f26694f6568fe3c995dff8b7f609823e241bc4d6d964736f6c634300081e0033",
					"opcodes": "PUSH1 0x80 PUSH1 0x40 MSTORE CALLVALUE DUP1 ISZERO PUSH1 0xE JUMPI PUSH0 PUSH0 REVERT JUMPDEST POP CALLER PUSH1 0x1 PUSH0 PUSH2 0x100 EXP DUP2 SLOAD DUP2 PUSH20 0xFFFFFFFFFFFFFFFFFFFFFFFFFFFFFFFFFFFFFFFF MUL NOT AND SWAP1 DUP4 PUSH20 0xFFFFFFFFFFFFFFFFFFFFFFFFFFFFFFFFFFFFFFFF AND MUL OR SWAP1 SSTORE POP PUSH2 0x204F DUP1 PUSH2 0x5C PUSH0 CODECOPY PUSH0 RETURN INVALID PUSH1 0x80 PUSH1 0x40 MSTORE PUSH1 0x4 CALLDATASIZE LT PUSH2 0x13F JUMPI PUSH0 CALLDATALOAD PUSH1 0xE0 SHR DUP1 PUSH4 0xBA4E194F GT PUSH2 0xB5 JUMPI DUP1 PUSH4 0xDDD469D8 GT PUSH2 0x6E JUMPI DUP1 PUSH4 0xDDD469D8 EQ PUSH2 0x479 JUMPI DUP1 PUSH4 0xE1D53875 EQ PUSH2 0x4B5 JUMPI DUP1 PUSH4 0xEC14F2A2 EQ PUSH2 0x4F1 JUMPI DUP1 PUSH4 0xED4A4A24 EQ PUSH2 0x52D JUMPI DUP1 PUSH4 0xF2905237 EQ PUSH2 0x56B JUMPI DUP1 PUSH4 0xF40AB387 EQ PUSH2 0x581 JUMPI PUSH2 0x13F JUMP JUMPDEST DUP1 PUSH4 0xBA4E194F EQ PUSH2 0x35C JUMPI DUP1 PUSH4 0xBE9ABF1C EQ PUSH2 0x398 JUMPI DUP1 PUSH4 0xBF2C0451 EQ PUSH2 0x3C0 JUMPI DUP1 PUSH4 0xC3C7D602 EQ PUSH2 0x3FC JUMPI DUP1 PUSH4 0xD23C1779 EQ PUSH2 0x412 JUMPI DUP1 PUSH4 0xD9704984 EQ PUSH2 0x43A JUMPI PUSH2 0x13F JUMP JUMPDEST DUP1 PUSH4 0x82A8C853 GT PUSH2 0x107 JUMPI DUP1 PUSH4 0x82A8C853 EQ PUSH2 0x247 JUMPI DUP1 PUSH4 0x8DA5CB5B EQ PUSH2 0x283 JUMPI DUP1 PUSH4 0x97A993AA EQ PUSH2 0x2AD JUMPI DUP1 PUSH4 0xA8BBA507 EQ PUSH2 0x2EC JUMPI DUP1 PUSH4 0xB2BF04A3 EQ PUSH2 0x32A JUMPI DUP1 PUSH4 0xB821DA1B EQ PUSH2 0x340 JUMPI PUSH2 0x13F JUMP JUMPDEST DUP1 PUSH4 0x34FCF437 EQ PUSH2 0x143 JUMPI DUP1 PUSH4 0x42BEC084 EQ PUSH2 0x16B JUMPI DUP1 PUSH4 0x6D6BE726 EQ PUSH2 0x1A7 JUMPI DUP1 PUSH4 0x701D1973 EQ PUSH2 0x1CF JUMPI DUP1 PUSH4 0x7B4B1DCD EQ PUSH2 0x20B JUMPI JUMPDEST PUSH0 PUSH0 REVERT JUMPDEST CALLVALUE DUP1 ISZERO PUSH2 0x14E JUMPI PUSH0 PUSH0 REVERT JUMPDEST POP PUSH2 0x169 PUSH1 0x4 DUP1 CALLDATASIZE SUB DUP2 ADD SWAP1 PUSH2 0x164 SWAP2 SWAP1 PUSH2 0x19CD JUMP JUMPDEST PUSH2 0x5BD JUMP JUMPDEST STOP JUMPDEST CALLVALUE DUP1 ISZERO PUSH2 0x176 JUMPI PUSH0 PUSH0 REVERT JUMPDEST POP PUSH2 0x191 PUSH1 0x4 DUP1 CALLDATASIZE SUB DUP2 ADD SWAP1 PUSH2 0x18C SWAP2 SWAP1 PUSH2 0x19CD JUMP JUMPDEST PUSH2 0x655 JUMP JUMPDEST PUSH1 0x40 MLOAD PUSH2 0x19E SWAP2 SWAP1 PUSH2 0x1A37 JUMP JUMPDEST PUSH1 0x40 MLOAD DUP1 SWAP2 SUB SWAP1 RETURN JUMPDEST CALLVALUE DUP1 ISZERO PUSH2 0x1B2 JUMPI PUSH0 PUSH0 REVERT JUMPDEST POP PUSH2 0x1CD PUSH1 0x4 DUP1 CALLDATASIZE SUB DUP2 ADD SWAP1 PUSH2 0x1C8 SWAP2 SWAP1 PUSH2 0x1A50 JUMP JUMPDEST PUSH2 0x690 JUMP JUMPDEST STOP JUMPDEST CALLVALUE DUP1 ISZERO PUSH2 0x1DA JUMPI PUSH0 PUSH0 REVERT JUMPDEST POP PUSH2 0x1F5 PUSH1 0x4 DUP1 CALLDATASIZE SUB DUP2 ADD SWAP1 PUSH2 0x1F0 SWAP2 SWAP1 PUSH2 0x19CD JUMP JUMPDEST PUSH2 0x747 JUMP JUMPDEST PUSH1 0x40 MLOAD PUSH2 0x202 SWAP2 SWAP1 PUSH2 0x1A9D JUMP JUMPDEST PUSH1 0x40 MLOAD DUP1 SWAP2 SUB SWAP1 RETURN JUMPDEST CALLVALUE DUP1 ISZERO PUSH2 0x216 JUMPI PUSH0 PUSH0 REVERT JUMPDEST POP PUSH2 0x231 PUSH1 0x4 DUP1 CALLDATASIZE SUB DUP2 ADD SWAP1 PUSH2 0x22C SWAP2 SWAP1 PUSH2 0x19CD JUMP JUMPDEST PUSH2 0x76F JUMP JUMPDEST PUSH1 0x40 MLOAD PUSH2 0x23E SWAP2 SWAP1 PUSH2 0x1A9D JUMP JUMPDEST PUSH1 0x40 MLOAD DUP1 SWAP2 SUB SWAP1 RETURN JUMPDEST CALLVALUE DUP1 ISZERO PUSH2 0x252 JUMPI PUSH0 PUSH0 REVERT JUMPDEST POP PUSH2 0x26D PUSH1 0x4 DUP1 CALLDATASIZE SUB DUP2 ADD SWAP1 PUSH2 0x268 SWAP2 SWAP1 PUSH2 0x19CD JUMP JUMPDEST PUSH2 0x78F JUMP JUMPDEST PUSH1 0x40 MLOAD PUSH2 0x27A SWAP2 SWAP1 PUSH2 0x1A9D JUMP JUMPDEST PUSH1 0x40 MLOAD DUP1 SWAP2 SUB SWAP1 RETURN JUMPDEST CALLVALUE DUP1 ISZERO PUSH2 0x28E JUMPI PUSH0 PUSH0 REVERT JUMPDEST POP PUSH2 0x297 PUSH2 0x7AF JUMP JUMPDEST PUSH1 0x40 MLOAD PUSH2 0x2A4 SWAP2 SWAP1 PUSH2 0x1A37 JUMP JUMPDEST PUSH1 0x40 MLOAD DUP1 SWAP2 SUB SWAP1 RETURN JUMPDEST CALLVALUE DUP1 ISZERO PUSH2 0x2B8 JUMPI PUSH0 PUSH0 REVERT JUMPDEST POP PUSH2 0x2D3 PUSH1 0x4 DUP1 CALLDATASIZE SUB DUP2 ADD SWAP1 PUSH2 0x2CE SWAP2 SWAP1 PUSH2 0x1AE0 JUMP JUMPDEST PUSH2 0x7D4 JUMP JUMPDEST PUSH1 0x40 MLOAD PUSH2 0x2E3 SWAP5 SWAP4 SWAP3 SWAP2 SWAP1 PUSH2 0x1B0B JUMP JUMPDEST PUSH1 0x40 MLOAD DUP1 SWAP2 SUB SWAP1 RETURN JUMPDEST CALLVALUE DUP1 ISZERO PUSH2 0x2F7 JUMPI PUSH0 PUSH0 REVERT JUMPDEST POP PUSH2 0x312 PUSH1 0x4 DUP1 CALLDATASIZE SUB DUP2 ADD SWAP1 PUSH2 0x30D SWAP2 SWAP1 PUSH2 0x19CD JUMP JUMPDEST PUSH2 0x81F JUMP JUMPDEST PUSH1 0x40 MLOAD PUSH2 0x321 SWAP4 SWAP3 SWAP2 SWAP1 PUSH2 0x1B4E JUMP JUMPDEST PUSH1 0x40 MLOAD DUP1 SWAP2 SUB SWAP1 RETURN JUMPDEST CALLVALUE DUP1 ISZERO PUSH2 0x335 JUMPI PUSH0 PUSH0 REVERT JUMPDEST POP PUSH2 0x33E PUSH2 0x864 JUMP JUMPDEST STOP JUMPDEST PUSH2 0x35A PUSH1 0x4 DUP1 CALLDATASIZE SUB DUP2 ADD SWAP1 PUSH2 0x355 SWAP2 SWAP1 PUSH2 0x1A50 JUMP JUMPDEST PUSH2 0x9D5 JUMP JUMPDEST STOP JUMPDEST CALLVALUE DUP1 ISZERO PUSH2 0x367 JUMPI PUSH0 PUSH0 REVERT JUMPDEST POP PUSH2 0x382 PUSH1 0x4 DUP1 CALLDATASIZE SUB DUP2 ADD SWAP1 PUSH2 0x37D SWAP2 SWAP1 PUSH2 0x19CD JUMP JUMPDEST PUSH2 0xB79 JUMP JUMPDEST PUSH1 0x40 MLOAD PUSH2 0x38F SWAP2 SWAP1 PUSH2 0x1A9D JUMP JUMPDEST PUSH1 0x40 MLOAD DUP1 SWAP2 SUB SWAP1 RETURN JUMPDEST CALLVALUE DUP1 ISZERO PUSH2 0x3A3 JUMPI PUSH0 PUSH0 REVERT JUMPDEST POP PUSH2 0x3BE PUSH1 0x4 DUP1 CALLDATASIZE SUB DUP2 ADD SWAP1 PUSH2 0x3B9 SWAP2 SWAP1 PUSH2 0x1B83 JUMP JUMPDEST PUSH2 0xB99 JUMP JUMPDEST STOP JUMPDEST CALLVALUE DUP1 ISZERO PUSH2 0x3CB JUMPI PUSH0 PUSH0 REVERT JUMPDEST POP PUSH2 0x3E6 PUSH1 0x4 DUP1 CALLDATASIZE SUB DUP2 ADD SWAP1 PUSH2 0x3E1 SWAP2 SWAP1 PUSH2 0x19CD JUMP JUMPDEST PUSH2 0xF83 JUMP JUMPDEST PUSH1 0x40 MLOAD PUSH2 0x3F3 SWAP2 SWAP1 PUSH2 0x1A9D JUMP JUMPDEST PUSH1 0x40 MLOAD DUP1 SWAP2 SUB SWAP1 RETURN JUMPDEST CALLVALUE DUP1 ISZERO PUSH2 0x407 JUMPI PUSH0 PUSH0 REVERT JUMPDEST POP PUSH2 0x410 PUSH2 0xFA3 JUMP JUMPDEST STOP JUMPDEST CALLVALUE DUP1 ISZERO PUSH2 0x41D JUMPI PUSH0 PUSH0 REVERT JUMPDEST POP PUSH2 0x438 PUSH1 0x4 DUP1 CALLDATASIZE SUB DUP2 ADD SWAP1 PUSH2 0x433 SWAP2 SWAP1 PUSH2 0x1B83 JUMP JUMPDEST PUSH2 0x13C1 JUMP JUMPDEST STOP JUMPDEST CALLVALUE DUP1 ISZERO PUSH2 0x445 JUMPI PUSH0 PUSH0 REVERT JUMPDEST POP PUSH2 0x460 PUSH1 0x4 DUP1 CALLDATASIZE SUB DUP2 ADD SWAP1 PUSH2 0x45B SWAP2 SWAP1 PUSH2 0x19CD JUMP JUMPDEST PUSH2 0x1665 JUMP JUMPDEST PUSH1 0x40 MLOAD PUSH2 0x470 SWAP5 SWAP4 SWAP3 SWAP2 SWAP1 PUSH2 0x1B0B JUMP JUMPDEST PUSH1 0x40 MLOAD DUP1 SWAP2 SUB SWAP1 RETURN JUMPDEST CALLVALUE DUP1 ISZERO PUSH2 0x484 JUMPI PUSH0 PUSH0 REVERT JUMPDEST POP PUSH2 0x49F PUSH1 0x4 DUP1 CALLDATASIZE SUB DUP2 ADD SWAP1 PUSH2 0x49A SWAP2 SWAP1 PUSH2 0x19CD JUMP JUMPDEST PUSH2 0x16B0 JUMP JUMPDEST PUSH1 0x40 MLOAD PUSH2 0x4AC SWAP2 SWAP1 PUSH2 0x1A37 JUMP JUMPDEST PUSH1 0x40 MLOAD DUP1 SWAP2 SUB SWAP1 RETURN JUMPDEST CALLVALUE DUP1 ISZERO PUSH2 0x4C0 JUMPI PUSH0 PUSH0 REVERT JUMPDEST POP PUSH2 0x4DB PUSH1 0x4 DUP1 CALLDATASIZE SUB DUP2 ADD SWAP1 PUSH2 0x4D6 SWAP2 SWAP1 PUSH2 0x19CD JUMP JUMPDEST PUSH2 0x16EB JUMP JUMPDEST PUSH1 0x40 MLOAD PUSH2 0x4E8 SWAP2 SWAP1 PUSH2 0x1A9D JUMP JUMPDEST PUSH1 0x40 MLOAD DUP1 SWAP2 SUB SWAP1 RETURN JUMPDEST CALLVALUE DUP1 ISZERO PUSH2 0x4FC JUMPI PUSH0 PUSH0 REVERT JUMPDEST POP PUSH2 0x517 PUSH1 0x4 DUP1 CALLDATASIZE SUB DUP2 ADD SWAP1 PUSH2 0x512 SWAP2 SWAP1 PUSH2 0x19CD JUMP JUMPDEST PUSH2 0x170B JUMP JUMPDEST PUSH1 0x40 MLOAD PUSH2 0x524 SWAP2 SWAP1 PUSH2 0x1A9D JUMP JUMPDEST PUSH1 0x40 MLOAD DUP1 SWAP2 SUB SWAP1 RETURN JUMPDEST CALLVALUE DUP1 ISZERO PUSH2 0x538 JUMPI PUSH0 PUSH0 REVERT JUMPDEST POP PUSH2 0x553 PUSH1 0x4 DUP1 CALLDATASIZE SUB DUP2 ADD SWAP1 PUSH2 0x54E SWAP2 SWAP1 PUSH2 0x19CD JUMP JUMPDEST PUSH2 0x172B JUMP JUMPDEST PUSH1 0x40 MLOAD PUSH2 0x562 SWAP4 SWAP3 SWAP2 SWAP1 PUSH2 0x1B4E JUMP JUMPDEST PUSH1 0x40 MLOAD DUP1 SWAP2 SUB SWAP1 RETURN JUMPDEST CALLVALUE DUP1 ISZERO PUSH2 0x576 JUMPI PUSH0 PUSH0 REVERT JUMPDEST POP PUSH2 0x57F PUSH2 0x177F JUMP JUMPDEST STOP JUMPDEST CALLVALUE DUP1 ISZERO PUSH2 0x58C JUMPI PUSH0 PUSH0 REVERT JUMPDEST POP PUSH2 0x5A7 PUSH1 0x4 DUP1 CALLDATASIZE SUB DUP2 ADD SWAP1 PUSH2 0x5A2 SWAP2 SWAP1 PUSH2 0x19CD JUMP JUMPDEST PUSH2 0x18F0 JUMP JUMPDEST PUSH1 0x40 MLOAD PUSH2 0x5B4 SWAP2 SWAP1 PUSH2 0x1A37 JUMP JUMPDEST PUSH1 0x40 MLOAD DUP1 SWAP2 SUB SWAP1 RETURN JUMPDEST PUSH1 0x1 PUSH0 SWAP1 SLOAD SWAP1 PUSH2 0x100 EXP SWAP1 DIV PUSH20 0xFFFFFFFFFFFFFFFFFFFFFFFFFFFFFFFFFFFFFFFF AND PUSH20 0xFFFFFFFFFFFFFFFFFFFFFFFFFFFFFFFFFFFFFFFF AND CALLER PUSH20 0xFFFFFFFFFFFFFFFFFFFFFFFFFFFFFFFFFFFFFFFF AND EQ PUSH2 0x64C JUMPI PUSH1 0x40 MLOAD PUSH32 0x8C379A000000000000000000000000000000000000000000000000000000000 DUP2 MSTORE PUSH1 0x4 ADD PUSH2 0x643 SWAP1 PUSH2 0x1C2D JUMP JUMPDEST PUSH1 0x40 MLOAD DUP1 SWAP2 SUB SWAP1 REVERT JUMPDEST DUP1 PUSH0 DUP2 SWAP1 SSTORE POP POP JUMP JUMPDEST PUSH1 0x8 DUP2 DUP2 SLOAD DUP2 LT PUSH2 0x664 JUMPI PUSH0 DUP1 REVERT JUMPDEST SWAP1 PUSH0 MSTORE PUSH1 0x20 PUSH0 KECCAK256 ADD PUSH0 SWAP2 POP SLOAD SWAP1 PUSH2 0x100 EXP SWAP1 DIV PUSH20 0xFFFFFFFFFFFFFFFFFFFFFFFFFFFFFFFFFFFFFFFF AND DUP2 JUMP JUMPDEST PUSH1 0x2 PUSH1 0x40 MLOAD DUP1 PUSH1 0x60 ADD PUSH1 0x40 MSTORE DUP1 CALLER PUSH20 0xFFFFFFFFFFFFFFFFFFFFFFFFFFFFFFFFFFFFFFFF AND DUP2 MSTORE PUSH1 0x20 ADD DUP5 DUP2 MSTORE PUSH1 0x20 ADD DUP4 DUP2 MSTORE POP SWAP1 DUP1 PUSH1 0x1 DUP2 SLOAD ADD DUP1 DUP3 SSTORE DUP1 SWAP2 POP POP PUSH1 0x1 SWAP1 SUB SWAP1 PUSH0 MSTORE PUSH1 0x20 PUSH0 KECCAK256 SWAP1 PUSH1 0x3 MUL ADD PUSH0 SWAP1 SWAP2 SWAP1 SWAP2 SWAP1 SWAP2 POP PUSH0 DUP3 ADD MLOAD DUP2 PUSH0 ADD PUSH0 PUSH2 0x100 EXP DUP2 SLOAD DUP2 PUSH20 0xFFFFFFFFFFFFFFFFFFFFFFFFFFFFFFFFFFFFFFFF MUL NOT AND SWAP1 DUP4 PUSH20 0xFFFFFFFFFFFFFFFFFFFFFFFFFFFFFFFFFFFFFFFF AND MUL OR SWAP1 SSTORE POP PUSH1 0x20 DUP3 ADD MLOAD DUP2 PUSH1 0x1 ADD SSTORE PUSH1 0x40 DUP3 ADD MLOAD DUP2 PUSH1 0x2 ADD SSTORE POP POP POP POP JUMP JUMPDEST PUSH0 PUSH0 SLOAD PUSH8 0xDE0B6B3A7640000 DUP4 PUSH2 0x75E SWAP2 SWAP1 PUSH2 0x1C78 JUMP JUMPDEST PUSH2 0x768 SWAP2 SWAP1 PUSH2 0x1CE6 JUMP JUMPDEST SWAP1 POP SWAP2 SWAP1 POP JUMP JUMPDEST PUSH1 0x5 DUP2 DUP2 SLOAD DUP2 LT PUSH2 0x77E JUMPI PUSH0 DUP1 REVERT JUMPDEST SWAP1 PUSH0 MSTORE PUSH1 0x20 PUSH0 KECCAK256 ADD PUSH0 SWAP2 POP SWAP1 POP SLOAD DUP2 JUMP JUMPDEST PUSH1 0xB DUP2 DUP2 SLOAD DUP2 LT PUSH2 0x79E JUMPI PUSH0 DUP1 REVERT JUMPDEST SWAP1 PUSH0 MSTORE PUSH1 0x20 PUSH0 KECCAK256 ADD PUSH0 SWAP2 POP SWAP1 POP SLOAD DUP2 JUMP JUMPDEST PUSH1 0x1 PUSH0 SWAP1 SLOAD SWAP1 PUSH2 0x100 EXP SWAP1 DIV PUSH20 0xFFFFFFFFFFFFFFFFFFFFFFFFFFFFFFFFFFFFFFFF AND DUP2 JUMP JUMPDEST PUSH1 0x7 PUSH1 0x20 MSTORE DUP1 PUSH0 MSTORE PUSH1 0x40 PUSH0 KECCAK256 PUSH0 SWAP2 POP SWAP1 POP DUP1 PUSH0 ADD PUSH0 SWAP1 SLOAD SWAP1 PUSH2 0x100 EXP SWAP1 DIV PUSH20 0xFFFFFFFFFFFFFFFFFFFFFFFFFFFFFFFFFFFFFFFF AND SWAP1 DUP1 PUSH1 0x1 ADD SLOAD SWAP1 DUP1 PUSH1 0x2 ADD SLOAD SWAP1 DUP1 PUSH1 0x3 ADD SLOAD SWAP1 POP DUP5 JUMP JUMPDEST PUSH1 0x3 PUSH1 0x20 MSTORE DUP1 PUSH0 MSTORE PUSH1 0x40 PUSH0 KECCAK256 PUSH0 SWAP2 POP SWAP1 POP DUP1 PUSH0 ADD PUSH0 SWAP1 SLOAD SWAP1 PUSH2 0x100 EXP SWAP1 DIV PUSH20 0xFFFFFFFFFFFFFFFFFFFFFFFFFFFFFFFFFFFFFFFF AND SWAP1 DUP1 PUSH1 0x1 ADD SLOAD SWAP1 DUP1 PUSH1 0x2 ADD SLOAD SWAP1 POP DUP4 JUMP JUMPDEST PUSH1 0x1 PUSH0 SWAP1 SLOAD SWAP1 PUSH2 0x100 EXP SWAP1 DIV PUSH20 0xFFFFFFFFFFFFFFFFFFFFFFFFFFFFFFFFFFFFFFFF AND PUSH20 0xFFFFFFFFFFFFFFFFFFFFFFFFFFFFFFFFFFFFFFFF AND CALLER PUSH20 0xFFFFFFFFFFFFFFFFFFFFFFFFFFFFFFFFFFFFFFFF AND EQ PUSH2 0x8F3 JUMPI PUSH1 0x40 MLOAD PUSH32 0x8C379A000000000000000000000000000000000000000000000000000000000 DUP2 MSTORE PUSH1 0x4 ADD PUSH2 0x8EA SWAP1 PUSH2 0x1D60 JUMP JUMPDEST PUSH1 0x40 MLOAD DUP1 SWAP2 SUB SWAP1 REVERT JUMPDEST PUSH0 PUSH0 SWAP1 POP JUMPDEST PUSH1 0xE DUP1 SLOAD SWAP1 POP DUP2 LT ISZERO PUSH2 0x9D2 JUMPI PUSH0 PUSH1 0xE DUP3 DUP2 SLOAD DUP2 LT PUSH2 0x91A JUMPI PUSH2 0x919 PUSH2 0x1D7E JUMP JUMPDEST JUMPDEST SWAP1 PUSH0 MSTORE PUSH1 0x20 PUSH0 KECCAK256 ADD SLOAD GT ISZERO PUSH2 0x9C5 JUMPI PUSH1 0x4 DUP2 DUP2 SLOAD DUP2 LT PUSH2 0x93D JUMPI PUSH2 0x93C PUSH2 0x1D7E JUMP JUMPDEST JUMPDEST SWAP1 PUSH0 MSTORE PUSH1 0x20 PUSH0 KECCAK256 ADD PUSH0 SWAP1 SLOAD SWAP1 PUSH2 0x100 EXP SWAP1 DIV PUSH20 0xFFFFFFFFFFFFFFFFFFFFFFFFFFFFFFFFFFFFFFFF AND PUSH20 0xFFFFFFFFFFFFFFFFFFFFFFFFFFFFFFFFFFFFFFFF AND PUSH2 0x8FC PUSH1 0xE DUP4 DUP2 SLOAD DUP2 LT PUSH2 0x992 JUMPI PUSH2 0x991 PUSH2 0x1D7E JUMP JUMPDEST JUMPDEST SWAP1 PUSH0 MSTORE PUSH1 0x20 PUSH0 KECCAK256 ADD SLOAD SWAP1 DUP2 ISZERO MUL SWAP1 PUSH1 0x40 MLOAD PUSH0 PUSH1 0x40 MLOAD DUP1 DUP4 SUB DUP2 DUP6 DUP9 DUP9 CALL SWAP4 POP POP POP POP ISZERO DUP1 ISZERO PUSH2 0x9C3 JUMPI RETURNDATASIZE PUSH0 PUSH0 RETURNDATACOPY RETURNDATASIZE PUSH0 REVERT JUMPDEST POP JUMPDEST DUP1 DUP1 PUSH1 0x1 ADD SWAP2 POP POP PUSH2 0x8F8 JUMP JUMPDEST POP JUMP JUMPDEST PUSH0 PUSH8 0xDE0B6B3A7640000 PUSH0 SLOAD CALLVALUE PUSH2 0x9EC SWAP2 SWAP1 PUSH2 0x1C78 JUMP JUMPDEST PUSH2 0x9F6 SWAP2 SWAP1 PUSH2 0x1CE6 JUMP JUMPDEST SWAP1 POP DUP2 DUP2 LT ISZERO PUSH2 0xA3B JUMPI PUSH1 0x40 MLOAD PUSH32 0x8C379A000000000000000000000000000000000000000000000000000000000 DUP2 MSTORE PUSH1 0x4 ADD PUSH2 0xA32 SWAP1 PUSH2 0x1DF5 JUMP JUMPDEST PUSH1 0x40 MLOAD DUP1 SWAP2 SUB SWAP1 REVERT JUMPDEST PUSH1 0x40 MLOAD DUP1 PUSH1 0x80 ADD PUSH1 0x40 MSTORE DUP1 CALLER PUSH20 0xFFFFFFFFFFFFFFFFFFFFFFFFFFFFFFFFFFFFFFFF AND DUP2 MSTORE PUSH1 0x20 ADD DUP5 DUP2 MSTORE PUSH1 0x20 ADD DUP4 DUP2 MSTORE PUSH1 0x20 ADD CALLVALUE DUP2 MSTORE POP PUSH1 0x7 PUSH0 CALLER PUSH20 0xFFFFFFFFFFFFFFFFFFFFFFFFFFFFFFFFFFFFFFFF AND PUSH20 0xFFFFFFFFFFFFFFFFFFFFFFFFFFFFFFFFFFFFFFFF AND DUP2 MSTORE PUSH1 0x20 ADD SWAP1 DUP2 MSTORE PUSH1 0x20 ADD PUSH0 KECCAK256 PUSH0 DUP3 ADD MLOAD DUP2 PUSH0 ADD PUSH0 PUSH2 0x100 EXP DUP2 SLOAD DUP2 PUSH20 0xFFFFFFFFFFFFFFFFFFFFFFFFFFFFFFFFFFFFFFFF MUL NOT AND SWAP1 DUP4 PUSH20 0xFFFFFFFFFFFFFFFFFFFFFFFFFFFFFFFFFFFFFFFF AND MUL OR SWAP1 SSTORE POP PUSH1 0x20 DUP3 ADD MLOAD DUP2 PUSH1 0x1 ADD SSTORE PUSH1 0x40 DUP3 ADD MLOAD DUP2 PUSH1 0x2 ADD SSTORE PUSH1 0x60 DUP3 ADD MLOAD DUP2 PUSH1 0x3 ADD SSTORE SWAP1 POP POP PUSH1 0x8 CALLER SWAP1 DUP1 PUSH1 0x1 DUP2 SLOAD ADD DUP1 DUP3 SSTORE DUP1 SWAP2 POP POP PUSH1 0x1 SWAP1 SUB SWAP1 PUSH0 MSTORE PUSH1 0x20 PUSH0 KECCAK256 ADD PUSH0 SWAP1 SWAP2 SWAP1 SWAP2 SWAP1 SWAP2 PUSH2 0x100 EXP DUP2 SLOAD DUP2 PUSH20 0xFFFFFFFFFFFFFFFFFFFFFFFFFFFFFFFFFFFFFFFF MUL NOT AND SWAP1 DUP4 PUSH20 0xFFFFFFFFFFFFFFFFFFFFFFFFFFFFFFFFFFFFFFFF AND MUL OR SWAP1 SSTORE POP POP POP POP JUMP JUMPDEST PUSH1 0xD DUP2 DUP2 SLOAD DUP2 LT PUSH2 0xB88 JUMPI PUSH0 DUP1 REVERT JUMPDEST SWAP1 PUSH0 MSTORE PUSH1 0x20 PUSH0 KECCAK256 ADD PUSH0 SWAP2 POP SWAP1 POP SLOAD DUP2 JUMP JUMPDEST DUP3 PUSH20 0xFFFFFFFFFFFFFFFFFFFFFFFFFFFFFFFFFFFFFFFF AND PUSH1 0x7 PUSH0 DUP6 PUSH20 0xFFFFFFFFFFFFFFFFFFFFFFFFFFFFFFFFFFFFFFFF AND PUSH20 0xFFFFFFFFFFFFFFFFFFFFFFFFFFFFFFFFFFFFFFFF AND DUP2 MSTORE PUSH1 0x20 ADD SWAP1 DUP2 MSTORE PUSH1 0x20 ADD PUSH0 KECCAK256 PUSH0 ADD PUSH0 SWAP1 SLOAD SWAP1 PUSH2 0x100 EXP SWAP1 DIV PUSH20 0xFFFFFFFFFFFFFFFFFFFFFFFFFFFFFFFFFFFFFFFF AND PUSH20 0xFFFFFFFFFFFFFFFFFFFFFFFFFFFFFFFFFFFFFFFF AND EQ DUP1 ISZERO PUSH2 0xC71 JUMPI POP DUP2 PUSH1 0x7 PUSH0 DUP6 PUSH20 0xFFFFFFFFFFFFFFFFFFFFFFFFFFFFFFFFFFFFFFFF AND PUSH20 0xFFFFFFFFFFFFFFFFFFFFFFFFFFFFFFFFFFFFFFFF AND DUP2 MSTORE PUSH1 0x20 ADD SWAP1 DUP2 MSTORE PUSH1 0x20 ADD PUSH0 KECCAK256 PUSH1 0x1 ADD SLOAD EQ JUMPDEST DUP1 ISZERO PUSH2 0xCBC JUMPI POP DUP1 PUSH1 0x7 PUSH0 DUP6 PUSH20 0xFFFFFFFFFFFFFFFFFFFFFFFFFFFFFFFFFFFFFFFF AND PUSH20 0xFFFFFFFFFFFFFFFFFFFFFFFFFFFFFFFFFFFFFFFF AND DUP2 MSTORE PUSH1 0x20 ADD SWAP1 DUP2 MSTORE PUSH1 0x20 ADD PUSH0 KECCAK256 PUSH1 0x2 ADD SLOAD EQ JUMPDEST PUSH2 0xCFB JUMPI PUSH1 0x40 MLOAD PUSH32 0x8C379A000000000000000000000000000000000000000000000000000000000 DUP2 MSTORE PUSH1 0x4 ADD PUSH2 0xCF2 SWAP1 PUSH2 0x1E5D JUMP JUMPDEST PUSH1 0x40 MLOAD DUP1 SWAP2 SUB SWAP1 REVERT JUMPDEST PUSH0 PUSH1 0xA DUP1 SLOAD SWAP1 POP SWAP1 POP PUSH1 0x40 MLOAD DUP1 PUSH1 0x80 ADD PUSH1 0x40 MSTORE DUP1 DUP6 PUSH20 0xFFFFFFFFFFFFFFFFFFFFFFFFFFFFFFFFFFFFFFFF AND DUP2 MSTORE PUSH1 0x20 ADD DUP5 DUP2 MSTORE PUSH1 0x20 ADD DUP4 DUP2 MSTORE PUSH1 0x20 ADD PUSH1 0x7 PUSH0 DUP8 PUSH20 0xFFFFFFFFFFFFFFFFFFFFFFFFFFFFFFFFFFFFFFFF AND PUSH20 0xFFFFFFFFFFFFFFFFFFFFFFFFFFFFFFFFFFFFFFFF AND DUP2 MSTORE PUSH1 0x20 ADD SWAP1 DUP2 MSTORE PUSH1 0x20 ADD PUSH0 KECCAK256 PUSH1 0x3 ADD SLOAD DUP2 MSTORE POP PUSH1 0x9 PUSH0 DUP4 DUP2 MSTORE PUSH1 0x20 ADD SWAP1 DUP2 MSTORE PUSH1 0x20 ADD PUSH0 KECCAK256 PUSH0 DUP3 ADD MLOAD DUP2 PUSH0 ADD PUSH0 PUSH2 0x100 EXP DUP2 SLOAD DUP2 PUSH20 0xFFFFFFFFFFFFFFFFFFFFFFFFFFFFFFFFFFFFFFFF MUL NOT AND SWAP1 DUP4 PUSH20 0xFFFFFFFFFFFFFFFFFFFFFFFFFFFFFFFFFFFFFFFF AND MUL OR SWAP1 SSTORE POP PUSH1 0x20 DUP3 ADD MLOAD DUP2 PUSH1 0x1 ADD SSTORE PUSH1 0x40 DUP3 ADD MLOAD DUP2 PUSH1 0x2 ADD SSTORE PUSH1 0x60 DUP3 ADD MLOAD DUP2 PUSH1 0x3 ADD SSTORE SWAP1 POP POP PUSH1 0xA DUP5 SWAP1 DUP1 PUSH1 0x1 DUP2 SLOAD ADD DUP1 DUP3 SSTORE DUP1 SWAP2 POP POP PUSH1 0x1 SWAP1 SUB SWAP1 PUSH0 MSTORE PUSH1 0x20 PUSH0 KECCAK256 ADD PUSH0 SWAP1 SWAP2 SWAP1 SWAP2 SWAP1 SWAP2 PUSH2 0x100 EXP DUP2 SLOAD DUP2 PUSH20 0xFFFFFFFFFFFFFFFFFFFFFFFFFFFFFFFFFFFFFFFF MUL NOT AND SWAP1 DUP4 PUSH20 0xFFFFFFFFFFFFFFFFFFFFFFFFFFFFFFFFFFFFFFFF AND MUL OR SWAP1 SSTORE POP PUSH1 0xB DUP4 SWAP1 DUP1 PUSH1 0x1 DUP2 SLOAD ADD DUP1 DUP3 SSTORE DUP1 SWAP2 POP POP PUSH1 0x1 SWAP1 SUB SWAP1 PUSH0 MSTORE PUSH1 0x20 PUSH0 KECCAK256 ADD PUSH0 SWAP1 SWAP2 SWAP1 SWAP2 SWAP1 SWAP2 POP SSTORE PUSH1 0xC DUP3 SWAP1 DUP1 PUSH1 0x1 DUP2 SLOAD ADD DUP1 DUP3 SSTORE DUP1 SWAP2 POP POP PUSH1 0x1 SWAP1 SUB SWAP1 PUSH0 MSTORE PUSH1 0x20 PUSH0 KECCAK256 ADD PUSH0 SWAP1 SWAP2 SWAP1 SWAP2 SWAP1 SWAP2 POP SSTORE PUSH1 0xD PUSH1 0x7 PUSH0 DUP7 PUSH20 0xFFFFFFFFFFFFFFFFFFFFFFFFFFFFFFFFFFFFFFFF AND PUSH20 0xFFFFFFFFFFFFFFFFFFFFFFFFFFFFFFFFFFFFFFFF AND DUP2 MSTORE PUSH1 0x20 ADD SWAP1 DUP2 MSTORE PUSH1 0x20 ADD PUSH0 KECCAK256 PUSH1 0x3 ADD SLOAD SWAP1 DUP1 PUSH1 0x1 DUP2 SLOAD ADD DUP1 DUP3 SSTORE DUP1 SWAP2 POP POP PUSH1 0x1 SWAP1 SUB SWAP1 PUSH0 MSTORE PUSH1 0x20 PUSH0 KECCAK256 ADD PUSH0 SWAP1 SWAP2 SWAP1 SWAP2 SWAP1 SWAP2 POP SSTORE PUSH1 0x7 PUSH0 DUP6 PUSH20 0xFFFFFFFFFFFFFFFFFFFFFFFFFFFFFFFFFFFFFFFF AND PUSH20 0xFFFFFFFFFFFFFFFFFFFFFFFFFFFFFFFFFFFFFFFF AND DUP2 MSTORE PUSH1 0x20 ADD SWAP1 DUP2 MSTORE PUSH1 0x20 ADD PUSH0 KECCAK256 PUSH0 PUSH0 DUP3 ADD PUSH0 PUSH2 0x100 EXP DUP2 SLOAD SWAP1 PUSH20 0xFFFFFFFFFFFFFFFFFFFFFFFFFFFFFFFFFFFFFFFF MUL NOT AND SWAP1 SSTORE PUSH1 0x1 DUP3 ADD PUSH0 SWAP1 SSTORE PUSH1 0x2 DUP3 ADD PUSH0 SWAP1 SSTORE PUSH1 0x3 DUP3 ADD PUSH0 SWAP1 SSTORE POP POP POP POP POP POP JUMP JUMPDEST PUSH1 0xC DUP2 DUP2 SLOAD DUP2 LT PUSH2 0xF92 JUMPI PUSH0 DUP1 REVERT JUMPDEST SWAP1 PUSH0 MSTORE PUSH1 0x20 PUSH0 KECCAK256 ADD PUSH0 SWAP2 POP SWAP1 POP SLOAD DUP2 JUMP JUMPDEST PUSH1 0x1 PUSH0 SWAP1 SLOAD SWAP1 PUSH2 0x100 EXP SWAP1 DIV PUSH20 0xFFFFFFFFFFFFFFFFFFFFFFFFFFFFFFFFFFFFFFFF AND PUSH20 0xFFFFFFFFFFFFFFFFFFFFFFFFFFFFFFFFFFFFFFFF AND CALLER PUSH20 0xFFFFFFFFFFFFFFFFFFFFFFFFFFFFFFFFFFFFFFFF AND EQ PUSH2 0x1032 JUMPI PUSH1 0x40 MLOAD PUSH32 0x8C379A000000000000000000000000000000000000000000000000000000000 DUP2 MSTORE PUSH1 0x4 ADD PUSH2 0x1029 SWAP1 PUSH2 0x1EC5 JUMP JUMPDEST PUSH1 0x40 MLOAD DUP1 SWAP2 SUB SWAP1 REVERT JUMPDEST PUSH0 PUSH0 SWAP1 POP JUMPDEST PUSH1 0x4 DUP1 SLOAD SWAP1 POP DUP2 LT ISZERO PUSH2 0x13BE JUMPI PUSH0 PUSH0 SWAP1 POP PUSH0 PUSH0 SWAP1 POP PUSH0 PUSH0 SWAP1 POP PUSH0 PUSH0 SWAP1 POP JUMPDEST PUSH1 0xA DUP1 SLOAD SWAP1 POP DUP2 LT ISZERO PUSH2 0x1367 JUMPI PUSH1 0x6 DUP6 DUP2 SLOAD DUP2 LT PUSH2 0x1076 JUMPI PUSH2 0x1075 PUSH2 0x1D7E JUMP JUMPDEST JUMPDEST SWAP1 PUSH0 MSTORE PUSH1 0x20 PUSH0 KECCAK256 ADD SLOAD PUSH1 0xC DUP3 DUP2 SLOAD DUP2 LT PUSH2 0x1093 JUMPI PUSH2 0x1092 PUSH2 0x1D7E JUMP JUMPDEST JUMPDEST SWAP1 PUSH0 MSTORE PUSH1 0x20 PUSH0 KECCAK256 ADD SLOAD LT ISZERO PUSH2 0x10AB JUMPI PUSH1 0x1 SWAP4 POP PUSH2 0x1367 JUMP JUMPDEST PUSH0 PUSH1 0xB DUP3 DUP2 SLOAD DUP2 LT PUSH2 0x10C0 JUMPI PUSH2 0x10BF PUSH2 0x1D7E JUMP JUMPDEST JUMPDEST SWAP1 PUSH0 MSTORE PUSH1 0x20 PUSH0 KECCAK256 ADD SLOAD SUB ISZERO PUSH2 0x135A JUMPI PUSH1 0xB DUP2 DUP2 SLOAD DUP2 LT PUSH2 0x10E3 JUMPI PUSH2 0x10E2 PUSH2 0x1D7E JUMP JUMPDEST JUMPDEST SWAP1 PUSH0 MSTORE PUSH1 0x20 PUSH0 KECCAK256 ADD SLOAD PUSH1 0x5 DUP7 DUP2 SLOAD DUP2 LT PUSH2 0x1100 JUMPI PUSH2 0x10FF PUSH2 0x1D7E JUMP JUMPDEST JUMPDEST SWAP1 PUSH0 MSTORE PUSH1 0x20 PUSH0 KECCAK256 ADD SLOAD LT ISZERO PUSH2 0x1226 JUMPI PUSH0 SLOAD PUSH1 0x2 PUSH2 0x111D SWAP2 SWAP1 PUSH2 0x1C78 JUMP JUMPDEST PUSH8 0xDE0B6B3A7640000 PUSH1 0x5 DUP8 DUP2 SLOAD DUP2 LT PUSH2 0x113A JUMPI PUSH2 0x1139 PUSH2 0x1D7E JUMP JUMPDEST JUMPDEST SWAP1 PUSH0 MSTORE PUSH1 0x20 PUSH0 KECCAK256 ADD SLOAD PUSH1 0x6 DUP9 DUP2 SLOAD DUP2 LT PUSH2 0x1157 JUMPI PUSH2 0x1156 PUSH2 0x1D7E JUMP JUMPDEST JUMPDEST SWAP1 PUSH0 MSTORE PUSH1 0x20 PUSH0 KECCAK256 ADD SLOAD PUSH1 0xC DUP6 DUP2 SLOAD DUP2 LT PUSH2 0x1174 JUMPI PUSH2 0x1173 PUSH2 0x1D7E JUMP JUMPDEST JUMPDEST SWAP1 PUSH0 MSTORE PUSH1 0x20 PUSH0 KECCAK256 ADD SLOAD PUSH2 0x1187 SWAP2 SWAP1 PUSH2 0x1EE3 JUMP JUMPDEST PUSH2 0x1191 SWAP2 SWAP1 PUSH2 0x1C78 JUMP JUMPDEST PUSH2 0x119B SWAP2 SWAP1 PUSH2 0x1C78 JUMP JUMPDEST PUSH2 0x11A5 SWAP2 SWAP1 PUSH2 0x1CE6 JUMP JUMPDEST DUP3 PUSH2 0x11B0 SWAP2 SWAP1 PUSH2 0x1EE3 JUMP JUMPDEST SWAP2 POP PUSH1 0x5 DUP6 DUP2 SLOAD DUP2 LT PUSH2 0x11C6 JUMPI PUSH2 0x11C5 PUSH2 0x1D7E JUMP JUMPDEST JUMPDEST SWAP1 PUSH0 MSTORE PUSH1 0x20 PUSH0 KECCAK256 ADD SLOAD PUSH1 0xB DUP3 DUP2 SLOAD DUP2 LT PUSH2 0x11E3 JUMPI PUSH2 0x11E2 PUSH2 0x1D7E JUMP JUMPDEST JUMPDEST SWAP1 PUSH0 MSTORE PUSH1 0x20 PUSH0 KECCAK256 ADD PUSH0 DUP3 DUP3 SLOAD PUSH2 0x11F9 SWAP2 SWAP1 PUSH2 0x1F16 JUMP JUMPDEST SWAP3 POP POP DUP2 SWAP1 SSTORE POP PUSH0 PUSH1 0x5 DUP7 DUP2 SLOAD DUP2 LT PUSH2 0x1215 JUMPI PUSH2 0x1214 PUSH2 0x1D7E JUMP JUMPDEST JUMPDEST SWAP1 PUSH0 MSTORE PUSH1 0x20 PUSH0 KECCAK256 ADD DUP2 SWAP1 SSTORE POP PUSH2 0x1367 JUMP JUMPDEST PUSH0 SLOAD PUSH1 0x2 PUSH2 0x1234 SWAP2 SWAP1 PUSH2 0x1C78 JUMP JUMPDEST PUSH8 0xDE0B6B3A7640000 PUSH1 0xB DUP4 DUP2 SLOAD DUP2 LT PUSH2 0x1251 JUMPI PUSH2 0x1250 PUSH2 0x1D7E JUMP JUMPDEST JUMPDEST SWAP1 PUSH0 MSTORE PUSH1 0x20 PUSH0 KECCAK256 ADD SLOAD PUSH1 0x6 DUP9 DUP2 SLOAD DUP2 LT PUSH2 0x126E JUMPI PUSH2 0x126D PUSH2 0x1D7E JUMP JUMPDEST JUMPDEST SWAP1 PUSH0 MSTORE PUSH1 0x20 PUSH0 KECCAK256 ADD SLOAD PUSH1 0xC DUP6 DUP2 SLOAD DUP2 LT PUSH2 0x128B JUMPI PUSH2 0x128A PUSH2 0x1D7E JUMP JUMPDEST JUMPDEST SWAP1 PUSH0 MSTORE PUSH1 0x20 PUSH0 KECCAK256 ADD SLOAD PUSH2 0x129E SWAP2 SWAP1 PUSH2 0x1EE3 JUMP JUMPDEST PUSH2 0x12A8 SWAP2 SWAP1 PUSH2 0x1C78 JUMP JUMPDEST PUSH2 0x12B2 SWAP2 SWAP1 PUSH2 0x1C78 JUMP JUMPDEST PUSH2 0x12BC SWAP2 SWAP1 PUSH2 0x1CE6 JUMP JUMPDEST DUP3 PUSH2 0x12C7 SWAP2 SWAP1 PUSH2 0x1EE3 JUMP JUMPDEST SWAP2 POP PUSH1 0xB DUP2 DUP2 SLOAD DUP2 LT PUSH2 0x12DD JUMPI PUSH2 0x12DC PUSH2 0x1D7E JUMP JUMPDEST JUMPDEST SWAP1 PUSH0 MSTORE PUSH1 0x20 PUSH0 KECCAK256 ADD SLOAD PUSH1 0x5 DUP7 DUP2 SLOAD DUP2 LT PUSH2 0x12FA JUMPI PUSH2 0x12F9 PUSH2 0x1D7E JUMP JUMPDEST JUMPDEST SWAP1 PUSH0 MSTORE PUSH1 0x20 PUSH0 KECCAK256 ADD PUSH0 DUP3 DUP3 SLOAD PUSH2 0x1310 SWAP2 SWAP1 PUSH2 0x1F16 JUMP JUMPDEST SWAP3 POP POP DUP2 SWAP1 SSTORE POP PUSH0 PUSH1 0xB DUP3 DUP2 SLOAD DUP2 LT PUSH2 0x132C JUMPI PUSH2 0x132B PUSH2 0x1D7E JUMP JUMPDEST JUMPDEST SWAP1 PUSH0 MSTORE PUSH1 0x20 PUSH0 KECCAK256 ADD DUP2 SWAP1 SSTORE POP PUSH1 0x1 PUSH1 0xA DUP1 SLOAD SWAP1 POP PUSH2 0x134A SWAP2 SWAP1 PUSH2 0x1F16 JUMP JUMPDEST DUP2 SUB PUSH2 0x1359 JUMPI PUSH1 0x1 SWAP3 POP PUSH2 0x1367 JUMP JUMPDEST JUMPDEST DUP1 DUP1 PUSH1 0x1 ADD SWAP2 POP POP PUSH2 0x1055 JUMP JUMPDEST POP PUSH0 DUP4 GT ISZERO PUSH2 0x1378 JUMPI POP POP POP PUSH2 0x13BE JUMP JUMPDEST PUSH1 0xE DUP2 SWAP1 DUP1 PUSH1 0x1 DUP2 SLOAD ADD DUP1 DUP3 SSTORE DUP1 SWAP2 POP POP PUSH1 0x1 SWAP1 SUB SWAP1 PUSH0 MSTORE PUSH1 0x20 PUSH0 KECCAK256 ADD PUSH0 SWAP1 SWAP2 SWAP1 SWAP2 SWAP1 SWAP2 POP SSTORE PUSH0 DUP3 GT ISZERO PUSH2 0x13AE JUMPI POP POP POP PUSH2 0x13BE JUMP JUMPDEST POP POP POP DUP1 DUP1 PUSH1 0x1 ADD SWAP2 POP POP PUSH2 0x1037 JUMP JUMPDEST POP JUMP JUMPDEST PUSH0 PUSH0 SWAP1 POP PUSH0 PUSH0 SWAP1 POP JUMPDEST PUSH1 0x2 DUP1 SLOAD SWAP1 POP DUP2 LT ISZERO PUSH2 0x14BE JUMPI DUP5 PUSH20 0xFFFFFFFFFFFFFFFFFFFFFFFFFFFFFFFFFFFFFFFF AND PUSH1 0x2 DUP3 DUP2 SLOAD DUP2 LT PUSH2 0x1402 JUMPI PUSH2 0x1401 PUSH2 0x1D7E JUMP JUMPDEST JUMPDEST SWAP1 PUSH0 MSTORE PUSH1 0x20 PUSH0 KECCAK256 SWAP1 PUSH1 0x3 MUL ADD PUSH0 ADD PUSH0 SWAP1 SLOAD SWAP1 PUSH2 0x100 EXP SWAP1 DIV PUSH20 0xFFFFFFFFFFFFFFFFFFFFFFFFFFFFFFFFFFFFFFFF AND PUSH20 0xFFFFFFFFFFFFFFFFFFFFFFFFFFFFFFFFFFFFFFFF AND EQ DUP1 ISZERO PUSH2 0x1475 JUMPI POP DUP4 PUSH1 0x2 DUP3 DUP2 SLOAD DUP2 LT PUSH2 0x1463 JUMPI PUSH2 0x1462 PUSH2 0x1D7E JUMP JUMPDEST JUMPDEST SWAP1 PUSH0 MSTORE PUSH1 0x20 PUSH0 KECCAK256 SWAP1 PUSH1 0x3 MUL ADD PUSH1 0x1 ADD SLOAD EQ JUMPDEST DUP1 ISZERO PUSH2 0x14A3 JUMPI POP DUP3 PUSH1 0x2 DUP3 DUP2 SLOAD DUP2 LT PUSH2 0x1491 JUMPI PUSH2 0x1490 PUSH2 0x1D7E JUMP JUMPDEST JUMPDEST SWAP1 PUSH0 MSTORE PUSH1 0x20 PUSH0 KECCAK256 SWAP1 PUSH1 0x3 MUL ADD PUSH1 0x2 ADD SLOAD EQ JUMPDEST ISZERO PUSH2 0x14B1 JUMPI PUSH1 0x1 SWAP2 POP PUSH2 0x14BE JUMP JUMPDEST DUP1 DUP1 PUSH1 0x1 ADD SWAP2 POP POP PUSH2 0x13CA JUMP JUMPDEST POP DUP1 PUSH2 0x14FF JUMPI PUSH1 0x40 MLOAD PUSH32 0x8C379A000000000000000000000000000000000000000000000000000000000 DUP2 MSTORE PUSH1 0x4 ADD PUSH2 0x14F6 SWAP1 PUSH2 0x1F93 JUMP JUMPDEST PUSH1 0x40 MLOAD DUP1 SWAP2 SUB SWAP1 REVERT JUMPDEST PUSH0 PUSH1 0x4 DUP1 SLOAD SWAP1 POP SWAP1 POP PUSH1 0x40 MLOAD DUP1 PUSH1 0x60 ADD PUSH1 0x40 MSTORE DUP1 DUP7 PUSH20 0xFFFFFFFFFFFFFFFFFFFFFFFFFFFFFFFFFFFFFFFF AND DUP2 MSTORE PUSH1 0x20 ADD DUP6 DUP2 MSTORE PUSH1 0x20 ADD DUP5 DUP2 MSTORE POP PUSH1 0x3 PUSH0 DUP4 DUP2 MSTORE PUSH1 0x20 ADD SWAP1 DUP2 MSTORE PUSH1 0x20 ADD PUSH0 KECCAK256 PUSH0 DUP3 ADD MLOAD DUP2 PUSH0 ADD PUSH0 PUSH2 0x100 EXP DUP2 SLOAD DUP2 PUSH20 0xFFFFFFFFFFFFFFFFFFFFFFFFFFFFFFFFFFFFFFFF MUL NOT AND SWAP1 DUP4 PUSH20 0xFFFFFFFFFFFFFFFFFFFFFFFFFFFFFFFFFFFFFFFF AND MUL OR SWAP1 SSTORE POP PUSH1 0x20 DUP3 ADD MLOAD DUP2 PUSH1 0x1 ADD SSTORE PUSH1 0x40 DUP3 ADD MLOAD DUP2 PUSH1 0x2 ADD SSTORE SWAP1 POP POP PUSH1 0x4 DUP6 SWAP1 DUP1 PUSH1 0x1 DUP2 SLOAD ADD DUP1 DUP3 SSTORE DUP1 SWAP2 POP POP PUSH1 0x1 SWAP1 SUB SWAP1 PUSH0 MSTORE PUSH1 0x20 PUSH0 KECCAK256 ADD PUSH0 SWAP1 SWAP2 SWAP1 SWAP2 SWAP1 SWAP2 PUSH2 0x100 EXP DUP2 SLOAD DUP2 PUSH20 0xFFFFFFFFFFFFFFFFFFFFFFFFFFFFFFFFFFFFFFFF MUL NOT AND SWAP1 DUP4 PUSH20 0xFFFFFFFFFFFFFFFFFFFFFFFFFFFFFFFFFFFFFFFF AND MUL OR SWAP1 SSTORE POP PUSH1 0x5 DUP5 SWAP1 DUP1 PUSH1 0x1 DUP2 SLOAD ADD DUP1 DUP3 SSTORE DUP1 SWAP2 POP POP PUSH1 0x1 SWAP1 SUB SWAP1 PUSH0 MSTORE PUSH1 0x20 PUSH0 KECCAK256 ADD PUSH0 SWAP1 SWAP2 SWAP1 SWAP2 SWAP1 SWAP2 POP SSTORE PUSH1 0x6 DUP4 SWAP1 DUP1 PUSH1 0x1 DUP2 SLOAD ADD DUP1 DUP3 SSTORE DUP1 SWAP2 POP POP PUSH1 0x1 SWAP1 SUB SWAP1 PUSH0 MSTORE PUSH1 0x20 PUSH0 KECCAK256 ADD PUSH0 SWAP1 SWAP2 SWAP1 SWAP2 SWAP1 SWAP2 POP SSTORE PUSH1 0x2 PUSH0 PUSH2 0x165E SWAP2 SWAP1 PUSH2 0x192B JUMP JUMPDEST POP POP POP POP POP JUMP JUMPDEST PUSH1 0x9 PUSH1 0x20 MSTORE DUP1 PUSH0 MSTORE PUSH1 0x40 PUSH0 KECCAK256 PUSH0 SWAP2 POP SWAP1 POP DUP1 PUSH0 ADD PUSH0 SWAP1 SLOAD SWAP1 PUSH2 0x100 EXP SWAP1 DIV PUSH20 0xFFFFFFFFFFFFFFFFFFFFFFFFFFFFFFFFFFFFFFFF AND SWAP1 DUP1 PUSH1 0x1 ADD SLOAD SWAP1 DUP1 PUSH1 0x2 ADD SLOAD SWAP1 DUP1 PUSH1 0x3 ADD SLOAD SWAP1 POP DUP5 JUMP JUMPDEST PUSH1 0xA DUP2 DUP2 SLOAD DUP2 LT PUSH2 0x16BF JUMPI PUSH0 DUP1 REVERT JUMPDEST SWAP1 PUSH0 MSTORE PUSH1 0x20 PUSH0 KECCAK256 ADD PUSH0 SWAP2 POP SLOAD SWAP1 PUSH2 0x100 EXP SWAP1 DIV PUSH20 0xFFFFFFFFFFFFFFFFFFFFFFFFFFFFFFFFFFFFFFFF AND DUP2 JUMP JUMPDEST PUSH1 0xE DUP2 DUP2 SLOAD DUP2 LT PUSH2 0x16FA JUMPI PUSH0 DUP1 REVERT JUMPDEST SWAP1 PUSH0 MSTORE PUSH1 0x20 PUSH0 KECCAK256 ADD PUSH0 SWAP2 POP SWAP1 POP SLOAD DUP2 JUMP JUMPDEST PUSH1 0x6 DUP2 DUP2 SLOAD DUP2 LT PUSH2 0x171A JUMPI PUSH0 DUP1 REVERT JUMPDEST SWAP1 PUSH0 MSTORE PUSH1 0x20 PUSH0 KECCAK256 ADD PUSH0 SWAP2 POP SWAP1 POP SLOAD DUP2 JUMP JUMPDEST PUSH1 0x2 DUP2 DUP2 SLOAD DUP2 LT PUSH2 0x173A JUMPI PUSH0 DUP1 REVERT JUMPDEST SWAP1 PUSH0 MSTORE PUSH1 0x20 PUSH0 KECCAK256 SWAP1 PUSH1 0x3 MUL ADD PUSH0 SWAP2 POP SWAP1 POP DUP1 PUSH0 ADD PUSH0 SWAP1 SLOAD SWAP1 PUSH2 0x100 EXP SWAP1 DIV PUSH20 0xFFFFFFFFFFFFFFFFFFFFFFFFFFFFFFFFFFFFFFFF AND SWAP1 DUP1 PUSH1 0x1 ADD SLOAD SWAP1 DUP1 PUSH1 0x2 ADD SLOAD SWAP1 POP DUP4 JUMP JUMPDEST PUSH1 0x1 PUSH0 SWAP1 SLOAD SWAP1 PUSH2 0x100 EXP SWAP1 DIV PUSH20 0xFFFFFFFFFFFFFFFFFFFFFFFFFFFFFFFFFFFFFFFF AND PUSH20 0xFFFFFFFFFFFFFFFFFFFFFFFFFFFFFFFFFFFFFFFF AND CALLER PUSH20 0xFFFFFFFFFFFFFFFFFFFFFFFFFFFFFFFFFFFFFFFF AND EQ PUSH2 0x180E JUMPI PUSH1 0x40 MLOAD PUSH32 0x8C379A000000000000000000000000000000000000000000000000000000000 DUP2 MSTORE PUSH1 0x4 ADD PUSH2 0x1805 SWAP1 PUSH2 0x1FFB JUMP JUMPDEST PUSH1 0x40 MLOAD DUP1 SWAP2 SUB SWAP1 REVERT JUMPDEST PUSH0 PUSH0 SWAP1 POP JUMPDEST PUSH1 0xA DUP1 SLOAD SWAP1 POP DUP2 LT ISZERO PUSH2 0x18ED JUMPI PUSH0 PUSH1 0xB DUP3 DUP2 SLOAD DUP2 LT PUSH2 0x1835 JUMPI PUSH2 0x1834 PUSH2 0x1D7E JUMP JUMPDEST JUMPDEST SWAP1 PUSH0 MSTORE PUSH1 0x20 PUSH0 KECCAK256 ADD SLOAD GT ISZERO PUSH2 0x18E0 JUMPI PUSH1 0xA DUP2 DUP2 SLOAD DUP2 LT PUSH2 0x1858 JUMPI PUSH2 0x1857 PUSH2 0x1D7E JUMP JUMPDEST JUMPDEST SWAP1 PUSH0 MSTORE PUSH1 0x20 PUSH0 KECCAK256 ADD PUSH0 SWAP1 SLOAD SWAP1 PUSH2 0x100 EXP SWAP1 DIV PUSH20 0xFFFFFFFFFFFFFFFFFFFFFFFFFFFFFFFFFFFFFFFF AND PUSH20 0xFFFFFFFFFFFFFFFFFFFFFFFFFFFFFFFFFFFFFFFF AND PUSH2 0x8FC PUSH1 0xD DUP4 DUP2 SLOAD DUP2 LT PUSH2 0x18AD JUMPI PUSH2 0x18AC PUSH2 0x1D7E JUMP JUMPDEST JUMPDEST SWAP1 PUSH0 MSTORE PUSH1 0x20 PUSH0 KECCAK256 ADD SLOAD SWAP1 DUP2 ISZERO MUL SWAP1 PUSH1 0x40 MLOAD PUSH0 PUSH1 0x40 MLOAD DUP1 DUP4 SUB DUP2 DUP6 DUP9 DUP9 CALL SWAP4 POP POP POP POP ISZERO DUP1 ISZERO PUSH2 0x18DE JUMPI RETURNDATASIZE PUSH0 PUSH0 RETURNDATACOPY RETURNDATASIZE PUSH0 REVERT JUMPDEST POP JUMPDEST DUP1 DUP1 PUSH1 0x1 ADD SWAP2 POP POP PUSH2 0x1813 JUMP JUMPDEST POP JUMP JUMPDEST PUSH1 0x4 DUP2 DUP2 SLOAD DUP2 LT PUSH2 0x18FF JUMPI PUSH0 DUP1 REVERT JUMPDEST SWAP1 PUSH0 MSTORE PUSH1 0x20 PUSH0 KECCAK256 ADD PUSH0 SWAP2 POP SLOAD SWAP1 PUSH2 0x100 EXP SWAP1 DIV PUSH20 0xFFFFFFFFFFFFFFFFFFFFFFFFFFFFFFFFFFFFFFFF AND DUP2 JUMP JUMPDEST POP DUP1 SLOAD PUSH0 DUP3 SSTORE PUSH1 0x3 MUL SWAP1 PUSH0 MSTORE PUSH1 0x20 PUSH0 KECCAK256 SWAP1 DUP2 ADD SWAP1 PUSH2 0x1949 SWAP2 SWAP1 PUSH2 0x194C JUMP JUMPDEST POP JUMP JUMPDEST JUMPDEST DUP1 DUP3 GT ISZERO PUSH2 0x1992 JUMPI PUSH0 PUSH0 DUP3 ADD PUSH0 PUSH2 0x100 EXP DUP2 SLOAD SWAP1 PUSH20 0xFFFFFFFFFFFFFFFFFFFFFFFFFFFFFFFFFFFFFFFF MUL NOT AND SWAP1 SSTORE PUSH1 0x1 DUP3 ADD PUSH0 SWAP1 SSTORE PUSH1 0x2 DUP3 ADD PUSH0 SWAP1 SSTORE POP PUSH1 0x3 ADD PUSH2 0x194D JUMP JUMPDEST POP SWAP1 JUMP JUMPDEST PUSH0 PUSH0 REVERT JUMPDEST PUSH0 DUP2 SWAP1 POP SWAP2 SWAP1 POP JUMP JUMPDEST PUSH2 0x19AC DUP2 PUSH2 0x199A JUMP JUMPDEST DUP2 EQ PUSH2 0x19B6 JUMPI PUSH0 PUSH0 REVERT JUMPDEST POP JUMP JUMPDEST PUSH0 DUP2 CALLDATALOAD SWAP1 POP PUSH2 0x19C7 DUP2 PUSH2 0x19A3 JUMP JUMPDEST SWAP3 SWAP2 POP POP JUMP JUMPDEST PUSH0 PUSH1 0x20 DUP3 DUP5 SUB SLT ISZERO PUSH2 0x19E2 JUMPI PUSH2 0x19E1 PUSH2 0x1996 JUMP JUMPDEST JUMPDEST PUSH0 PUSH2 0x19EF DUP5 DUP3 DUP6 ADD PUSH2 0x19B9 JUMP JUMPDEST SWAP2 POP POP SWAP3 SWAP2 POP POP JUMP JUMPDEST PUSH0 PUSH20 0xFFFFFFFFFFFFFFFFFFFFFFFFFFFFFFFFFFFFFFFF DUP3 AND SWAP1 POP SWAP2 SWAP1 POP JUMP JUMPDEST PUSH0 PUSH2 0x1A21 DUP3 PUSH2 0x19F8 JUMP JUMPDEST SWAP1 POP SWAP2 SWAP1 POP JUMP JUMPDEST PUSH2 0x1A31 DUP2 PUSH2 0x1A17 JUMP JUMPDEST DUP3 MSTORE POP POP JUMP JUMPDEST PUSH0 PUSH1 0x20 DUP3 ADD SWAP1 POP PUSH2 0x1A4A PUSH0 DUP4 ADD DUP5 PUSH2 0x1A28 JUMP JUMPDEST SWAP3 SWAP2 POP POP JUMP JUMPDEST PUSH0 PUSH0 PUSH1 0x40 DUP4 DUP6 SUB SLT ISZERO PUSH2 0x1A66 JUMPI PUSH2 0x1A65 PUSH2 0x1996 JUMP JUMPDEST JUMPDEST PUSH0 PUSH2 0x1A73 DUP6 DUP3 DUP7 ADD PUSH2 0x19B9 JUMP JUMPDEST SWAP3 POP POP PUSH1 0x20 PUSH2 0x1A84 DUP6 DUP3 DUP7 ADD PUSH2 0x19B9 JUMP JUMPDEST SWAP2 POP POP SWAP3 POP SWAP3 SWAP1 POP JUMP JUMPDEST PUSH2 0x1A97 DUP2 PUSH2 0x199A JUMP JUMPDEST DUP3 MSTORE POP POP JUMP JUMPDEST PUSH0 PUSH1 0x20 DUP3 ADD SWAP1 POP PUSH2 0x1AB0 PUSH0 DUP4 ADD DUP5 PUSH2 0x1A8E JUMP JUMPDEST SWAP3 SWAP2 POP POP JUMP JUMPDEST PUSH2 0x1ABF DUP2 PUSH2 0x1A17 JUMP JUMPDEST DUP2 EQ PUSH2 0x1AC9 JUMPI PUSH0 PUSH0 REVERT JUMPDEST POP JUMP JUMPDEST PUSH0 DUP2 CALLDATALOAD SWAP1 POP PUSH2 0x1ADA DUP2 PUSH2 0x1AB6 JUMP JUMPDEST SWAP3 SWAP2 POP POP JUMP JUMPDEST PUSH0 PUSH1 0x20 DUP3 DUP5 SUB SLT ISZERO PUSH2 0x1AF5 JUMPI PUSH2 0x1AF4 PUSH2 0x1996 JUMP JUMPDEST JUMPDEST PUSH0 PUSH2 0x1B02 DUP5 DUP3 DUP6 ADD PUSH2 0x1ACC JUMP JUMPDEST SWAP2 POP POP SWAP3 SWAP2 POP POP JUMP JUMPDEST PUSH0 PUSH1 0x80 DUP3 ADD SWAP1 POP PUSH2 0x1B1E PUSH0 DUP4 ADD DUP8 PUSH2 0x1A28 JUMP JUMPDEST PUSH2 0x1B2B PUSH1 0x20 DUP4 ADD DUP7 PUSH2 0x1A8E JUMP JUMPDEST PUSH2 0x1B38 PUSH1 0x40 DUP4 ADD DUP6 PUSH2 0x1A8E JUMP JUMPDEST PUSH2 0x1B45 PUSH1 0x60 DUP4 ADD DUP5 PUSH2 0x1A8E JUMP JUMPDEST SWAP6 SWAP5 POP POP POP POP POP JUMP JUMPDEST PUSH0 PUSH1 0x60 DUP3 ADD SWAP1 POP PUSH2 0x1B61 PUSH0 DUP4 ADD DUP7 PUSH2 0x1A28 JUMP JUMPDEST PUSH2 0x1B6E PUSH1 0x20 DUP4 ADD DUP6 PUSH2 0x1A8E JUMP JUMPDEST PUSH2 0x1B7B PUSH1 0x40 DUP4 ADD DUP5 PUSH2 0x1A8E JUMP JUMPDEST SWAP5 SWAP4 POP POP POP POP JUMP JUMPDEST PUSH0 PUSH0 PUSH0 PUSH1 0x60 DUP5 DUP7 SUB SLT ISZERO PUSH2 0x1B9A JUMPI PUSH2 0x1B99 PUSH2 0x1996 JUMP JUMPDEST JUMPDEST PUSH0 PUSH2 0x1BA7 DUP7 DUP3 DUP8 ADD PUSH2 0x1ACC JUMP JUMPDEST SWAP4 POP POP PUSH1 0x20 PUSH2 0x1BB8 DUP7 DUP3 DUP8 ADD PUSH2 0x19B9 JUMP JUMPDEST SWAP3 POP POP PUSH1 0x40 PUSH2 0x1BC9 DUP7 DUP3 DUP8 ADD PUSH2 0x19B9 JUMP JUMPDEST SWAP2 POP POP SWAP3 POP SWAP3 POP SWAP3 JUMP JUMPDEST PUSH0 DUP3 DUP3 MSTORE PUSH1 0x20 DUP3 ADD SWAP1 POP SWAP3 SWAP2 POP POP JUMP JUMPDEST PUSH32 0x4F6E6C79206F776E65722063616E207365742074686520726174650000000000 PUSH0 DUP3 ADD MSTORE POP JUMP JUMPDEST PUSH0 PUSH2 0x1C17 PUSH1 0x1B DUP4 PUSH2 0x1BD3 JUMP JUMPDEST SWAP2 POP PUSH2 0x1C22 DUP3 PUSH2 0x1BE3 JUMP JUMPDEST PUSH1 0x20 DUP3 ADD SWAP1 POP SWAP2 SWAP1 POP JUMP JUMPDEST PUSH0 PUSH1 0x20 DUP3 ADD SWAP1 POP DUP2 DUP2 SUB PUSH0 DUP4 ADD MSTORE PUSH2 0x1C44 DUP2 PUSH2 0x1C0B JUMP JUMPDEST SWAP1 POP SWAP2 SWAP1 POP JUMP JUMPDEST PUSH32 0x4E487B7100000000000000000000000000000000000000000000000000000000 PUSH0 MSTORE PUSH1 0x11 PUSH1 0x4 MSTORE PUSH1 0x24 PUSH0 REVERT JUMPDEST PUSH0 PUSH2 0x1C82 DUP3 PUSH2 0x199A JUMP JUMPDEST SWAP2 POP PUSH2 0x1C8D DUP4 PUSH2 0x199A JUMP JUMPDEST SWAP3 POP DUP3 DUP3 MUL PUSH2 0x1C9B DUP2 PUSH2 0x199A JUMP JUMPDEST SWAP2 POP DUP3 DUP3 DIV DUP5 EQ DUP4 ISZERO OR PUSH2 0x1CB2 JUMPI PUSH2 0x1CB1 PUSH2 0x1C4B JUMP JUMPDEST JUMPDEST POP SWAP3 SWAP2 POP POP JUMP JUMPDEST PUSH32 0x4E487B7100000000000000000000000000000000000000000000000000000000 PUSH0 MSTORE PUSH1 0x12 PUSH1 0x4 MSTORE PUSH1 0x24 PUSH0 REVERT JUMPDEST PUSH0 PUSH2 0x1CF0 DUP3 PUSH2 0x199A JUMP JUMPDEST SWAP2 POP PUSH2 0x1CFB DUP4 PUSH2 0x199A JUMP JUMPDEST SWAP3 POP DUP3 PUSH2 0x1D0B JUMPI PUSH2 0x1D0A PUSH2 0x1CB9 JUMP JUMPDEST JUMPDEST DUP3 DUP3 DIV SWAP1 POP SWAP3 SWAP2 POP POP JUMP JUMPDEST PUSH32 0x4F6E6C79206F776E657220617574686F72697A6573207061796D656E74000000 PUSH0 DUP3 ADD MSTORE POP JUMP JUMPDEST PUSH0 PUSH2 0x1D4A PUSH1 0x1D DUP4 PUSH2 0x1BD3 JUMP JUMPDEST SWAP2 POP PUSH2 0x1D55 DUP3 PUSH2 0x1D16 JUMP JUMPDEST PUSH1 0x20 DUP3 ADD SWAP1 POP SWAP2 SWAP1 POP JUMP JUMPDEST PUSH0 PUSH1 0x20 DUP3 ADD SWAP1 POP DUP2 DUP2 SUB PUSH0 DUP4 ADD MSTORE PUSH2 0x1D77 DUP2 PUSH2 0x1D3E JUMP JUMPDEST SWAP1 POP SWAP2 SWAP1 POP JUMP JUMPDEST PUSH32 0x4E487B7100000000000000000000000000000000000000000000000000000000 PUSH0 MSTORE PUSH1 0x32 PUSH1 0x4 MSTORE PUSH1 0x24 PUSH0 REVERT JUMPDEST PUSH32 0x45746865722073656E74203C2042696420507269636500000000000000000000 PUSH0 DUP3 ADD MSTORE POP JUMP JUMPDEST PUSH0 PUSH2 0x1DDF PUSH1 0x16 DUP4 PUSH2 0x1BD3 JUMP JUMPDEST SWAP2 POP PUSH2 0x1DEA DUP3 PUSH2 0x1DAB JUMP JUMPDEST PUSH1 0x20 DUP3 ADD SWAP1 POP SWAP2 SWAP1 POP JUMP JUMPDEST PUSH0 PUSH1 0x20 DUP3 ADD SWAP1 POP DUP2 DUP2 SUB PUSH0 DUP4 ADD MSTORE PUSH2 0x1E0C DUP2 PUSH2 0x1DD3 JUMP JUMPDEST SWAP1 POP SWAP2 SWAP1 POP JUMP JUMPDEST PUSH32 0x426964206D69736D617463680000000000000000000000000000000000000000 PUSH0 DUP3 ADD MSTORE POP JUMP JUMPDEST PUSH0 PUSH2 0x1E47 PUSH1 0xC DUP4 PUSH2 0x1BD3 JUMP JUMPDEST SWAP2 POP PUSH2 0x1E52 DUP3 PUSH2 0x1E13 JUMP JUMPDEST PUSH1 0x20 DUP3 ADD SWAP1 POP SWAP2 SWAP1 POP JUMP JUMPDEST PUSH0 PUSH1 0x20 DUP3 ADD SWAP1 POP DUP2 DUP2 SUB PUSH0 DUP4 ADD MSTORE PUSH2 0x1E74 DUP2 PUSH2 0x1E3B JUMP JUMPDEST SWAP1 POP SWAP2 SWAP1 POP JUMP JUMPDEST PUSH32 0x4F6E6C79206F776E65722063616E2072756E206D61746368696E670000000000 PUSH0 DUP3 ADD MSTORE POP JUMP JUMPDEST PUSH0 PUSH2 0x1EAF PUSH1 0x1B DUP4 PUSH2 0x1BD3 JUMP JUMPDEST SWAP2 POP PUSH2 0x1EBA DUP3 PUSH2 0x1E7B JUMP JUMPDEST PUSH1 0x20 DUP3 ADD SWAP1 POP SWAP2 SWAP1 POP JUMP JUMPDEST PUSH0 PUSH1 0x20 DUP3 ADD SWAP1 POP DUP2 DUP2 SUB PUSH0 DUP4 ADD MSTORE PUSH2 0x1EDC DUP2 PUSH2 0x1EA3 JUMP JUMPDEST SWAP1 POP SWAP2 SWAP1 POP JUMP JUMPDEST PUSH0 PUSH2 0x1EED DUP3 PUSH2 0x199A JUMP JUMPDEST SWAP2 POP PUSH2 0x1EF8 DUP4 PUSH2 0x199A JUMP JUMPDEST SWAP3 POP DUP3 DUP3 ADD SWAP1 POP DUP1 DUP3 GT ISZERO PUSH2 0x1F10 JUMPI PUSH2 0x1F0F PUSH2 0x1C4B JUMP JUMPDEST JUMPDEST SWAP3 SWAP2 POP POP JUMP JUMPDEST PUSH0 PUSH2 0x1F20 DUP3 PUSH2 0x199A JUMP JUMPDEST SWAP2 POP PUSH2 0x1F2B DUP4 PUSH2 0x199A JUMP JUMPDEST SWAP3 POP DUP3 DUP3 SUB SWAP1 POP DUP2 DUP2 GT ISZERO PUSH2 0x1F43 JUMPI PUSH2 0x1F42 PUSH2 0x1C4B JUMP JUMPDEST JUMPDEST SWAP3 SWAP2 POP POP JUMP JUMPDEST PUSH32 0x4F66666572206E6F7420666F756E640000000000000000000000000000000000 PUSH0 DUP3 ADD MSTORE POP JUMP JUMPDEST PUSH0 PUSH2 0x1F7D PUSH1 0xF DUP4 PUSH2 0x1BD3 JUMP JUMPDEST SWAP2 POP PUSH2 0x1F88 DUP3 PUSH2 0x1F49 JUMP JUMPDEST PUSH1 0x20 DUP3 ADD SWAP1 POP SWAP2 SWAP1 POP JUMP JUMPDEST PUSH0 PUSH1 0x20 DUP3 ADD SWAP1 POP DUP2 DUP2 SUB PUSH0 DUP4 ADD MSTORE PUSH2 0x1FAA DUP2 PUSH2 0x1F71 JUMP JUMPDEST SWAP1 POP SWAP2 SWAP1 POP JUMP JUMPDEST PUSH32 0x4F6E6C79206F776E657220617574686F72697A657320726566756E6400000000 PUSH0 DUP3 ADD MSTORE POP JUMP JUMPDEST PUSH0 PUSH2 0x1FE5 PUSH1 0x1C DUP4 PUSH2 0x1BD3 JUMP JUMPDEST SWAP2 POP PUSH2 0x1FF0 DUP3 PUSH2 0x1FB1 JUMP JUMPDEST PUSH1 0x20 DUP3 ADD SWAP1 POP SWAP2 SWAP1 POP JUMP JUMPDEST PUSH0 PUSH1 0x20 DUP3 ADD SWAP1 POP DUP2 DUP2 SUB PUSH0 DUP4 ADD MSTORE PUSH2 0x2012 DUP2 PUSH2 0x1FD9 JUMP JUMPDEST SWAP1 POP SWAP2 SWAP1 POP JUMP INVALID LOG2 PUSH5 0x6970667358 0x22 SLT KECCAK256 JUMPF 0x65B7 CALLCODE 0xB1 DUP4 0xC7 POP SGT PUSH1 0x94 CALLCODE PUSH7 0x94F6568FE3C995 0xDF EXTCALL 0xB7 0xF6 MULMOD DUP3 RETURNDATACOPY 0x24 SHL 0xC4 0xD6 0xD9 PUSH5 0x736F6C6343 STOP ADDMOD 0x1E STOP CALLER "
				},
				"gasEstimates": {
					"creation": {
						"codeDepositCost": "1654200",
						"executionCost": "25999",
						"totalCost": "1680199"
					},
					"external": {
						"allSellers(uint256)": "infinite",
						"buyerLookup(uint256)": "4990",
						"buyers(address)": "infinite",
						"checkEtherEquiv(uint256)": "infinite",
						"matchDemandAndSupply()": "infinite",
						"owner()": "2553",
						"paySellers()": "infinite",
						"paylist(uint256)": "infinite",
						"refundBuyers()": "infinite",
						"setRate(uint256)": "24707",
						"submitBid(uint256,uint256)": "infinite",
						"submitOffers(uint256,uint256)": "infinite",
						"vAddresses(uint256)": "5076",
						"vBBPs(uint256)": "infinite",
						"vBEBs(uint256)": "infinite",
						"vBuyerAddr(uint256)": "4966",
						"vBuyers(uint256)": "infinite",
						"vFCs(uint256)": "infinite",
						"vSEOs(uint256)": "infinite",
						"vSOPs(uint256)": "infinite",
						"vSellers(uint256)": "infinite",
						"verifiedBids(address,uint256,uint256)": "infinite",
						"verifiedOffers(address,uint256,uint256)": "infinite"
					}
				},
				"methodIdentifiers": {
					"allSellers(uint256)": "ed4a4a24",
					"buyerLookup(uint256)": "42bec084",
					"buyers(address)": "97a993aa",
					"checkEtherEquiv(uint256)": "701d1973",
					"matchDemandAndSupply()": "c3c7d602",
					"owner()": "8da5cb5b",
					"paySellers()": "b2bf04a3",
					"paylist(uint256)": "e1d53875",
					"refundBuyers()": "f2905237",
					"setRate(uint256)": "34fcf437",
					"submitBid(uint256,uint256)": "b821da1b",
					"submitOffers(uint256,uint256)": "6d6be726",
					"vAddresses(uint256)": "f40ab387",
					"vBBPs(uint256)": "bf2c0451",
					"vBEBs(uint256)": "82a8c853",
					"vBuyerAddr(uint256)": "ddd469d8",
					"vBuyers(uint256)": "d9704984",
					"vFCs(uint256)": "ba4e194f",
					"vSEOs(uint256)": "7b4b1dcd",
					"vSOPs(uint256)": "ec14f2a2",
					"vSellers(uint256)": "a8bba507",
					"verifiedBids(address,uint256,uint256)": "be9abf1c",
					"verifiedOffers(address,uint256,uint256)": "d23c1779"
				}
			},
			"storageLayout": {
				"storage": [
					{
						"astId": 3,
						"contract": "contracts/InternalEnergyAccountingContract.sol:InternalEnergyAccountingContract",
						"label": "etherPrice",
						"offset": 0,
						"slot": "0",
						"type": "t_uint256"
					},
					{
						"astId": 5,
						"contract": "contracts/InternalEnergyAccountingContract.sol:InternalEnergyAccountingContract",
						"label": "owner",
						"offset": 0,
						"slot": "1",
						"type": "t_address"
					},
					{
						"astId": 16,
						"contract": "contracts/InternalEnergyAccountingContract.sol:InternalEnergyAccountingContract",
						"label": "allSellers",
						"offset": 0,
						"slot": "2",
						"type": "t_array(t_struct(Seller)12_storage)dyn_storage"
					},
					{
						"astId": 28,
						"contract": "contracts/InternalEnergyAccountingContract.sol:InternalEnergyAccountingContract",
						"label": "vSellers",
						"offset": 0,
						"slot": "3",
						"type": "t_mapping(t_uint256,t_struct(VerifiedSeller)23_storage)"
					},
					{
						"astId": 31,
						"contract": "contracts/InternalEnergyAccountingContract.sol:InternalEnergyAccountingContract",
						"label": "vAddresses",
						"offset": 0,
						"slot": "4",
						"type": "t_array(t_address)dyn_storage"
					},
					{
						"astId": 34,
						"contract": "contracts/InternalEnergyAccountingContract.sol:InternalEnergyAccountingContract",
						"label": "vSEOs",
						"offset": 0,
						"slot": "5",
						"type": "t_array(t_uint256)dyn_storage"
					},
					{
						"astId": 37,
						"contract": "contracts/InternalEnergyAccountingContract.sol:InternalEnergyAccountingContract",
						"label": "vSOPs",
						"offset": 0,
						"slot": "6",
						"type": "t_array(t_uint256)dyn_storage"
					},
					{
						"astId": 51,
						"contract": "contracts/InternalEnergyAccountingContract.sol:InternalEnergyAccountingContract",
						"label": "buyers",
						"offset": 0,
						"slot": "7",
						"type": "t_mapping(t_address,t_struct(Buyer)46_storage)"
					},
					{
						"astId": 54,
						"contract": "contracts/InternalEnergyAccountingContract.sol:InternalEnergyAccountingContract",
						"label": "buyerLookup",
						"offset": 0,
						"slot": "8",
						"type": "t_array(t_address)dyn_storage"
					},
					{
						"astId": 68,
						"contract": "contracts/InternalEnergyAccountingContract.sol:InternalEnergyAccountingContract",
						"label": "vBuyers",
						"offset": 0,
						"slot": "9",
						"type": "t_mapping(t_uint256,t_struct(VerifiedBuyer)63_storage)"
					},
					{
						"astId": 71,
						"contract": "contracts/InternalEnergyAccountingContract.sol:InternalEnergyAccountingContract",
						"label": "vBuyerAddr",
						"offset": 0,
						"slot": "10",
						"type": "t_array(t_address)dyn_storage"
					},
					{
						"astId": 74,
						"contract": "contracts/InternalEnergyAccountingContract.sol:InternalEnergyAccountingContract",
						"label": "vBEBs",
						"offset": 0,
						"slot": "11",
						"type": "t_array(t_uint256)dyn_storage"
					},
					{
						"astId": 77,
						"contract": "contracts/InternalEnergyAccountingContract.sol:InternalEnergyAccountingContract",
						"label": "vBBPs",
						"offset": 0,
						"slot": "12",
						"type": "t_array(t_uint256)dyn_storage"
					},
					{
						"astId": 80,
						"contract": "contracts/InternalEnergyAccountingContract.sol:InternalEnergyAccountingContract",
						"label": "vFCs",
						"offset": 0,
						"slot": "13",
						"type": "t_array(t_uint256)dyn_storage"
					},
					{
						"astId": 83,
						"contract": "contracts/InternalEnergyAccountingContract.sol:InternalEnergyAccountingContract",
						"label": "paylist",
						"offset": 0,
						"slot": "14",
						"type": "t_array(t_uint256)dyn_storage"
					}
				],
				"types": {
					"t_address": {
						"encoding": "inplace",
						"label": "address",
						"numberOfBytes": "20"
					},
					"t_array(t_address)dyn_storage": {
						"base": "t_address",
						"encoding": "dynamic_array",
						"label": "address[]",
						"numberOfBytes": "32"
					},
					"t_array(t_struct(Seller)12_storage)dyn_storage": {
						"base": "t_struct(Seller)12_storage",
						"encoding": "dynamic_array",
						"label": "struct InternalEnergyAccountingContract.Seller[]",
						"numberOfBytes": "32"
					},
					"t_array(t_uint256)dyn_storage": {
						"base": "t_uint256",
						"encoding": "dynamic_array",
						"label": "uint256[]",
						"numberOfBytes": "32"
					},
					"t_mapping(t_address,t_struct(Buyer)46_storage)": {
						"encoding": "mapping",
						"key": "t_address",
						"label": "mapping(address => struct InternalEnergyAccountingContract.Buyer)",
						"numberOfBytes": "32",
						"value": "t_struct(Buyer)46_storage"
					},
					"t_mapping(t_uint256,t_struct(VerifiedBuyer)63_storage)": {
						"encoding": "mapping",
						"key": "t_uint256",
						"label": "mapping(uint256 => struct InternalEnergyAccountingContract.VerifiedBuyer)",
						"numberOfBytes": "32",
						"value": "t_struct(VerifiedBuyer)63_storage"
					},
					"t_mapping(t_uint256,t_struct(VerifiedSeller)23_storage)": {
						"encoding": "mapping",
						"key": "t_uint256",
						"label": "mapping(uint256 => struct InternalEnergyAccountingContract.VerifiedSeller)",
						"numberOfBytes": "32",
						"value": "t_struct(VerifiedSeller)23_storage"
					},
					"t_struct(Buyer)46_storage": {
						"encoding": "inplace",
						"label": "struct InternalEnergyAccountingContract.Buyer",
						"members": [
							{
								"astId": 39,
								"contract": "contracts/InternalEnergyAccountingContract.sol:InternalEnergyAccountingContract",
								"label": "addr",
								"offset": 0,
								"slot": "0",
								"type": "t_address"
							},
							{
								"astId": 41,
								"contract": "contracts/InternalEnergyAccountingContract.sol:InternalEnergyAccountingContract",
								"label": "energyDemanded",
								"offset": 0,
								"slot": "1",
								"type": "t_uint256"
							},
							{
								"astId": 43,
								"contract": "contracts/InternalEnergyAccountingContract.sol:InternalEnergyAccountingContract",
								"label": "priceBid",
								"offset": 0,
								"slot": "2",
								"type": "t_uint256"
							},
							{
								"astId": 45,
								"contract": "contracts/InternalEnergyAccountingContract.sol:InternalEnergyAccountingContract",
								"label": "fundsCommitted",
								"offset": 0,
								"slot": "3",
								"type": "t_uint256"
							}
						],
						"numberOfBytes": "128"
					},
					"t_struct(Seller)12_storage": {
						"encoding": "inplace",
						"label": "struct InternalEnergyAccountingContract.Seller",
						"members": [
							{
								"astId": 7,
								"contract": "contracts/InternalEnergyAccountingContract.sol:InternalEnergyAccountingContract",
								"label": "addr",
								"offset": 0,
								"slot": "0",
								"type": "t_address"
							},
							{
								"astId": 9,
								"contract": "contracts/InternalEnergyAccountingContract.sol:InternalEnergyAccountingContract",
								"label": "energyOffered",
								"offset": 0,
								"slot": "1",
								"type": "t_uint256"
							},
							{
								"astId": 11,
								"contract": "contracts/InternalEnergyAccountingContract.sol:InternalEnergyAccountingContract",
								"label": "desiredPrice",
								"offset": 0,
								"slot": "2",
								"type": "t_uint256"
							}
						],
						"numberOfBytes": "96"
					},
					"t_struct(VerifiedBuyer)63_storage": {
						"encoding": "inplace",
						"label": "struct InternalEnergyAccountingContract.VerifiedBuyer",
						"members": [
							{
								"astId": 56,
								"contract": "contracts/InternalEnergyAccountingContract.sol:InternalEnergyAccountingContract",
								"label": "addr",
								"offset": 0,
								"slot": "0",
								"type": "t_address"
							},
							{
								"astId": 58,
								"contract": "contracts/InternalEnergyAccountingContract.sol:InternalEnergyAccountingContract",
								"label": "energyDemanded",
								"offset": 0,
								"slot": "1",
								"type": "t_uint256"
							},
							{
								"astId": 60,
								"contract": "contracts/InternalEnergyAccountingContract.sol:InternalEnergyAccountingContract",
								"label": "priceBid",
								"offset": 0,
								"slot": "2",
								"type": "t_uint256"
							},
							{
								"astId": 62,
								"contract": "contracts/InternalEnergyAccountingContract.sol:InternalEnergyAccountingContract",
								"label": "fundsCommitted",
								"offset": 0,
								"slot": "3",
								"type": "t_uint256"
							}
						],
						"numberOfBytes": "128"
					},
					"t_struct(VerifiedSeller)23_storage": {
						"encoding": "inplace",
						"label": "struct InternalEnergyAccountingContract.VerifiedSeller",
						"members": [
							{
								"astId": 18,
								"contract": "contracts/InternalEnergyAccountingContract.sol:InternalEnergyAccountingContract",
								"label": "addr",
								"offset": 0,
								"slot": "0",
								"type": "t_address"
							},
							{
								"astId": 20,
								"contract": "contracts/InternalEnergyAccountingContract.sol:InternalEnergyAccountingContract",
								"label": "energyOffered",
								"offset": 0,
								"slot": "1",
								"type": "t_uint256"
							},
							{
								"astId": 22,
								"contract": "contracts/InternalEnergyAccountingContract.sol:InternalEnergyAccountingContract",
								"label": "desiredPrice",
								"offset": 0,
								"slot": "2",
								"type": "t_uint256"
							}
						],
						"numberOfBytes": "96"
					},
					"t_uint256": {
						"encoding": "inplace",
						"label": "uint256",
						"numberOfBytes": "32"
					}
				}
			},
			"userdoc": {
				"kind": "user",
				"methods": {},
				"version": 1
			}
		}
	}
}